{
  "_format": "hh-sol-artifact-1",
  "contractName": "NTDaoNft",
  "sourceName": "contracts/NTDaoNft.sol",
  "abi": [
    {
      "inputs": [
        {
          "internalType": "string",
          "name": "baseImgUrl_",
          "type": "string"
        }
      ],
      "stateMutability": "nonpayable",
      "type": "constructor"
    },
    {
      "anonymous": false,
      "inputs": [
        {
          "indexed": true,
          "internalType": "address",
          "name": "owner",
          "type": "address"
        },
        {
          "indexed": true,
          "internalType": "address",
          "name": "approved",
          "type": "address"
        },
        {
          "indexed": true,
          "internalType": "uint256",
          "name": "tokenId",
          "type": "uint256"
        }
      ],
      "name": "Approval",
      "type": "event"
    },
    {
      "anonymous": false,
      "inputs": [
        {
          "indexed": true,
          "internalType": "address",
          "name": "owner",
          "type": "address"
        },
        {
          "indexed": true,
          "internalType": "address",
          "name": "operator",
          "type": "address"
        },
        {
          "indexed": false,
          "internalType": "bool",
          "name": "approved",
          "type": "bool"
        }
      ],
      "name": "ApprovalForAll",
      "type": "event"
    },
    {
      "anonymous": false,
      "inputs": [
        {
          "indexed": false,
          "internalType": "address",
          "name": "recipient",
          "type": "address"
        },
        {
          "indexed": false,
          "internalType": "uint256",
          "name": "amount",
          "type": "uint256"
        }
      ],
      "name": "BalanceWithdraw",
      "type": "event"
    },
    {
      "anonymous": false,
      "inputs": [
        {
          "indexed": true,
          "internalType": "address",
          "name": "previousOwner",
          "type": "address"
        },
        {
          "indexed": true,
          "internalType": "address",
          "name": "newOwner",
          "type": "address"
        }
      ],
      "name": "OwnershipTransferred",
      "type": "event"
    },
    {
      "anonymous": false,
      "inputs": [
        {
          "indexed": false,
          "internalType": "address",
          "name": "caller",
          "type": "address"
        },
        {
          "indexed": false,
          "internalType": "uint256",
          "name": "amount",
          "type": "uint256"
        },
        {
          "indexed": false,
          "internalType": "string",
          "name": "message",
          "type": "string"
        }
      ],
      "name": "Received",
      "type": "event"
    },
    {
      "anonymous": false,
      "inputs": [
        {
          "indexed": true,
          "internalType": "address",
          "name": "to",
          "type": "address"
        },
        {
          "indexed": true,
          "internalType": "uint256",
          "name": "tokenId",
          "type": "uint256"
        },
        {
          "indexed": false,
          "internalType": "uint256",
          "name": "amount",
          "type": "uint256"
        }
      ],
      "name": "Refunded",
      "type": "event"
    },
    {
      "anonymous": false,
      "inputs": [
        {
          "indexed": false,
          "internalType": "enum NTDaoNft.State",
          "name": "_state",
          "type": "uint8"
        }
      ],
      "name": "StateChanged",
      "type": "event"
    },
    {
      "anonymous": false,
      "inputs": [
        {
          "indexed": true,
          "internalType": "address",
          "name": "from",
          "type": "address"
        },
        {
          "indexed": true,
          "internalType": "address",
          "name": "to",
          "type": "address"
        },
        {
          "indexed": true,
          "internalType": "uint256",
          "name": "tokenId",
          "type": "uint256"
        }
      ],
      "name": "Transfer",
      "type": "event"
    },
    {
      "stateMutability": "payable",
      "type": "fallback"
    },
    {
      "inputs": [],
      "name": "MAX_PUBLIC_ID",
      "outputs": [
        {
          "internalType": "uint16",
          "name": "",
          "type": "uint16"
        }
      ],
      "stateMutability": "view",
      "type": "function"
    },
    {
      "inputs": [],
      "name": "MAX_PUBLIC_MULTI",
      "outputs": [
        {
          "internalType": "uint8",
          "name": "",
          "type": "uint8"
        }
      ],
      "stateMutability": "view",
      "type": "function"
    },
    {
      "inputs": [],
      "name": "MINTING_FEE",
      "outputs": [
        {
          "internalType": "uint256",
          "name": "",
          "type": "uint256"
        }
      ],
      "stateMutability": "view",
      "type": "function"
    },
    {
      "inputs": [
        {
          "internalType": "address",
          "name": "to",
          "type": "address"
        },
        {
          "internalType": "uint256",
          "name": "tokenId",
          "type": "uint256"
        }
      ],
      "name": "approve",
      "outputs": [],
      "stateMutability": "nonpayable",
      "type": "function"
    },
    {
      "inputs": [
        {
          "internalType": "address",
          "name": "owner",
          "type": "address"
        }
      ],
      "name": "balanceOf",
      "outputs": [
        {
          "internalType": "uint256",
          "name": "",
          "type": "uint256"
        }
      ],
      "stateMutability": "view",
      "type": "function"
    },
    {
      "inputs": [],
      "name": "changeToPermanent",
      "outputs": [],
      "stateMutability": "nonpayable",
      "type": "function"
    },
    {
      "inputs": [
        {
          "internalType": "uint256",
          "name": "tokenId",
          "type": "uint256"
        }
      ],
      "name": "getApproved",
      "outputs": [
        {
          "internalType": "address",
          "name": "",
          "type": "address"
        }
      ],
      "stateMutability": "view",
      "type": "function"
    },
    {
      "inputs": [],
      "name": "getBalance",
      "outputs": [
        {
          "internalType": "uint256",
          "name": "",
          "type": "uint256"
        }
      ],
      "stateMutability": "view",
      "type": "function"
    },
    {
      "inputs": [
        {
          "internalType": "uint256",
          "name": "_tokenId",
          "type": "uint256"
        }
      ],
      "name": "getBaseGeneNames",
      "outputs": [
        {
          "internalType": "string[]",
          "name": "",
          "type": "string[]"
        }
      ],
      "stateMutability": "view",
      "type": "function"
    },
    {
      "inputs": [
        {
          "internalType": "uint256",
          "name": "_tokenId",
          "type": "uint256"
        }
      ],
      "name": "getBaseGenes",
      "outputs": [
        {
          "internalType": "uint256[]",
          "name": "",
          "type": "uint256[]"
        }
      ],
      "stateMutability": "view",
      "type": "function"
    },
    {
      "inputs": [
        {
          "internalType": "uint256",
          "name": "_tokenId",
          "type": "uint256"
        }
      ],
      "name": "getImgIdx",
      "outputs": [
        {
          "internalType": "string",
          "name": "",
          "type": "string"
        }
      ],
      "stateMutability": "view",
      "type": "function"
    },
    {
      "inputs": [
        {
          "internalType": "uint256",
          "name": "_tokenId",
          "type": "uint256"
        }
      ],
      "name": "getImgUrl",
      "outputs": [
        {
          "internalType": "string",
          "name": "",
          "type": "string"
        }
      ],
      "stateMutability": "view",
      "type": "function"
    },
    {
      "inputs": [],
      "name": "getMintingState",
      "outputs": [
        {
          "internalType": "uint8",
          "name": "",
          "type": "uint8"
        }
      ],
      "stateMutability": "view",
      "type": "function"
    },
    {
      "inputs": [
        {
          "internalType": "uint256",
          "name": "_tokenId",
          "type": "uint256"
        }
      ],
      "name": "getSeed",
      "outputs": [
        {
          "internalType": "uint256",
          "name": "",
          "type": "uint256"
        }
      ],
      "stateMutability": "view",
      "type": "function"
    },
    {
      "inputs": [
        {
          "internalType": "address",
          "name": "owner",
          "type": "address"
        },
        {
          "internalType": "address",
          "name": "operator",
          "type": "address"
        }
      ],
      "name": "isApprovedForAll",
      "outputs": [
        {
          "internalType": "bool",
          "name": "",
          "type": "bool"
        }
      ],
      "stateMutability": "view",
      "type": "function"
    },
    {
      "inputs": [],
      "name": "isPermanent",
      "outputs": [
        {
          "internalType": "bool",
          "name": "",
          "type": "bool"
        }
      ],
      "stateMutability": "view",
      "type": "function"
    },
    {
      "inputs": [],
      "name": "name",
      "outputs": [
        {
          "internalType": "string",
          "name": "",
          "type": "string"
        }
      ],
      "stateMutability": "view",
      "type": "function"
    },
    {
      "inputs": [],
      "name": "owner",
      "outputs": [
        {
          "internalType": "address",
          "name": "",
          "type": "address"
        }
      ],
      "stateMutability": "view",
      "type": "function"
    },
    {
      "inputs": [
        {
          "internalType": "uint256",
          "name": "tokenId",
          "type": "uint256"
        }
      ],
      "name": "ownerOf",
      "outputs": [
        {
          "internalType": "address",
          "name": "",
          "type": "address"
        }
      ],
      "stateMutability": "view",
      "type": "function"
    },
    {
      "inputs": [
        {
          "internalType": "uint256",
          "name": "_count",
          "type": "uint256"
        }
      ],
      "name": "publicMint",
      "outputs": [],
      "stateMutability": "payable",
      "type": "function"
    },
    {
      "inputs": [
        {
          "internalType": "uint256[]",
          "name": "tokenIds_",
          "type": "uint256[]"
        }
      ],
      "name": "refund",
      "outputs": [],
      "stateMutability": "nonpayable",
      "type": "function"
    },
    {
      "inputs": [
        {
          "internalType": "uint256",
          "name": "tokenId_",
          "type": "uint256"
        }
      ],
      "name": "refundState",
      "outputs": [
        {
          "internalType": "bool",
          "name": "",
          "type": "bool"
        }
      ],
      "stateMutability": "view",
      "type": "function"
    },
    {
      "inputs": [
        {
          "internalType": "uint256",
          "name": "",
          "type": "uint256"
        }
      ],
      "name": "refunds",
      "outputs": [
        {
          "internalType": "bool",
          "name": "",
          "type": "bool"
        }
      ],
      "stateMutability": "view",
      "type": "function"
    },
    {
      "inputs": [],
      "name": "renounceOwnership",
      "outputs": [],
      "stateMutability": "nonpayable",
      "type": "function"
    },
    {
      "inputs": [
        {
          "internalType": "address",
          "name": "from",
          "type": "address"
        },
        {
          "internalType": "address",
          "name": "to",
          "type": "address"
        },
        {
          "internalType": "uint256",
          "name": "tokenId",
          "type": "uint256"
        }
      ],
      "name": "safeTransferFrom",
      "outputs": [],
      "stateMutability": "nonpayable",
      "type": "function"
    },
    {
      "inputs": [
        {
          "internalType": "address",
          "name": "from",
          "type": "address"
        },
        {
          "internalType": "address",
          "name": "to",
          "type": "address"
        },
        {
          "internalType": "uint256",
          "name": "tokenId",
          "type": "uint256"
        },
        {
          "internalType": "bytes",
          "name": "_data",
          "type": "bytes"
        }
      ],
      "name": "safeTransferFrom",
      "outputs": [],
      "stateMutability": "nonpayable",
      "type": "function"
    },
    {
      "inputs": [
        {
          "internalType": "address",
          "name": "operator",
          "type": "address"
        },
        {
          "internalType": "bool",
          "name": "approved",
          "type": "bool"
        }
      ],
      "name": "setApprovalForAll",
      "outputs": [],
      "stateMutability": "nonpayable",
      "type": "function"
    },
    {
      "inputs": [],
      "name": "setStateToFinished",
      "outputs": [],
      "stateMutability": "nonpayable",
      "type": "function"
    },
    {
      "inputs": [],
      "name": "setStateToPublicMint",
      "outputs": [],
      "stateMutability": "nonpayable",
      "type": "function"
    },
    {
      "inputs": [],
      "name": "setStateToRefund",
      "outputs": [],
      "stateMutability": "nonpayable",
      "type": "function"
    },
    {
      "inputs": [],
      "name": "setStateToSetup",
      "outputs": [],
      "stateMutability": "nonpayable",
      "type": "function"
    },
    {
      "inputs": [],
      "name": "state",
      "outputs": [
        {
          "internalType": "enum NTDaoNft.State",
          "name": "",
          "type": "uint8"
        }
      ],
      "stateMutability": "view",
      "type": "function"
    },
    {
      "inputs": [
        {
          "internalType": "bytes4",
          "name": "interfaceId",
          "type": "bytes4"
        }
      ],
      "name": "supportsInterface",
      "outputs": [
        {
          "internalType": "bool",
          "name": "",
          "type": "bool"
        }
      ],
      "stateMutability": "view",
      "type": "function"
    },
    {
      "inputs": [],
      "name": "symbol",
      "outputs": [
        {
          "internalType": "string",
          "name": "",
          "type": "string"
        }
      ],
      "stateMutability": "view",
      "type": "function"
    },
    {
      "inputs": [
        {
          "internalType": "uint256",
          "name": "index",
          "type": "uint256"
        }
      ],
      "name": "tokenByIndex",
      "outputs": [
        {
          "internalType": "uint256",
          "name": "",
          "type": "uint256"
        }
      ],
      "stateMutability": "view",
      "type": "function"
    },
    {
      "inputs": [
        {
          "internalType": "address",
          "name": "owner",
          "type": "address"
        },
        {
          "internalType": "uint256",
          "name": "index",
          "type": "uint256"
        }
      ],
      "name": "tokenOfOwnerByIndex",
      "outputs": [
        {
          "internalType": "uint256",
          "name": "",
          "type": "uint256"
        }
      ],
      "stateMutability": "view",
      "type": "function"
    },
    {
      "inputs": [
        {
          "internalType": "uint256",
          "name": "_tokenId",
          "type": "uint256"
        }
      ],
      "name": "tokenURI",
      "outputs": [
        {
          "internalType": "string",
          "name": "",
          "type": "string"
        }
      ],
      "stateMutability": "view",
      "type": "function"
    },
    {
      "inputs": [
        {
          "internalType": "address",
          "name": "_account",
          "type": "address"
        }
      ],
      "name": "tokensOf",
      "outputs": [
        {
          "internalType": "uint256[]",
          "name": "",
          "type": "uint256[]"
        }
      ],
      "stateMutability": "view",
      "type": "function"
    },
    {
      "inputs": [],
      "name": "totalSupply",
      "outputs": [
        {
          "internalType": "uint256",
          "name": "",
          "type": "uint256"
        }
      ],
      "stateMutability": "view",
      "type": "function"
    },
    {
      "inputs": [
        {
          "internalType": "uint256[]",
          "name": "tokenIds_",
          "type": "uint256[]"
        },
        {
          "internalType": "address",
          "name": "_to",
          "type": "address"
        }
      ],
      "name": "transferBatch",
      "outputs": [],
      "stateMutability": "nonpayable",
      "type": "function"
    },
    {
      "inputs": [
        {
          "internalType": "address",
          "name": "from",
          "type": "address"
        },
        {
          "internalType": "address",
          "name": "to",
          "type": "address"
        },
        {
          "internalType": "uint256",
          "name": "tokenId",
          "type": "uint256"
        }
      ],
      "name": "transferFrom",
      "outputs": [],
      "stateMutability": "nonpayable",
      "type": "function"
    },
    {
      "inputs": [
        {
          "internalType": "address",
          "name": "newOwner",
          "type": "address"
        }
      ],
      "name": "transferOwnership",
      "outputs": [],
      "stateMutability": "nonpayable",
      "type": "function"
    },
    {
      "inputs": [
        {
          "internalType": "string",
          "name": "_url",
          "type": "string"
        }
      ],
      "name": "updateBaseImgUrl",
      "outputs": [],
      "stateMutability": "nonpayable",
      "type": "function"
    },
    {
      "inputs": [
        {
          "internalType": "address",
          "name": "geneContract_",
          "type": "address"
        }
      ],
      "name": "updateGene",
      "outputs": [],
      "stateMutability": "nonpayable",
      "type": "function"
    },
    {
      "inputs": [
        {
          "internalType": "uint256",
          "name": "_feeAmount",
          "type": "uint256"
        }
      ],
      "name": "updateMintingFee",
      "outputs": [],
      "stateMutability": "nonpayable",
      "type": "function"
    },
    {
      "inputs": [
        {
          "internalType": "address payable",
          "name": "_to",
          "type": "address"
        },
        {
          "internalType": "uint256",
          "name": "_amount",
          "type": "uint256"
        }
      ],
      "name": "withdraw",
      "outputs": [],
      "stateMutability": "nonpayable",
      "type": "function"
    },
    {
      "stateMutability": "payable",
      "type": "receive"
    }
  ],
  "bytecode": "0x681043561a8829300000600f5560a0604081905260006080819052620000289160109162000161565b503480156200003657600080fd5b5060405162003b0c38038062003b0c83398101604081905262000059916200021d565b604080518082018252601981527f4e6174696f6e616c2054726561737572652044414f204e4654000000000000006020808301918252835180850190945260098452681395111053cb53919560ba1b908401528151919291620000bf9160009162000161565b508051620000d590600190602084019062000161565b50506001600a5550620000e8336200010f565b8051620000fd90601090602084019062000161565b5050600d805460ff1916905562000336565b600b80546001600160a01b038381166001600160a01b0319831681179093556040519116919082907f8be0079c531659141344cd1fd0a4f28419497f9722a3daafe3b4186f6b6457e090600090a35050565b8280546200016f90620002f9565b90600052602060002090601f016020900481019282620001935760008555620001de565b82601f10620001ae57805160ff1916838001178555620001de565b82800160010185558215620001de579182015b82811115620001de578251825591602001919060010190620001c1565b50620001ec929150620001f0565b5090565b5b80821115620001ec5760008155600101620001f1565b634e487b7160e01b600052604160045260246000fd5b600060208083850312156200023157600080fd5b82516001600160401b03808211156200024957600080fd5b818501915085601f8301126200025e57600080fd5b81518181111562000273576200027362000207565b604051601f8201601f19908116603f011681019083821181831017156200029e576200029e62000207565b816040528281528886848701011115620002b757600080fd5b600093505b82841015620002db5784840186015181850187015292850192620002bc565b82841115620002ed5760008684830101525b98975050505050505050565b600181811c908216806200030e57607f821691505b602082108114156200033057634e487b7160e01b600052602260045260246000fd5b50919050565b6137c680620003466000396000f3fe6080604052600436106102815760003560e01c806372769e6f1161014f578063c084d542116100c1578063e0d4ea371161007a578063e0d4ea371461081d578063e36bd0f31461083d578063e985e9c51461086d578063f2fde38b146108b6578063f3b90045146108d6578063f3fef3a3146108eb576102f7565b8063c084d54214610753578063c19d93fb14610773578063c87b56dd1461079a578063cf2defeb146107ba578063d08fd6eb146107da578063d642b4b114610807576102f7565b80639f0568e6116101135780639f0568e6146106a9578063a22cb465146106be578063aa613df5146106de578063b0384ea1146106fe578063b88d4fde14610713578063c0275a2514610733576102f7565b806372769e6f1461062057806378bff498146106355780637be33c09146106565780638da5cb5b1461067657806395d89b4114610694576102f7565b80632f745c59116101f35780635555c402116101ac5780635555c402146105555780635a3f2672146105755780636352211e146105a25780636c0e693a146105c257806370a08231146105eb578063715018a61461060b576102f7565b80632f745c59146104905780633c45d706146104b057806342842e0e146104d05780634c7cc383146104f05780634e371a6e146105205780634f6ccce714610535576102f7565b806312065fe01161024557806312065fe0146103ef57806318160ddd1461040c57806323af88271461042157806323b872dd1461043657806327701f75146104565780632db115441461047d576102f7565b806301ffc9a71461031e5780630202def11461035357806306fdde0314610375578063081812fc14610397578063095ea7b3146103cf576102f7565b366102f7577f59e04c3f0d44b7caf6e8ef854b61d9a51cf1960d7a88ff6356cc5e946b4b5832335b604080516001600160a01b03909216825234602083015260609082018190526013908201527211985b1b189858dac81dd85cc818d85b1b1959606a1b608082015260a00160405180910390a1005b7f59e04c3f0d44b7caf6e8ef854b61d9a51cf1960d7a88ff6356cc5e946b4b5832336102a9565b34801561032a57600080fd5b5061033e610339366004612b8f565b61090b565b60405190151581526020015b60405180910390f35b34801561035f57600080fd5b5061037361036e366004612c0c565b610936565b005b34801561038157600080fd5b5061038a6109b2565b60405161034a9190612cba565b3480156103a357600080fd5b506103b76103b2366004612ccd565b610a44565b6040516001600160a01b03909116815260200161034a565b3480156103db57600080fd5b506103736103ea366004612ce6565b610acc565b3480156103fb57600080fd5b50475b60405190815260200161034a565b34801561041857600080fd5b506008546103fe565b34801561042d57600080fd5b50610373610be2565b34801561044257600080fd5b50610373610451366004612d12565b610c62565b34801561046257600080fd5b5061046b610c93565b60405160ff909116815260200161034a565b61037361048b366004612ccd565b610d1e565b34801561049c57600080fd5b506103fe6104ab366004612ce6565b610fa2565b3480156104bc57600080fd5b506103736104cb366004612dfe565b611038565b3480156104dc57600080fd5b506103736104eb366004612d12565b6110dd565b3480156104fc57600080fd5b5061033e61050b366004612ccd565b60009081526011602052604090205460ff1690565b34801561052c57600080fd5b506103736110f8565b34801561054157600080fd5b506103fe610550366004612ccd565b611136565b34801561056157600080fd5b5061038a610570366004612ccd565b6111c9565b34801561058157600080fd5b50610595610590366004612e46565b61126f565b60405161034a9190612e63565b3480156105ae57600080fd5b506103b76105bd366004612ccd565b611312565b3480156105ce57600080fd5b506105d8614e2081565b60405161ffff909116815260200161034a565b3480156105f757600080fd5b506103fe610606366004612e46565b611389565b34801561061757600080fd5b50610373611410565b34801561062c57600080fd5b50610373611446565b34801561064157600080fd5b50600e5461033e90600160a01b900460ff1681565b34801561066257600080fd5b50610373610671366004612e46565b611485565b34801561068257600080fd5b50600b546001600160a01b03166103b7565b3480156106a057600080fd5b5061038a61153b565b3480156106b557600080fd5b5061037361154a565b3480156106ca57600080fd5b506103736106d9366004612ea7565b611587565b3480156106ea57600080fd5b506103736106f9366004612ee5565b611592565b34801561070a57600080fd5b506103736118b5565b34801561071f57600080fd5b5061037361072e366004612f26565b6118f3565b34801561073f57600080fd5b5061037361074e366004612ccd565b61192b565b34801561075f57600080fd5b5061038a61076e366004612ccd565b61195a565b34801561077f57600080fd5b50600d5461078d9060ff1681565b60405161034a9190612fbb565b3480156107a657600080fd5b5061038a6107b5366004612ccd565b6119b3565b3480156107c657600080fd5b506105956107d5366004612ccd565b611a65565b3480156107e657600080fd5b506107fa6107f5366004612ccd565b611b03565b60405161034a9190612fe3565b34801561081357600080fd5b506103fe600f5481565b34801561082957600080fd5b506103fe610838366004612ccd565b611ba1565b34801561084957600080fd5b5061033e610858366004612ccd565b60116020526000908152604090205460ff1681565b34801561087957600080fd5b5061033e610888366004613045565b6001600160a01b03918216600090815260056020908152604080832093909416825291909152205460ff1690565b3480156108c257600080fd5b506103736108d1366004612e46565b611c3b565b3480156108e257600080fd5b5061046b601481565b3480156108f757600080fd5b50610373610906366004612ce6565b611cd6565b60006001600160e01b0319821663780e9d6360e01b1480610930575061093082611ded565b92915050565b6002600a5414156109625760405162461bcd60e51b815260040161095990613073565b60405180910390fd5b6002600a5560005b828110156109a7576109953383868685818110610989576109896130aa565b905060200201356110dd565b8061099f816130d6565b91505061096a565b50506001600a555050565b6060600080546109c1906130f1565b80601f01602080910402602001604051908101604052809291908181526020018280546109ed906130f1565b8015610a3a5780601f10610a0f57610100808354040283529160200191610a3a565b820191906000526020600020905b815481529060010190602001808311610a1d57829003601f168201915b5050505050905090565b6000610a4f82611e3d565b610ab05760405162461bcd60e51b815260206004820152602c60248201527f4552433732313a20617070726f76656420717565727920666f72206e6f6e657860448201526b34b9ba32b73a103a37b5b2b760a11b6064820152608401610959565b506000908152600460205260409020546001600160a01b031690565b6000610ad782611312565b9050806001600160a01b0316836001600160a01b03161415610b455760405162461bcd60e51b815260206004820152602160248201527f4552433732313a20617070726f76616c20746f2063757272656e74206f776e656044820152603960f91b6064820152608401610959565b336001600160a01b0382161480610b615750610b618133610888565b610bd35760405162461bcd60e51b815260206004820152603860248201527f4552433732313a20617070726f76652063616c6c6572206973206e6f74206f7760448201527f6e6572206e6f7220617070726f76656420666f7220616c6c00000000000000006064820152608401610959565b610bdd8383611e5a565b505050565b600b546001600160a01b03163314610c0c5760405162461bcd60e51b81526004016109599061312c565b600d80546000919060ff19166001835b0217905550600d546040517f551dc40198cc79684bb69e4931dba4ac16e4598792ee1c0a5000aeea366d7bb691610c589160ff90911690612fbb565b60405180910390a1565b610c6c3382611ec8565b610c885760405162461bcd60e51b815260040161095990613161565b610bdd838383611fb2565b600080600d5460ff166003811115610cad57610cad612fa5565b1415610cb95750600090565b6001600d5460ff166003811115610cd257610cd2612fa5565b148015610ce85750614e20610ce6600c5490565b105b15610cf35750600190565b6002600d5460ff166003811115610d0c57610d0c612fa5565b1415610d185750600290565b50600390565b6002600a541415610d415760405162461bcd60e51b815260040161095990613073565b6002600a556001600d5460ff166003811115610d5f57610d5f612fa5565b14610dba5760405162461bcd60e51b815260206004820152602560248201527f4e5444414f2d4e46543a205374617465206973206e6f7420696e205075626c6960448201526418d35a5b9d60da1b6064820152608401610959565b6014811115610e265760405162461bcd60e51b815260206004820152603260248201527f4e5444414f2d4e46543a204d696e74696e6720636f756e742065786365656473604482015271081b5bdc99481d1a185b88185b1b1bddd95960721b6064820152608401610959565b614e2081610e33600c5490565b610e3d91906131b2565b1115610ea35760405162461bcd60e51b815260206004820152602f60248201527f4e5444414f2d4e46543a2043616e206e6f74206d696e74206d6f72652074686160448201526e1b8813505617d41550931250d7d251608a1b6064820152608401610959565b3481600f54610eb291906131ca565b14610f165760405162461bcd60e51b815260206004820152602e60248201527f4e5444414f2d4e46543a204d696e74696e672066656520616d6f756e7473206460448201526d37b2b9903737ba1036b0ba31b41760911b6064820152608401610959565b60005b81811015610f9957610f2f600c80546001019055565b610f3b33600c5461215d565b610f875760405162461bcd60e51b815260206004820152601960248201527f4e5444414f2d4e46543a206d696e74696e67206661696c6564000000000000006044820152606401610959565b80610f91816130d6565b915050610f19565b50506001600a55565b6000610fad83611389565b821061100f5760405162461bcd60e51b815260206004820152602b60248201527f455243373231456e756d657261626c653a206f776e657220696e646578206f7560448201526a74206f6620626f756e647360a81b6064820152608401610959565b506001600160a01b03919091166000908152600660209081526040808320938352929052205490565b600b546001600160a01b031633146110625760405162461bcd60e51b81526004016109599061312c565b600e54600160a01b900460ff16156110c65760405162461bcd60e51b815260206004820152602160248201527f4e5444414f2d4e46543a20416c6c20696d6167657320617265206f6e206970666044820152607360f81b6064820152608401610959565b80516110d9906010906020840190612ae0565b5050565b610bdd838383604051806020016040528060008152506118f3565b600b546001600160a01b031633146111225760405162461bcd60e51b81526004016109599061312c565b600d80546002919060ff1916600183610c1c565b600061114160085490565b82106111a45760405162461bcd60e51b815260206004820152602c60248201527f455243373231456e756d657261626c653a20676c6f62616c20696e646578206f60448201526b7574206f6620626f756e647360a01b6064820152608401610959565b600882815481106111b7576111b76130aa565b90600052602060002001549050919050565b60606111d482611e3d565b6111f05760405162461bcd60e51b8152600401610959906131e9565b600d54604051632aaae20160e11b8152600481018490526101009091046001600160a01b0316908190635555c402906024015b600060405180830381865afa158015611240573d6000803e3d6000fd5b505050506040513d6000823e601f3d908101601f19168201604052611268919081019061326f565b9392505050565b6060600061127c83611389565b6001600160401b0381111561129357611293612d53565b6040519080825280602002602001820160405280156112bc578160200160208202803683370190505b50905060005b6112cb84611389565b81101561130b576112dc8482610fa2565b8282815181106112ee576112ee6130aa565b602090810291909101015280611303816130d6565b9150506112c2565b5092915050565b6000818152600260205260408120546001600160a01b0316806109305760405162461bcd60e51b815260206004820152602960248201527f4552433732313a206f776e657220717565727920666f72206e6f6e657869737460448201526832b73a103a37b5b2b760b91b6064820152608401610959565b60006001600160a01b0382166113f45760405162461bcd60e51b815260206004820152602a60248201527f4552433732313a2062616c616e636520717565727920666f7220746865207a65604482015269726f206164647265737360b01b6064820152608401610959565b506001600160a01b031660009081526003602052604090205490565b600b546001600160a01b0316331461143a5760405162461bcd60e51b81526004016109599061312c565b6114446000612172565b565b600b546001600160a01b031633146114705760405162461bcd60e51b81526004016109599061312c565b600e805460ff60a01b1916600160a01b179055565b600b546001600160a01b031633146114af5760405162461bcd60e51b81526004016109599061312c565b600e54600160a01b900460ff16156115135760405162461bcd60e51b815260206004820152602160248201527f4e5444414f2d4e46543a2047656e6520636f6e747261637420697320666978656044820152601960fa1b6064820152608401610959565b600d80546001600160a01b0390921661010002610100600160a81b0319909216919091179055565b6060600180546109c1906130f1565b600b546001600160a01b031633146115745760405162461bcd60e51b81526004016109599061312c565b600d80546001919060ff19168280610c1c565b6110d93383836121c4565b6002600a5414156115b55760405162461bcd60e51b815260040161095990613073565b6002600a819055600d5460ff1660038111156115d3576115d3612fa5565b1461162a5760405162461bcd60e51b815260206004820152602160248201527f4e5444414f2d4e46543a205374617465206973206e6f7420696e20526566756e6044820152601960fa1b6064820152608401610959565b3360005b828110156109a7576011600085858481811061164c5761164c6130aa565b602090810292909201358352508101919091526040016000205460ff16156116ca5760405162461bcd60e51b815260206004820152602b60248201527f4e5444414f2d4e46543a2054686520746f6b656e64496420697320616c72656160448201526a191e481c99599d5b99195960aa1b6064820152608401610959565b816001600160a01b03166116f58585848181106116e9576116e96130aa565b90506020020135611312565b6001600160a01b03161461175b5760405162461bcd60e51b815260206004820152602760248201527f4e5444414f2d4e46543a2054686520746f6b656e206f776e65722069732064696044820152661999995c995b9d60ca1b6064820152608401610959565b600160116000868685818110611773576117736130aa565b90506020020135815260200190815260200160002060006101000a81548160ff0219169083151502179055506000826001600160a01b0316600f5460405160006040518083038185875af1925050503d80600081146117ee576040519150601f19603f3d011682016040523d82523d6000602084013e6117f3565b606091505b50509050806118445760405162461bcd60e51b815260206004820152601e60248201527f4e5444414f2d4e46543a204661696c656420746f2073656e6420636f696e00006044820152606401610959565b848483818110611856576118566130aa565b90506020020135836001600160a01b03167f2dc8e290002f06fc0085bbca9dfb8b415cf4d1178950c72ff9ee8f4d8878ee66600f5460405161189a91815260200190565b60405180910390a350806118ad816130d6565b91505061162e565b600b546001600160a01b031633146118df5760405162461bcd60e51b81526004016109599061312c565b600d80546003919060ff1916600183610c1c565b6118fd3383611ec8565b6119195760405162461bcd60e51b815260040161095990613161565b61192584848484612293565b50505050565b600b546001600160a01b031633146119555760405162461bcd60e51b81526004016109599061312c565b600f55565b606061196582611e3d565b6119815760405162461bcd60e51b8152600401610959906131e9565b601061198c836122c6565b60405160200161199d9291906132bf565b6040516020818303038152906040529050919050565b60606119be82611e3d565b6119da5760405162461bcd60e51b8152600401610959906131e9565b60006119e5836123c3565b905060006119f28461195a565b905060006119fe612421565b90506000611a38611a0e876122c6565b858486604051602001611a249493929190613379565b6040516020818303038152906040526124a9565b905080604051602001611a4b9190613478565b604051602081830303815290604052945050505050919050565b6060611a7082611e3d565b611a8c5760405162461bcd60e51b8152600401610959906131e9565b600d5460405163cf2defeb60e01b8152600481018490526101009091046001600160a01b031690819063cf2defeb90602401600060405180830381865afa158015611adb573d6000803e3d6000fd5b505050506040513d6000823e601f3d908101601f1916820160405261126891908101906134e0565b6060611b0e82611e3d565b611b2a5760405162461bcd60e51b8152600401610959906131e9565b600d5460405163d08fd6eb60e01b8152600481018490526101009091046001600160a01b031690819063d08fd6eb90602401600060405180830381865afa158015611b79573d6000803e3d6000fd5b505050506040513d6000823e601f3d908101601f191682016040526112689190810190613570565b6000611bac82611e3d565b611bc85760405162461bcd60e51b8152600401610959906131e9565b600d5460405163e0d4ea3760e01b8152600481018490526101009091046001600160a01b031690819063e0d4ea3790602401602060405180830381865afa158015611c17573d6000803e3d6000fd5b505050506040513d601f19601f820116820180604052508101906112689190613620565b600b546001600160a01b03163314611c655760405162461bcd60e51b81526004016109599061312c565b6001600160a01b038116611cca5760405162461bcd60e51b815260206004820152602660248201527f4f776e61626c653a206e6577206f776e657220697320746865207a65726f206160448201526564647265737360d01b6064820152608401610959565b611cd381612172565b50565b600b546001600160a01b03163314611d005760405162461bcd60e51b81526004016109599061312c565b47811115611d0d57600080fd5b6000826001600160a01b03168260405160006040518083038185875af1925050503d8060008114611d5a576040519150601f19603f3d011682016040523d82523d6000602084013e611d5f565b606091505b5050905080611da65760405162461bcd60e51b81526020600482015260136024820152722330b4b632b2103a379039b2b7321031b7b4b760691b6044820152606401610959565b604080516001600160a01b0385168152602081018490527f8777844761eb456b028cf7f87fc8dcb146ad8eeafbc6f80f2d006e5cd9e5a745910160405180910390a1505050565b60006001600160e01b031982166380ac58cd60e01b1480611e1e57506001600160e01b03198216635b5e139f60e01b145b8061093057506301ffc9a760e01b6001600160e01b0319831614610930565b6000908152600260205260409020546001600160a01b0316151590565b600081815260046020526040902080546001600160a01b0319166001600160a01b0384169081179091558190611e8f82611312565b6001600160a01b03167f8c5be1e5ebec7d5bd14f71427d1e84f3dd0314c0f7b2291e5b200ac8c7c3b92560405160405180910390a45050565b6000611ed382611e3d565b611f345760405162461bcd60e51b815260206004820152602c60248201527f4552433732313a206f70657261746f7220717565727920666f72206e6f6e657860448201526b34b9ba32b73a103a37b5b2b760a11b6064820152608401610959565b6000611f3f83611312565b9050806001600160a01b0316846001600160a01b03161480611f7a5750836001600160a01b0316611f6f84610a44565b6001600160a01b0316145b80611faa57506001600160a01b0380821660009081526005602090815260408083209388168352929052205460ff165b949350505050565b826001600160a01b0316611fc582611312565b6001600160a01b03161461202d5760405162461bcd60e51b815260206004820152602960248201527f4552433732313a207472616e73666572206f6620746f6b656e2074686174206960448201526839903737ba1037bbb760b91b6064820152608401610959565b6001600160a01b03821661208f5760405162461bcd60e51b8152602060048201526024808201527f4552433732313a207472616e7366657220746f20746865207a65726f206164646044820152637265737360e01b6064820152608401610959565b61209a83838361260e565b6120a5600082611e5a565b6001600160a01b03831660009081526003602052604081208054600192906120ce908490613639565b90915550506001600160a01b03821660009081526003602052604081208054600192906120fc9084906131b2565b909155505060008181526002602052604080822080546001600160a01b0319166001600160a01b0386811691821790925591518493918716917fddf252ad1be2c89b69c2b068fc378daa952ba7f163c4a11628f55a4df523b3ef91a4505050565b600061216983836126c6565b50600192915050565b600b80546001600160a01b038381166001600160a01b0319831681179093556040519116919082907f8be0079c531659141344cd1fd0a4f28419497f9722a3daafe3b4186f6b6457e090600090a35050565b816001600160a01b0316836001600160a01b031614156122265760405162461bcd60e51b815260206004820152601960248201527f4552433732313a20617070726f766520746f2063616c6c6572000000000000006044820152606401610959565b6001600160a01b03838116600081815260056020908152604080832094871680845294825291829020805460ff191686151590811790915591519182527f17307eab39ab6107e8899845ad3d59bd9653f200f220920489ca2b5937696c31910160405180910390a3505050565b61229e848484611fb2565b6122aa848484846126e0565b6119255760405162461bcd60e51b815260040161095990613650565b6060816122ea5750506040805180820190915260018152600360fc1b602082015290565b8160005b811561231457806122fe816130d6565b915061230d9050600a836136b8565b91506122ee565b6000816001600160401b0381111561232e5761232e612d53565b6040519080825280601f01601f191660200182016040528015612358576020820181803683370190505b5090505b8415611faa5761236d600183613639565b915061237a600a866136cc565b6123859060306131b2565b60f81b81838151811061239a5761239a6130aa565b60200101906001600160f81b031916908160001a9053506123bc600a866136b8565b945061235c565b60606123ce82611e3d565b6123ea5760405162461bcd60e51b8152600401610959906131e9565b600d54604051630ca706d560e41b8152600481018490526101009091046001600160a01b031690819063ca706d5090602401611223565b60606000600d60019054906101000a90046001600160a01b03169050806001600160a01b0316631a0925416040518163ffffffff1660e01b8152600401600060405180830381865afa15801561247b573d6000803e3d6000fd5b505050506040513d6000823e601f3d908101601f191682016040526124a3919081019061326f565b91505090565b8051606090806124c9575050604080516020810190915260008152919050565b600060036124d88360026131b2565b6124e291906136b8565b6124ed9060046131ca565b905060006124fc8260206131b2565b6001600160401b0381111561251357612513612d53565b6040519080825280601f01601f19166020018201604052801561253d576020820181803683370190505b5090506000604051806060016040528060408152602001613751604091399050600181016020830160005b868110156125c9576003818a01810151603f601282901c8116860151600c83901c8216870151600684901c831688015192909316870151600891821b60ff94851601821b92841692909201901b91160160e01b835260049092019101612568565b5060038606600181146125e357600281146125f457612600565b613d3d60f01b600119830152612600565b603d60f81b6000198301525b505050918152949350505050565b6001600160a01b0383166126695761266481600880546000838152600960205260408120829055600182018355919091527ff3f7a9fe364faab93b216da50a3214154f22a0a2b415b23a84c8169e8b636ee30155565b61268c565b816001600160a01b0316836001600160a01b03161461268c5761268c83826127de565b6001600160a01b0382166126a357610bdd8161287b565b826001600160a01b0316826001600160a01b031614610bdd57610bdd828261292a565b6110d982826040518060200160405280600081525061296e565b60006001600160a01b0384163b156127d357604051630a85bd0160e11b81526001600160a01b0385169063150b7a02906127249033908990889088906004016136e0565b6020604051808303816000875af192505050801561275f575060408051601f3d908101601f1916820190925261275c9181019061371d565b60015b6127b9573d80801561278d576040519150601f19603f3d011682016040523d82523d6000602084013e612792565b606091505b5080516127b15760405162461bcd60e51b815260040161095990613650565b805181602001fd5b6001600160e01b031916630a85bd0160e11b149050611faa565b506001949350505050565b600060016127eb84611389565b6127f59190613639565b600083815260076020526040902054909150808214612848576001600160a01b03841660009081526006602090815260408083208584528252808320548484528184208190558352600790915290208190555b5060009182526007602090815260408084208490556001600160a01b039094168352600681528383209183525290812055565b60085460009061288d90600190613639565b600083815260096020526040812054600880549394509092849081106128b5576128b56130aa565b9060005260206000200154905080600883815481106128d6576128d66130aa565b600091825260208083209091019290925582815260099091526040808220849055858252812055600880548061290e5761290e61373a565b6001900381819060005260206000200160009055905550505050565b600061293583611389565b6001600160a01b039093166000908152600660209081526040808320868452825280832085905593825260079052919091209190915550565b61297883836129a1565b61298560008484846126e0565b610bdd5760405162461bcd60e51b815260040161095990613650565b6001600160a01b0382166129f75760405162461bcd60e51b815260206004820181905260248201527f4552433732313a206d696e7420746f20746865207a65726f20616464726573736044820152606401610959565b612a0081611e3d565b15612a4d5760405162461bcd60e51b815260206004820152601c60248201527f4552433732313a20746f6b656e20616c7265616479206d696e746564000000006044820152606401610959565b612a596000838361260e565b6001600160a01b0382166000908152600360205260408120805460019290612a829084906131b2565b909155505060008181526002602052604080822080546001600160a01b0319166001600160a01b03861690811790915590518392907fddf252ad1be2c89b69c2b068fc378daa952ba7f163c4a11628f55a4df523b3ef908290a45050565b828054612aec906130f1565b90600052602060002090601f016020900481019282612b0e5760008555612b54565b82601f10612b2757805160ff1916838001178555612b54565b82800160010185558215612b54579182015b82811115612b54578251825591602001919060010190612b39565b50612b60929150612b64565b5090565b5b80821115612b605760008155600101612b65565b6001600160e01b031981168114611cd357600080fd5b600060208284031215612ba157600080fd5b813561126881612b79565b60008083601f840112612bbe57600080fd5b5081356001600160401b03811115612bd557600080fd5b6020830191508360208260051b8501011115612bf057600080fd5b9250929050565b6001600160a01b0381168114611cd357600080fd5b600080600060408486031215612c2157600080fd5b83356001600160401b03811115612c3757600080fd5b612c4386828701612bac565b9094509250506020840135612c5781612bf7565b809150509250925092565b60005b83811015612c7d578181015183820152602001612c65565b838111156119255750506000910152565b60008151808452612ca6816020860160208601612c62565b601f01601f19169290920160200192915050565b6020815260006112686020830184612c8e565b600060208284031215612cdf57600080fd5b5035919050565b60008060408385031215612cf957600080fd5b8235612d0481612bf7565b946020939093013593505050565b600080600060608486031215612d2757600080fd5b8335612d3281612bf7565b92506020840135612d4281612bf7565b929592945050506040919091013590565b634e487b7160e01b600052604160045260246000fd5b604051601f8201601f191681016001600160401b0381118282101715612d9157612d91612d53565b604052919050565b60006001600160401b03821115612db257612db2612d53565b50601f01601f191660200190565b6000612dd3612dce84612d99565b612d69565b9050828152838383011115612de757600080fd5b828260208301376000602084830101529392505050565b600060208284031215612e1057600080fd5b81356001600160401b03811115612e2657600080fd5b8201601f81018413612e3757600080fd5b611faa84823560208401612dc0565b600060208284031215612e5857600080fd5b813561126881612bf7565b6020808252825182820181905260009190848201906040850190845b81811015612e9b57835183529284019291840191600101612e7f565b50909695505050505050565b60008060408385031215612eba57600080fd5b8235612ec581612bf7565b915060208301358015158114612eda57600080fd5b809150509250929050565b60008060208385031215612ef857600080fd5b82356001600160401b03811115612f0e57600080fd5b612f1a85828601612bac565b90969095509350505050565b60008060008060808587031215612f3c57600080fd5b8435612f4781612bf7565b93506020850135612f5781612bf7565b92506040850135915060608501356001600160401b03811115612f7957600080fd5b8501601f81018713612f8a57600080fd5b612f9987823560208401612dc0565b91505092959194509250565b634e487b7160e01b600052602160045260246000fd5b6020810160048310612fdd57634e487b7160e01b600052602160045260246000fd5b91905290565b6000602080830181845280855180835260408601915060408160051b870101925083870160005b8281101561303857603f19888603018452613026858351612c8e565b9450928501929085019060010161300a565b5092979650505050505050565b6000806040838503121561305857600080fd5b823561306381612bf7565b91506020830135612eda81612bf7565b6020808252601f908201527f5265656e7472616e637947756172643a207265656e7472616e742063616c6c00604082015260600190565b634e487b7160e01b600052603260045260246000fd5b634e487b7160e01b600052601160045260246000fd5b60006000198214156130ea576130ea6130c0565b5060010190565b600181811c9082168061310557607f821691505b6020821081141561312657634e487b7160e01b600052602260045260246000fd5b50919050565b6020808252818101527f4f776e61626c653a2063616c6c6572206973206e6f7420746865206f776e6572604082015260600190565b60208082526031908201527f4552433732313a207472616e736665722063616c6c6572206973206e6f74206f6040820152701ddb995c881b9bdc88185c1c1c9bdd9959607a1b606082015260800190565b600082198211156131c5576131c56130c0565b500190565b60008160001904831182151516156131e4576131e46130c0565b500290565b60208082526021908201527f4e5444414f2d4e46543a20546f6b656e4964206e6f74206d696e7465642079656040820152601d60fa1b606082015260800190565b600082601f83011261323b57600080fd5b8151613249612dce82612d99565b81815284602083860101111561325e57600080fd5b611faa826020830160208701612c62565b60006020828403121561328157600080fd5b81516001600160401b0381111561329757600080fd5b611faa8482850161322a565b600081516132b5818560208601612c62565b9290920192915050565b600080845481600182811c9150808316806132db57607f831692505b60208084108214156132fb57634e487b7160e01b86526022600452602486fd5b81801561330f57600181146133205761334d565b60ff1986168952848901965061334d565b60008b81526020902060005b868110156133455781548b82015290850190830161332c565b505084890196505b50505050505061337061336082866132a3565b631733b4b360e11b815260040190565b95945050505050565b7f7b226e616d65223a20224e6174696f6e616c2054726561737572652044414f208152644e4654202360d81b6020820152600085516133bf816025850160208a01612c62565b7001116101130ba3a3934b13aba32b9911d1607d1b60259184019182015285516133f0816036840160208a01612c62565b711610113232b9b1b934b83a34b7b7111d101160711b603692909101918201528451613423816048840160208901612c62565b6025818301019150506c1116101134b6b0b3b2911d101160991b60238201528351613455816030840160208801612c62565b61346c60308383010161227d60f01b815260020190565b98975050505050505050565b7f646174613a6170706c69636174696f6e2f6a736f6e3b6261736536342c0000008152600082516134b081601d850160208701612c62565b91909101601d0192915050565b60006001600160401b038211156134d6576134d6612d53565b5060051b60200190565b600060208083850312156134f357600080fd5b82516001600160401b0381111561350957600080fd5b8301601f8101851361351a57600080fd5b8051613528612dce826134bd565b81815260059190911b8201830190838101908783111561354757600080fd5b928401925b828410156135655783518252928401929084019061354c565b979650505050505050565b6000602080838503121561358357600080fd5b82516001600160401b038082111561359a57600080fd5b818501915085601f8301126135ae57600080fd5b81516135bc612dce826134bd565b81815260059190911b830184019084810190888311156135db57600080fd5b8585015b83811015613613578051858111156135f75760008081fd5b6136058b89838a010161322a565b8452509186019186016135df565b5098975050505050505050565b60006020828403121561363257600080fd5b5051919050565b60008282101561364b5761364b6130c0565b500390565b60208082526032908201527f4552433732313a207472616e7366657220746f206e6f6e20455243373231526560408201527131b2b4bb32b91034b6b83632b6b2b73a32b960711b606082015260800190565b634e487b7160e01b600052601260045260246000fd5b6000826136c7576136c76136a2565b500490565b6000826136db576136db6136a2565b500690565b6001600160a01b038581168252841660208201526040810183905260806060820181905260009061371390830184612c8e565b9695505050505050565b60006020828403121561372f57600080fd5b815161126881612b79565b634e487b7160e01b600052603160045260246000fdfe4142434445464748494a4b4c4d4e4f505152535455565758595a6162636465666768696a6b6c6d6e6f707172737475767778797a303132333435363738392b2fa264697066735822122036c3a61f4980b807d60674616fd8b0642f17dda73cdbee5699816adbb73cb8b364736f6c634300080a0033",
  "linkReferences": {},
  "deployedLinkReferences": {}
}