{
  "_format": "hh-sol-artifact-1",
  "contractName": "NTDaoNft",
  "sourceName": "contracts/NTDaoNft.sol",
  "abi": [
    {
      "inputs": [
        {
          "internalType": "string",
          "name": "baseImgUrl_",
          "type": "string"
        }
      ],
      "stateMutability": "nonpayable",
      "type": "constructor"
    },
    {
      "anonymous": false,
      "inputs": [
        {
          "indexed": true,
          "internalType": "address",
          "name": "owner",
          "type": "address"
        },
        {
          "indexed": true,
          "internalType": "address",
          "name": "approved",
          "type": "address"
        },
        {
          "indexed": true,
          "internalType": "uint256",
          "name": "tokenId",
          "type": "uint256"
        }
      ],
      "name": "Approval",
      "type": "event"
    },
    {
      "anonymous": false,
      "inputs": [
        {
          "indexed": true,
          "internalType": "address",
          "name": "owner",
          "type": "address"
        },
        {
          "indexed": true,
          "internalType": "address",
          "name": "operator",
          "type": "address"
        },
        {
          "indexed": false,
          "internalType": "bool",
          "name": "approved",
          "type": "bool"
        }
      ],
      "name": "ApprovalForAll",
      "type": "event"
    },
    {
      "anonymous": false,
      "inputs": [
        {
          "indexed": false,
          "internalType": "address",
          "name": "recipient",
          "type": "address"
        },
        {
          "indexed": false,
          "internalType": "uint256",
          "name": "amount",
          "type": "uint256"
        }
      ],
      "name": "BalanceWithdraw",
      "type": "event"
    },
    {
      "anonymous": false,
      "inputs": [
        {
          "indexed": true,
          "internalType": "address",
          "name": "previousOwner",
          "type": "address"
        },
        {
          "indexed": true,
          "internalType": "address",
          "name": "newOwner",
          "type": "address"
        }
      ],
      "name": "OwnershipTransferred",
      "type": "event"
    },
    {
      "anonymous": false,
      "inputs": [
        {
          "indexed": false,
          "internalType": "address",
          "name": "caller",
          "type": "address"
        },
        {
          "indexed": false,
          "internalType": "uint256",
          "name": "amount",
          "type": "uint256"
        },
        {
          "indexed": false,
          "internalType": "string",
          "name": "message",
          "type": "string"
        }
      ],
      "name": "Received",
      "type": "event"
    },
    {
      "anonymous": false,
      "inputs": [
        {
          "indexed": true,
          "internalType": "address",
          "name": "to",
          "type": "address"
        },
        {
          "indexed": true,
          "internalType": "uint256",
          "name": "tokenId",
          "type": "uint256"
        },
        {
          "indexed": false,
          "internalType": "uint256",
          "name": "amount",
          "type": "uint256"
        }
      ],
      "name": "Refunded",
      "type": "event"
    },
    {
      "anonymous": false,
      "inputs": [
        {
          "indexed": false,
          "internalType": "enum NTDaoNft.State",
          "name": "_state",
          "type": "uint8"
        }
      ],
      "name": "StateChanged",
      "type": "event"
    },
    {
      "anonymous": false,
      "inputs": [
        {
          "indexed": true,
          "internalType": "address",
          "name": "from",
          "type": "address"
        },
        {
          "indexed": true,
          "internalType": "address",
          "name": "to",
          "type": "address"
        },
        {
          "indexed": true,
          "internalType": "uint256",
          "name": "tokenId",
          "type": "uint256"
        }
      ],
      "name": "Transfer",
      "type": "event"
    },
    {
      "stateMutability": "payable",
      "type": "fallback"
    },
    {
      "inputs": [],
      "name": "MAX_PUBLIC_ID",
      "outputs": [
        {
          "internalType": "uint16",
          "name": "",
          "type": "uint16"
        }
      ],
      "stateMutability": "view",
      "type": "function"
    },
    {
      "inputs": [],
      "name": "MAX_PUBLIC_MULTI",
      "outputs": [
        {
          "internalType": "uint8",
          "name": "",
          "type": "uint8"
        }
      ],
      "stateMutability": "view",
      "type": "function"
    },
    {
      "inputs": [],
      "name": "MINTING_FEE",
      "outputs": [
        {
          "internalType": "uint256",
          "name": "",
          "type": "uint256"
        }
      ],
      "stateMutability": "view",
      "type": "function"
    },
    {
      "inputs": [
        {
          "internalType": "address",
          "name": "to",
          "type": "address"
        },
        {
          "internalType": "uint256",
          "name": "tokenId",
          "type": "uint256"
        }
      ],
      "name": "approve",
      "outputs": [],
      "stateMutability": "nonpayable",
      "type": "function"
    },
    {
      "inputs": [
        {
          "internalType": "address",
          "name": "owner",
          "type": "address"
        }
      ],
      "name": "balanceOf",
      "outputs": [
        {
          "internalType": "uint256",
          "name": "",
          "type": "uint256"
        }
      ],
      "stateMutability": "view",
      "type": "function"
    },
    {
      "inputs": [],
      "name": "changeToPermanent",
      "outputs": [],
      "stateMutability": "nonpayable",
      "type": "function"
    },
    {
      "inputs": [
        {
          "internalType": "uint256",
          "name": "tokenId",
          "type": "uint256"
        }
      ],
      "name": "getApproved",
      "outputs": [
        {
          "internalType": "address",
          "name": "",
          "type": "address"
        }
      ],
      "stateMutability": "view",
      "type": "function"
    },
    {
      "inputs": [
        {
          "internalType": "uint256",
          "name": "_tokenId",
          "type": "uint256"
        }
      ],
      "name": "getAttrs",
      "outputs": [
        {
          "internalType": "string",
          "name": "",
          "type": "string"
        }
      ],
      "stateMutability": "view",
      "type": "function"
    },
    {
      "inputs": [],
      "name": "getBalance",
      "outputs": [
        {
          "internalType": "uint256",
          "name": "",
          "type": "uint256"
        }
      ],
      "stateMutability": "view",
      "type": "function"
    },
    {
      "inputs": [
        {
          "internalType": "uint256",
          "name": "_tokenId",
          "type": "uint256"
        }
      ],
      "name": "getBaseGeneNames",
      "outputs": [
        {
          "internalType": "string[]",
          "name": "",
          "type": "string[]"
        }
      ],
      "stateMutability": "view",
      "type": "function"
    },
    {
      "inputs": [
        {
          "internalType": "uint256",
          "name": "_tokenId",
          "type": "uint256"
        }
      ],
      "name": "getBaseGenes",
      "outputs": [
        {
          "internalType": "uint256[]",
          "name": "",
          "type": "uint256[]"
        }
      ],
      "stateMutability": "view",
      "type": "function"
    },
    {
      "inputs": [
        {
          "internalType": "uint256",
          "name": "_tokenId",
          "type": "uint256"
        }
      ],
      "name": "getImg",
      "outputs": [
        {
          "internalType": "string",
          "name": "",
          "type": "string"
        }
      ],
      "stateMutability": "view",
      "type": "function"
    },
    {
      "inputs": [
        {
          "internalType": "uint256",
          "name": "_tokenId",
          "type": "uint256"
        }
      ],
      "name": "getImgIdx",
      "outputs": [
        {
          "internalType": "string",
          "name": "",
          "type": "string"
        }
      ],
      "stateMutability": "view",
      "type": "function"
    },
    {
      "inputs": [
        {
          "internalType": "uint256",
          "name": "_tokenId",
          "type": "uint256"
        }
      ],
      "name": "getImgUrl",
      "outputs": [
        {
          "internalType": "string",
          "name": "",
          "type": "string"
        }
      ],
      "stateMutability": "view",
      "type": "function"
    },
    {
      "inputs": [],
      "name": "getMintingState",
      "outputs": [
        {
          "internalType": "uint8",
          "name": "",
          "type": "uint8"
        }
      ],
      "stateMutability": "view",
      "type": "function"
    },
    {
      "inputs": [
        {
          "internalType": "uint256",
          "name": "_tokenId",
          "type": "uint256"
        }
      ],
      "name": "getSeed",
      "outputs": [
        {
          "internalType": "uint256",
          "name": "",
          "type": "uint256"
        }
      ],
      "stateMutability": "view",
      "type": "function"
    },
    {
      "inputs": [
        {
          "internalType": "address",
          "name": "owner",
          "type": "address"
        },
        {
          "internalType": "address",
          "name": "operator",
          "type": "address"
        }
      ],
      "name": "isApprovedForAll",
      "outputs": [
        {
          "internalType": "bool",
          "name": "",
          "type": "bool"
        }
      ],
      "stateMutability": "view",
      "type": "function"
    },
    {
      "inputs": [],
      "name": "isPermanent",
      "outputs": [
        {
          "internalType": "bool",
          "name": "",
          "type": "bool"
        }
      ],
      "stateMutability": "view",
      "type": "function"
    },
    {
      "inputs": [],
      "name": "name",
      "outputs": [
        {
          "internalType": "string",
          "name": "",
          "type": "string"
        }
      ],
      "stateMutability": "view",
      "type": "function"
    },
    {
      "inputs": [],
      "name": "owner",
      "outputs": [
        {
          "internalType": "address",
          "name": "",
          "type": "address"
        }
      ],
      "stateMutability": "view",
      "type": "function"
    },
    {
      "inputs": [
        {
          "internalType": "uint256",
          "name": "tokenId",
          "type": "uint256"
        }
      ],
      "name": "ownerOf",
      "outputs": [
        {
          "internalType": "address",
          "name": "",
          "type": "address"
        }
      ],
      "stateMutability": "view",
      "type": "function"
    },
    {
      "inputs": [
        {
          "internalType": "uint256",
          "name": "_count",
          "type": "uint256"
        }
      ],
      "name": "publicMint",
      "outputs": [],
      "stateMutability": "payable",
      "type": "function"
    },
    {
      "inputs": [
        {
          "internalType": "uint256[]",
          "name": "tokenIds_",
          "type": "uint256[]"
        }
      ],
      "name": "refund",
      "outputs": [],
      "stateMutability": "nonpayable",
      "type": "function"
    },
    {
      "inputs": [
        {
          "internalType": "uint256",
          "name": "",
          "type": "uint256"
        }
      ],
      "name": "refunds",
      "outputs": [
        {
          "internalType": "bool",
          "name": "",
          "type": "bool"
        }
      ],
      "stateMutability": "view",
      "type": "function"
    },
    {
      "inputs": [],
      "name": "renounceOwnership",
      "outputs": [],
      "stateMutability": "nonpayable",
      "type": "function"
    },
    {
      "inputs": [
        {
          "internalType": "address",
          "name": "from",
          "type": "address"
        },
        {
          "internalType": "address",
          "name": "to",
          "type": "address"
        },
        {
          "internalType": "uint256",
          "name": "tokenId",
          "type": "uint256"
        }
      ],
      "name": "safeTransferFrom",
      "outputs": [],
      "stateMutability": "nonpayable",
      "type": "function"
    },
    {
      "inputs": [
        {
          "internalType": "address",
          "name": "from",
          "type": "address"
        },
        {
          "internalType": "address",
          "name": "to",
          "type": "address"
        },
        {
          "internalType": "uint256",
          "name": "tokenId",
          "type": "uint256"
        },
        {
          "internalType": "bytes",
          "name": "_data",
          "type": "bytes"
        }
      ],
      "name": "safeTransferFrom",
      "outputs": [],
      "stateMutability": "nonpayable",
      "type": "function"
    },
    {
      "inputs": [
        {
          "internalType": "address",
          "name": "operator",
          "type": "address"
        },
        {
          "internalType": "bool",
          "name": "approved",
          "type": "bool"
        }
      ],
      "name": "setApprovalForAll",
      "outputs": [],
      "stateMutability": "nonpayable",
      "type": "function"
    },
    {
      "inputs": [],
      "name": "setStateToFinished",
      "outputs": [],
      "stateMutability": "nonpayable",
      "type": "function"
    },
    {
      "inputs": [],
      "name": "setStateToPublicMint",
      "outputs": [],
      "stateMutability": "nonpayable",
      "type": "function"
    },
    {
      "inputs": [],
      "name": "setStateToRefund",
      "outputs": [],
      "stateMutability": "nonpayable",
      "type": "function"
    },
    {
      "inputs": [],
      "name": "setStateToSetup",
      "outputs": [],
      "stateMutability": "nonpayable",
      "type": "function"
    },
    {
      "inputs": [],
      "name": "state",
      "outputs": [
        {
          "internalType": "enum NTDaoNft.State",
          "name": "",
          "type": "uint8"
        }
      ],
      "stateMutability": "view",
      "type": "function"
    },
    {
      "inputs": [
        {
          "internalType": "bytes4",
          "name": "interfaceId",
          "type": "bytes4"
        }
      ],
      "name": "supportsInterface",
      "outputs": [
        {
          "internalType": "bool",
          "name": "",
          "type": "bool"
        }
      ],
      "stateMutability": "view",
      "type": "function"
    },
    {
      "inputs": [],
      "name": "symbol",
      "outputs": [
        {
          "internalType": "string",
          "name": "",
          "type": "string"
        }
      ],
      "stateMutability": "view",
      "type": "function"
    },
    {
      "inputs": [
        {
          "internalType": "uint256",
          "name": "index",
          "type": "uint256"
        }
      ],
      "name": "tokenByIndex",
      "outputs": [
        {
          "internalType": "uint256",
          "name": "",
          "type": "uint256"
        }
      ],
      "stateMutability": "view",
      "type": "function"
    },
    {
      "inputs": [
        {
          "internalType": "address",
          "name": "owner",
          "type": "address"
        },
        {
          "internalType": "uint256",
          "name": "index",
          "type": "uint256"
        }
      ],
      "name": "tokenOfOwnerByIndex",
      "outputs": [
        {
          "internalType": "uint256",
          "name": "",
          "type": "uint256"
        }
      ],
      "stateMutability": "view",
      "type": "function"
    },
    {
      "inputs": [
        {
          "internalType": "uint256",
          "name": "_tokenId",
          "type": "uint256"
        }
      ],
      "name": "tokenURI",
      "outputs": [
        {
          "internalType": "string",
          "name": "",
          "type": "string"
        }
      ],
      "stateMutability": "view",
      "type": "function"
    },
    {
      "inputs": [
        {
          "internalType": "address",
          "name": "_account",
          "type": "address"
        }
      ],
      "name": "tokensOf",
      "outputs": [
        {
          "internalType": "uint256[]",
          "name": "",
          "type": "uint256[]"
        }
      ],
      "stateMutability": "view",
      "type": "function"
    },
    {
      "inputs": [],
      "name": "totalSupply",
      "outputs": [
        {
          "internalType": "uint256",
          "name": "",
          "type": "uint256"
        }
      ],
      "stateMutability": "view",
      "type": "function"
    },
    {
      "inputs": [
        {
          "internalType": "uint256[]",
          "name": "tokenIds_",
          "type": "uint256[]"
        },
        {
          "internalType": "address",
          "name": "_to",
          "type": "address"
        }
      ],
      "name": "transferBatch",
      "outputs": [],
      "stateMutability": "nonpayable",
      "type": "function"
    },
    {
      "inputs": [
        {
          "internalType": "address",
          "name": "from",
          "type": "address"
        },
        {
          "internalType": "address",
          "name": "to",
          "type": "address"
        },
        {
          "internalType": "uint256",
          "name": "tokenId",
          "type": "uint256"
        }
      ],
      "name": "transferFrom",
      "outputs": [],
      "stateMutability": "nonpayable",
      "type": "function"
    },
    {
      "inputs": [
        {
          "internalType": "address",
          "name": "newOwner",
          "type": "address"
        }
      ],
      "name": "transferOwnership",
      "outputs": [],
      "stateMutability": "nonpayable",
      "type": "function"
    },
    {
      "inputs": [
        {
          "internalType": "string",
          "name": "_url",
          "type": "string"
        }
      ],
      "name": "updateBaseImgUrl",
      "outputs": [],
      "stateMutability": "nonpayable",
      "type": "function"
    },
    {
      "inputs": [
        {
          "internalType": "address",
          "name": "geneContract_",
          "type": "address"
        }
      ],
      "name": "updateGene",
      "outputs": [],
      "stateMutability": "nonpayable",
      "type": "function"
    },
    {
      "inputs": [
        {
          "internalType": "uint256",
          "name": "_feeAmount",
          "type": "uint256"
        }
      ],
      "name": "updateMintingFee",
      "outputs": [],
      "stateMutability": "nonpayable",
      "type": "function"
    },
    {
      "inputs": [
        {
          "internalType": "address payable",
          "name": "_to",
          "type": "address"
        },
        {
          "internalType": "uint256",
          "name": "_amount",
          "type": "uint256"
        }
      ],
      "name": "withdraw",
      "outputs": [],
      "stateMutability": "nonpayable",
      "type": "function"
    },
    {
      "stateMutability": "payable",
      "type": "receive"
    }
  ],
  "bytecode": "0x681043561a8829300000600f5560a0604081905260006080819052620000289160109162000161565b503480156200003657600080fd5b5060405162003b4638038062003b4683398101604081905262000059916200021d565b604080518082018252601981527f4e6174696f6e616c2054726561737572652044414f204e4654000000000000006020808301918252835180850190945260098452681395111053cb53919560ba1b908401528151919291620000bf9160009162000161565b508051620000d590600190602084019062000161565b50506001600a5550620000e8336200010f565b8051620000fd90601090602084019062000161565b5050600d805460ff1916905562000336565b600b80546001600160a01b038381166001600160a01b0319831681179093556040519116919082907f8be0079c531659141344cd1fd0a4f28419497f9722a3daafe3b4186f6b6457e090600090a35050565b8280546200016f90620002f9565b90600052602060002090601f016020900481019282620001935760008555620001de565b82601f10620001ae57805160ff1916838001178555620001de565b82800160010185558215620001de579182015b82811115620001de578251825591602001919060010190620001c1565b50620001ec929150620001f0565b5090565b5b80821115620001ec5760008155600101620001f1565b634e487b7160e01b600052604160045260246000fd5b600060208083850312156200023157600080fd5b82516001600160401b03808211156200024957600080fd5b818501915085601f8301126200025e57600080fd5b81518181111562000273576200027362000207565b604051601f8201601f19908116603f011681019083821181831017156200029e576200029e62000207565b816040528281528886848701011115620002b757600080fd5b600093505b82841015620002db5784840186015181850187015292850192620002bc565b82841115620002ed5760008684830101525b98975050505050505050565b600181811c908216806200030e57607f821691505b602082108114156200033057634e487b7160e01b600052602260045260246000fd5b50919050565b61380080620003466000396000f3fe60806040526004361061028c5760003560e01c806378bff4981161015a578063c19d93fb116100c1578063e0d4ea371161007a578063e0d4ea3714610838578063e36bd0f314610858578063e985e9c514610888578063f2fde38b146108d1578063f3b90045146108f1578063f3fef3a31461090657610302565b8063c19d93fb1461076e578063c87b56dd14610795578063ca706d50146107b5578063cf2defeb146107d5578063d08fd6eb146107f5578063d642b4b11461082257610302565b8063a22cb46511610113578063a22cb465146106b9578063aa613df5146106d9578063b0384ea1146106f9578063b88d4fde1461070e578063c0275a251461072e578063c084d5421461074e57610302565b806378bff498146106105780637be33c09146106315780638d07b7d6146106515780638da5cb5b1461067157806395d89b411461068f5780639f0568e6146106a457610302565b80632f745c59116101fe5780635a3f2672116101b75780635a3f2672146105505780636352211e1461057d5780636c0e693a1461059d57806370a08231146105c6578063715018a6146105e657806372769e6f146105fb57610302565b80632f745c591461049b5780633c45d706146104bb57806342842e0e146104db5780634e371a6e146104fb5780634f6ccce7146105105780635555c4021461053057610302565b806312065fe01161025057806312065fe0146103fa57806318160ddd1461041757806323af88271461042c57806323b872dd1461044157806327701f75146104615780632db115441461048857610302565b806301ffc9a7146103295780630202def11461035e57806306fdde0314610380578063081812fc146103a2578063095ea7b3146103da57610302565b36610302577f59e04c3f0d44b7caf6e8ef854b61d9a51cf1960d7a88ff6356cc5e946b4b5832335b604080516001600160a01b03909216825234602083015260609082018190526013908201527211985b1b189858dac81dd85cc818d85b1b1959606a1b608082015260a00160405180910390a1005b7f59e04c3f0d44b7caf6e8ef854b61d9a51cf1960d7a88ff6356cc5e946b4b5832336102b4565b34801561033557600080fd5b50610349610344366004612bc9565b610926565b60405190151581526020015b60405180910390f35b34801561036a57600080fd5b5061037e610379366004612c46565b610951565b005b34801561038c57600080fd5b506103956109cd565b6040516103559190612cf4565b3480156103ae57600080fd5b506103c26103bd366004612d07565b610a5f565b6040516001600160a01b039091168152602001610355565b3480156103e657600080fd5b5061037e6103f5366004612d20565b610ae7565b34801561040657600080fd5b50475b604051908152602001610355565b34801561042357600080fd5b50600854610409565b34801561043857600080fd5b5061037e610bfd565b34801561044d57600080fd5b5061037e61045c366004612d4c565b610c3e565b34801561046d57600080fd5b50610476610c6f565b60405160ff9091168152602001610355565b61037e610496366004612d07565b610cfa565b3480156104a757600080fd5b506104096104b6366004612d20565b610f7e565b3480156104c757600080fd5b5061037e6104d6366004612e38565b611014565b3480156104e757600080fd5b5061037e6104f6366004612d4c565b6110b9565b34801561050757600080fd5b5061037e6110d4565b34801561051c57600080fd5b5061040961052b366004612d07565b611112565b34801561053c57600080fd5b5061039561054b366004612d07565b6111a5565b34801561055c57600080fd5b5061057061056b366004612e80565b61124b565b6040516103559190612e9d565b34801561058957600080fd5b506103c2610598366004612d07565b6112ee565b3480156105a957600080fd5b506105b3614e2081565b60405161ffff9091168152602001610355565b3480156105d257600080fd5b506104096105e1366004612e80565b611365565b3480156105f257600080fd5b5061037e6113ec565b34801561060757600080fd5b5061037e611422565b34801561061c57600080fd5b50600e5461034990600160a01b900460ff1681565b34801561063d57600080fd5b5061037e61064c366004612e80565b611461565b34801561065d57600080fd5b5061039561066c366004612d07565b611517565b34801561067d57600080fd5b50600b546001600160a01b03166103c2565b34801561069b57600080fd5b50610395611575565b3480156106b057600080fd5b5061037e611584565b3480156106c557600080fd5b5061037e6106d4366004612ee1565b6115c1565b3480156106e557600080fd5b5061037e6106f4366004612f1f565b6115cc565b34801561070557600080fd5b5061037e6118ef565b34801561071a57600080fd5b5061037e610729366004612f60565b61192d565b34801561073a57600080fd5b5061037e610749366004612d07565b611965565b34801561075a57600080fd5b50610395610769366004612d07565b611994565b34801561077a57600080fd5b50600d546107889060ff1681565b6040516103559190612ff5565b3480156107a157600080fd5b506103956107b0366004612d07565b6119ed565b3480156107c157600080fd5b506103956107d0366004612d07565b611a9f565b3480156107e157600080fd5b506105706107f0366004612d07565b611afd565b34801561080157600080fd5b50610815610810366004612d07565b611b9b565b604051610355919061301d565b34801561082e57600080fd5b50610409600f5481565b34801561084457600080fd5b50610409610853366004612d07565b611c39565b34801561086457600080fd5b50610349610873366004612d07565b60116020526000908152604090205460ff1681565b34801561089457600080fd5b506103496108a336600461307f565b6001600160a01b03918216600090815260056020908152604080832093909416825291909152205460ff1690565b3480156108dd57600080fd5b5061037e6108ec366004612e80565b611cd3565b3480156108fd57600080fd5b50610476601481565b34801561091257600080fd5b5061037e610921366004612d20565b611d6e565b60006001600160e01b0319821663780e9d6360e01b148061094b575061094b82611e85565b92915050565b6002600a54141561097d5760405162461bcd60e51b8152600401610974906130ad565b60405180910390fd5b6002600a5560005b828110156109c2576109b033838686858181106109a4576109a46130e4565b905060200201356110b9565b806109ba81613110565b915050610985565b50506001600a555050565b6060600080546109dc9061312b565b80601f0160208091040260200160405190810160405280929190818152602001828054610a089061312b565b8015610a555780601f10610a2a57610100808354040283529160200191610a55565b820191906000526020600020905b815481529060010190602001808311610a3857829003601f168201915b5050505050905090565b6000610a6a82611ed5565b610acb5760405162461bcd60e51b815260206004820152602c60248201527f4552433732313a20617070726f76656420717565727920666f72206e6f6e657860448201526b34b9ba32b73a103a37b5b2b760a11b6064820152608401610974565b506000908152600460205260409020546001600160a01b031690565b6000610af2826112ee565b9050806001600160a01b0316836001600160a01b03161415610b605760405162461bcd60e51b815260206004820152602160248201527f4552433732313a20617070726f76616c20746f2063757272656e74206f776e656044820152603960f91b6064820152608401610974565b336001600160a01b0382161480610b7c5750610b7c81336108a3565b610bee5760405162461bcd60e51b815260206004820152603860248201527f4552433732313a20617070726f76652063616c6c6572206973206e6f74206f7760448201527f6e6572206e6f7220617070726f76656420666f7220616c6c00000000000000006064820152608401610974565b610bf88383611ef2565b505050565b600b546001600160a01b03163314610c275760405162461bcd60e51b815260040161097490613166565b600d80546000919060ff19166001835b0217905550565b610c483382611f60565b610c645760405162461bcd60e51b81526004016109749061319b565b610bf883838361204a565b600080600d5460ff166003811115610c8957610c89612fdf565b1415610c955750600090565b6001600d5460ff166003811115610cae57610cae612fdf565b148015610cc45750614e20610cc2600c5490565b105b15610ccf5750600190565b6002600d5460ff166003811115610ce857610ce8612fdf565b1415610cf45750600290565b50600390565b6002600a541415610d1d5760405162461bcd60e51b8152600401610974906130ad565b6002600a556001600d5460ff166003811115610d3b57610d3b612fdf565b14610d965760405162461bcd60e51b815260206004820152602560248201527f4e5444414f2d4e46543a205374617465206973206e6f7420696e205075626c6960448201526418d35a5b9d60da1b6064820152608401610974565b6014811115610e025760405162461bcd60e51b815260206004820152603260248201527f4e5444414f2d4e46543a204d696e74696e6720636f756e742065786365656473604482015271081b5bdc99481d1a185b88185b1b1bddd95960721b6064820152608401610974565b614e2081610e0f600c5490565b610e1991906131ec565b1115610e7f5760405162461bcd60e51b815260206004820152602f60248201527f4e5444414f2d4e46543a2043616e206e6f74206d696e74206d6f72652074686160448201526e1b8813505617d41550931250d7d251608a1b6064820152608401610974565b3481600f54610e8e9190613204565b14610ef25760405162461bcd60e51b815260206004820152602e60248201527f4e5444414f2d4e46543a204d696e74696e672066656520616d6f756e7473206460448201526d37b2b9903737ba1036b0ba31b41760911b6064820152608401610974565b60005b81811015610f7557610f0b600c80546001019055565b610f1733600c546121f5565b610f635760405162461bcd60e51b815260206004820152601960248201527f4e5444414f2d4e46543a206d696e74696e67206661696c6564000000000000006044820152606401610974565b80610f6d81613110565b915050610ef5565b50506001600a55565b6000610f8983611365565b8210610feb5760405162461bcd60e51b815260206004820152602b60248201527f455243373231456e756d657261626c653a206f776e657220696e646578206f7560448201526a74206f6620626f756e647360a81b6064820152608401610974565b506001600160a01b03919091166000908152600660209081526040808320938352929052205490565b600b546001600160a01b0316331461103e5760405162461bcd60e51b815260040161097490613166565b600e54600160a01b900460ff16156110a25760405162461bcd60e51b815260206004820152602160248201527f4e5444414f2d4e46543a20416c6c20696d6167657320617265206f6e206970666044820152607360f81b6064820152608401610974565b80516110b5906010906020840190612b1a565b5050565b610bf88383836040518060200160405280600081525061192d565b600b546001600160a01b031633146110fe5760405162461bcd60e51b815260040161097490613166565b600d80546002919060ff1916600183610c37565b600061111d60085490565b82106111805760405162461bcd60e51b815260206004820152602c60248201527f455243373231456e756d657261626c653a20676c6f62616c20696e646578206f60448201526b7574206f6620626f756e647360a01b6064820152608401610974565b60088281548110611193576111936130e4565b90600052602060002001549050919050565b60606111b082611ed5565b6111cc5760405162461bcd60e51b815260040161097490613223565b600d54604051632aaae20160e11b8152600481018490526101009091046001600160a01b0316908190635555c402906024015b600060405180830381865afa15801561121c573d6000803e3d6000fd5b505050506040513d6000823e601f3d908101601f1916820160405261124491908101906132a9565b9392505050565b6060600061125883611365565b6001600160401b0381111561126f5761126f612d8d565b604051908082528060200260200182016040528015611298578160200160208202803683370190505b50905060005b6112a784611365565b8110156112e7576112b88482610f7e565b8282815181106112ca576112ca6130e4565b6020908102919091010152806112df81613110565b91505061129e565b5092915050565b6000818152600260205260408120546001600160a01b03168061094b5760405162461bcd60e51b815260206004820152602960248201527f4552433732313a206f776e657220717565727920666f72206e6f6e657869737460448201526832b73a103a37b5b2b760b91b6064820152608401610974565b60006001600160a01b0382166113d05760405162461bcd60e51b815260206004820152602a60248201527f4552433732313a2062616c616e636520717565727920666f7220746865207a65604482015269726f206164647265737360b01b6064820152608401610974565b506001600160a01b031660009081526003602052604090205490565b600b546001600160a01b031633146114165760405162461bcd60e51b815260040161097490613166565b611420600061220a565b565b600b546001600160a01b0316331461144c5760405162461bcd60e51b815260040161097490613166565b600e805460ff60a01b1916600160a01b179055565b600b546001600160a01b0316331461148b5760405162461bcd60e51b815260040161097490613166565b600e54600160a01b900460ff16156114ef5760405162461bcd60e51b815260206004820152602160248201527f4e5444414f2d4e46543a2047656e6520636f6e747261637420697320666978656044820152601960fa1b6064820152608401610974565b600d80546001600160a01b0390921661010002610100600160a81b0319909216919091179055565b606061152282611ed5565b61153e5760405162461bcd60e51b815260040161097490613223565b600d54604051634683dbeb60e11b8152600481018490526101009091046001600160a01b0316908190638d07b7d6906024016111ff565b6060600180546109dc9061312b565b600b546001600160a01b031633146115ae5760405162461bcd60e51b815260040161097490613166565b600d80546001919060ff19168280610c37565b6110b533838361225c565b6002600a5414156115ef5760405162461bcd60e51b8152600401610974906130ad565b6002600a819055600d5460ff16600381111561160d5761160d612fdf565b146116645760405162461bcd60e51b815260206004820152602160248201527f4e5444414f2d4e46543a205374617465206973206e6f7420696e20526566756e6044820152601960fa1b6064820152608401610974565b3360005b828110156109c25760116000858584818110611686576116866130e4565b602090810292909201358352508101919091526040016000205460ff16156117045760405162461bcd60e51b815260206004820152602b60248201527f4e5444414f2d4e46543a2054686520746f6b656e64496420697320616c72656160448201526a191e481c99599d5b99195960aa1b6064820152608401610974565b816001600160a01b031661172f858584818110611723576117236130e4565b905060200201356112ee565b6001600160a01b0316146117955760405162461bcd60e51b815260206004820152602760248201527f4e5444414f2d4e46543a2054686520746f6b656e206f776e65722069732064696044820152661999995c995b9d60ca1b6064820152608401610974565b6001601160008686858181106117ad576117ad6130e4565b90506020020135815260200190815260200160002060006101000a81548160ff0219169083151502179055506000826001600160a01b0316600f5460405160006040518083038185875af1925050503d8060008114611828576040519150601f19603f3d011682016040523d82523d6000602084013e61182d565b606091505b505090508061187e5760405162461bcd60e51b815260206004820152601e60248201527f4e5444414f2d4e46543a204661696c656420746f2073656e6420636f696e00006044820152606401610974565b848483818110611890576118906130e4565b90506020020135836001600160a01b03167f2dc8e290002f06fc0085bbca9dfb8b415cf4d1178950c72ff9ee8f4d8878ee66600f546040516118d491815260200190565b60405180910390a350806118e781613110565b915050611668565b600b546001600160a01b031633146119195760405162461bcd60e51b815260040161097490613166565b600d80546003919060ff1916600183610c37565b6119373383611f60565b6119535760405162461bcd60e51b81526004016109749061319b565b61195f8484848461232b565b50505050565b600b546001600160a01b0316331461198f5760405162461bcd60e51b815260040161097490613166565b600f55565b606061199f82611ed5565b6119bb5760405162461bcd60e51b815260040161097490613223565b60106119c68361235e565b6040516020016119d79291906132f9565b6040516020818303038152906040529050919050565b60606119f882611ed5565b611a145760405162461bcd60e51b815260040161097490613223565b6000611a1f83611a9f565b90506000611a2c84611517565b90506000611a3861245b565b90506000611a72611a488761235e565b858486604051602001611a5e94939291906133b3565b6040516020818303038152906040526124e3565b905080604051602001611a8591906134b2565b604051602081830303815290604052945050505050919050565b6060611aaa82611ed5565b611ac65760405162461bcd60e51b815260040161097490613223565b600d54604051630ca706d560e41b8152600481018490526101009091046001600160a01b031690819063ca706d50906024016111ff565b6060611b0882611ed5565b611b245760405162461bcd60e51b815260040161097490613223565b600d5460405163cf2defeb60e01b8152600481018490526101009091046001600160a01b031690819063cf2defeb90602401600060405180830381865afa158015611b73573d6000803e3d6000fd5b505050506040513d6000823e601f3d908101601f19168201604052611244919081019061351a565b6060611ba682611ed5565b611bc25760405162461bcd60e51b815260040161097490613223565b600d5460405163d08fd6eb60e01b8152600481018490526101009091046001600160a01b031690819063d08fd6eb90602401600060405180830381865afa158015611c11573d6000803e3d6000fd5b505050506040513d6000823e601f3d908101601f1916820160405261124491908101906135aa565b6000611c4482611ed5565b611c605760405162461bcd60e51b815260040161097490613223565b600d5460405163e0d4ea3760e01b8152600481018490526101009091046001600160a01b031690819063e0d4ea3790602401602060405180830381865afa158015611caf573d6000803e3d6000fd5b505050506040513d601f19601f82011682018060405250810190611244919061365a565b600b546001600160a01b03163314611cfd5760405162461bcd60e51b815260040161097490613166565b6001600160a01b038116611d625760405162461bcd60e51b815260206004820152602660248201527f4f776e61626c653a206e6577206f776e657220697320746865207a65726f206160448201526564647265737360d01b6064820152608401610974565b611d6b8161220a565b50565b600b546001600160a01b03163314611d985760405162461bcd60e51b815260040161097490613166565b47811115611da557600080fd5b6000826001600160a01b03168260405160006040518083038185875af1925050503d8060008114611df2576040519150601f19603f3d011682016040523d82523d6000602084013e611df7565b606091505b5050905080611e3e5760405162461bcd60e51b81526020600482015260136024820152722330b4b632b2103a379039b2b7321031b7b4b760691b6044820152606401610974565b604080516001600160a01b0385168152602081018490527f8777844761eb456b028cf7f87fc8dcb146ad8eeafbc6f80f2d006e5cd9e5a745910160405180910390a1505050565b60006001600160e01b031982166380ac58cd60e01b1480611eb657506001600160e01b03198216635b5e139f60e01b145b8061094b57506301ffc9a760e01b6001600160e01b031983161461094b565b6000908152600260205260409020546001600160a01b0316151590565b600081815260046020526040902080546001600160a01b0319166001600160a01b0384169081179091558190611f27826112ee565b6001600160a01b03167f8c5be1e5ebec7d5bd14f71427d1e84f3dd0314c0f7b2291e5b200ac8c7c3b92560405160405180910390a45050565b6000611f6b82611ed5565b611fcc5760405162461bcd60e51b815260206004820152602c60248201527f4552433732313a206f70657261746f7220717565727920666f72206e6f6e657860448201526b34b9ba32b73a103a37b5b2b760a11b6064820152608401610974565b6000611fd7836112ee565b9050806001600160a01b0316846001600160a01b031614806120125750836001600160a01b031661200784610a5f565b6001600160a01b0316145b8061204257506001600160a01b0380821660009081526005602090815260408083209388168352929052205460ff165b949350505050565b826001600160a01b031661205d826112ee565b6001600160a01b0316146120c55760405162461bcd60e51b815260206004820152602960248201527f4552433732313a207472616e73666572206f6620746f6b656e2074686174206960448201526839903737ba1037bbb760b91b6064820152608401610974565b6001600160a01b0382166121275760405162461bcd60e51b8152602060048201526024808201527f4552433732313a207472616e7366657220746f20746865207a65726f206164646044820152637265737360e01b6064820152608401610974565b612132838383612648565b61213d600082611ef2565b6001600160a01b0383166000908152600360205260408120805460019290612166908490613673565b90915550506001600160a01b03821660009081526003602052604081208054600192906121949084906131ec565b909155505060008181526002602052604080822080546001600160a01b0319166001600160a01b0386811691821790925591518493918716917fddf252ad1be2c89b69c2b068fc378daa952ba7f163c4a11628f55a4df523b3ef91a4505050565b60006122018383612700565b50600192915050565b600b80546001600160a01b038381166001600160a01b0319831681179093556040519116919082907f8be0079c531659141344cd1fd0a4f28419497f9722a3daafe3b4186f6b6457e090600090a35050565b816001600160a01b0316836001600160a01b031614156122be5760405162461bcd60e51b815260206004820152601960248201527f4552433732313a20617070726f766520746f2063616c6c6572000000000000006044820152606401610974565b6001600160a01b03838116600081815260056020908152604080832094871680845294825291829020805460ff191686151590811790915591519182527f17307eab39ab6107e8899845ad3d59bd9653f200f220920489ca2b5937696c31910160405180910390a3505050565b61233684848461204a565b6123428484848461271a565b61195f5760405162461bcd60e51b81526004016109749061368a565b6060816123825750506040805180820190915260018152600360fc1b602082015290565b8160005b81156123ac578061239681613110565b91506123a59050600a836136f2565b9150612386565b6000816001600160401b038111156123c6576123c6612d8d565b6040519080825280601f01601f1916602001820160405280156123f0576020820181803683370190505b5090505b841561204257612405600183613673565b9150612412600a86613706565b61241d9060306131ec565b60f81b818381518110612432576124326130e4565b60200101906001600160f81b031916908160001a905350612454600a866136f2565b94506123f4565b60606000600d60019054906101000a90046001600160a01b03169050806001600160a01b0316631a0925416040518163ffffffff1660e01b8152600401600060405180830381865afa1580156124b5573d6000803e3d6000fd5b505050506040513d6000823e601f3d908101601f191682016040526124dd91908101906132a9565b91505090565b805160609080612503575050604080516020810190915260008152919050565b600060036125128360026131ec565b61251c91906136f2565b612527906004613204565b905060006125368260206131ec565b6001600160401b0381111561254d5761254d612d8d565b6040519080825280601f01601f191660200182016040528015612577576020820181803683370190505b509050600060405180606001604052806040815260200161378b604091399050600181016020830160005b86811015612603576003818a01810151603f601282901c8116860151600c83901c8216870151600684901c831688015192909316870151600891821b60ff94851601821b92841692909201901b91160160e01b8352600490920191016125a2565b50600386066001811461261d576002811461262e5761263a565b613d3d60f01b60011983015261263a565b603d60f81b6000198301525b505050918152949350505050565b6001600160a01b0383166126a35761269e81600880546000838152600960205260408120829055600182018355919091527ff3f7a9fe364faab93b216da50a3214154f22a0a2b415b23a84c8169e8b636ee30155565b6126c6565b816001600160a01b0316836001600160a01b0316146126c6576126c68382612818565b6001600160a01b0382166126dd57610bf8816128b5565b826001600160a01b0316826001600160a01b031614610bf857610bf88282612964565b6110b58282604051806020016040528060008152506129a8565b60006001600160a01b0384163b1561280d57604051630a85bd0160e11b81526001600160a01b0385169063150b7a029061275e90339089908890889060040161371a565b6020604051808303816000875af1925050508015612799575060408051601f3d908101601f1916820190925261279691810190613757565b60015b6127f3573d8080156127c7576040519150601f19603f3d011682016040523d82523d6000602084013e6127cc565b606091505b5080516127eb5760405162461bcd60e51b81526004016109749061368a565b805181602001fd5b6001600160e01b031916630a85bd0160e11b149050612042565b506001949350505050565b6000600161282584611365565b61282f9190613673565b600083815260076020526040902054909150808214612882576001600160a01b03841660009081526006602090815260408083208584528252808320548484528184208190558352600790915290208190555b5060009182526007602090815260408084208490556001600160a01b039094168352600681528383209183525290812055565b6008546000906128c790600190613673565b600083815260096020526040812054600880549394509092849081106128ef576128ef6130e4565b906000526020600020015490508060088381548110612910576129106130e4565b600091825260208083209091019290925582815260099091526040808220849055858252812055600880548061294857612948613774565b6001900381819060005260206000200160009055905550505050565b600061296f83611365565b6001600160a01b039093166000908152600660209081526040808320868452825280832085905593825260079052919091209190915550565b6129b283836129db565b6129bf600084848461271a565b610bf85760405162461bcd60e51b81526004016109749061368a565b6001600160a01b038216612a315760405162461bcd60e51b815260206004820181905260248201527f4552433732313a206d696e7420746f20746865207a65726f20616464726573736044820152606401610974565b612a3a81611ed5565b15612a875760405162461bcd60e51b815260206004820152601c60248201527f4552433732313a20746f6b656e20616c7265616479206d696e746564000000006044820152606401610974565b612a9360008383612648565b6001600160a01b0382166000908152600360205260408120805460019290612abc9084906131ec565b909155505060008181526002602052604080822080546001600160a01b0319166001600160a01b03861690811790915590518392907fddf252ad1be2c89b69c2b068fc378daa952ba7f163c4a11628f55a4df523b3ef908290a45050565b828054612b269061312b565b90600052602060002090601f016020900481019282612b485760008555612b8e565b82601f10612b6157805160ff1916838001178555612b8e565b82800160010185558215612b8e579182015b82811115612b8e578251825591602001919060010190612b73565b50612b9a929150612b9e565b5090565b5b80821115612b9a5760008155600101612b9f565b6001600160e01b031981168114611d6b57600080fd5b600060208284031215612bdb57600080fd5b813561124481612bb3565b60008083601f840112612bf857600080fd5b5081356001600160401b03811115612c0f57600080fd5b6020830191508360208260051b8501011115612c2a57600080fd5b9250929050565b6001600160a01b0381168114611d6b57600080fd5b600080600060408486031215612c5b57600080fd5b83356001600160401b03811115612c7157600080fd5b612c7d86828701612be6565b9094509250506020840135612c9181612c31565b809150509250925092565b60005b83811015612cb7578181015183820152602001612c9f565b8381111561195f5750506000910152565b60008151808452612ce0816020860160208601612c9c565b601f01601f19169290920160200192915050565b6020815260006112446020830184612cc8565b600060208284031215612d1957600080fd5b5035919050565b60008060408385031215612d3357600080fd5b8235612d3e81612c31565b946020939093013593505050565b600080600060608486031215612d6157600080fd5b8335612d6c81612c31565b92506020840135612d7c81612c31565b929592945050506040919091013590565b634e487b7160e01b600052604160045260246000fd5b604051601f8201601f191681016001600160401b0381118282101715612dcb57612dcb612d8d565b604052919050565b60006001600160401b03821115612dec57612dec612d8d565b50601f01601f191660200190565b6000612e0d612e0884612dd3565b612da3565b9050828152838383011115612e2157600080fd5b828260208301376000602084830101529392505050565b600060208284031215612e4a57600080fd5b81356001600160401b03811115612e6057600080fd5b8201601f81018413612e7157600080fd5b61204284823560208401612dfa565b600060208284031215612e9257600080fd5b813561124481612c31565b6020808252825182820181905260009190848201906040850190845b81811015612ed557835183529284019291840191600101612eb9565b50909695505050505050565b60008060408385031215612ef457600080fd5b8235612eff81612c31565b915060208301358015158114612f1457600080fd5b809150509250929050565b60008060208385031215612f3257600080fd5b82356001600160401b03811115612f4857600080fd5b612f5485828601612be6565b90969095509350505050565b60008060008060808587031215612f7657600080fd5b8435612f8181612c31565b93506020850135612f9181612c31565b92506040850135915060608501356001600160401b03811115612fb357600080fd5b8501601f81018713612fc457600080fd5b612fd387823560208401612dfa565b91505092959194509250565b634e487b7160e01b600052602160045260246000fd5b602081016004831061301757634e487b7160e01b600052602160045260246000fd5b91905290565b6000602080830181845280855180835260408601915060408160051b870101925083870160005b8281101561307257603f19888603018452613060858351612cc8565b94509285019290850190600101613044565b5092979650505050505050565b6000806040838503121561309257600080fd5b823561309d81612c31565b91506020830135612f1481612c31565b6020808252601f908201527f5265656e7472616e637947756172643a207265656e7472616e742063616c6c00604082015260600190565b634e487b7160e01b600052603260045260246000fd5b634e487b7160e01b600052601160045260246000fd5b6000600019821415613124576131246130fa565b5060010190565b600181811c9082168061313f57607f821691505b6020821081141561316057634e487b7160e01b600052602260045260246000fd5b50919050565b6020808252818101527f4f776e61626c653a2063616c6c6572206973206e6f7420746865206f776e6572604082015260600190565b60208082526031908201527f4552433732313a207472616e736665722063616c6c6572206973206e6f74206f6040820152701ddb995c881b9bdc88185c1c1c9bdd9959607a1b606082015260800190565b600082198211156131ff576131ff6130fa565b500190565b600081600019048311821515161561321e5761321e6130fa565b500290565b60208082526021908201527f4e5444414f2d4e46543a20546f6b656e4964206e6f74206d696e7465642079656040820152601d60fa1b606082015260800190565b600082601f83011261327557600080fd5b8151613283612e0882612dd3565b81815284602083860101111561329857600080fd5b612042826020830160208701612c9c565b6000602082840312156132bb57600080fd5b81516001600160401b038111156132d157600080fd5b61204284828501613264565b600081516132ef818560208601612c9c565b9290920192915050565b600080845481600182811c91508083168061331557607f831692505b602080841082141561333557634e487b7160e01b86526022600452602486fd5b818015613349576001811461335a57613387565b60ff19861689528489019650613387565b60008b81526020902060005b8681101561337f5781548b820152908501908301613366565b505084890196505b5050505050506133aa61339a82866132dd565b631733b4b360e11b815260040190565b95945050505050565b7f7b226e616d65223a20224e6174696f6e616c2054726561737572652044414f208152644e4654202360d81b6020820152600085516133f9816025850160208a01612c9c565b7001116101130ba3a3934b13aba32b9911d1607d1b602591840191820152855161342a816036840160208a01612c9c565b711610113232b9b1b934b83a34b7b7111d101160711b60369290910191820152845161345d816048840160208901612c9c565b6025818301019150506c1116101134b6b0b3b2911d101160991b6023820152835161348f816030840160208801612c9c565b6134a660308383010161227d60f01b815260020190565b98975050505050505050565b7f646174613a6170706c69636174696f6e2f6a736f6e3b6261736536342c0000008152600082516134ea81601d850160208701612c9c565b91909101601d0192915050565b60006001600160401b0382111561351057613510612d8d565b5060051b60200190565b6000602080838503121561352d57600080fd5b82516001600160401b0381111561354357600080fd5b8301601f8101851361355457600080fd5b8051613562612e08826134f7565b81815260059190911b8201830190838101908783111561358157600080fd5b928401925b8284101561359f57835182529284019290840190613586565b979650505050505050565b600060208083850312156135bd57600080fd5b82516001600160401b03808211156135d457600080fd5b818501915085601f8301126135e857600080fd5b81516135f6612e08826134f7565b81815260059190911b8301840190848101908883111561361557600080fd5b8585015b8381101561364d578051858111156136315760008081fd5b61363f8b89838a0101613264565b845250918601918601613619565b5098975050505050505050565b60006020828403121561366c57600080fd5b5051919050565b600082821015613685576136856130fa565b500390565b60208082526032908201527f4552433732313a207472616e7366657220746f206e6f6e20455243373231526560408201527131b2b4bb32b91034b6b83632b6b2b73a32b960711b606082015260800190565b634e487b7160e01b600052601260045260246000fd5b600082613701576137016136dc565b500490565b600082613715576137156136dc565b500690565b6001600160a01b038581168252841660208201526040810183905260806060820181905260009061374d90830184612cc8565b9695505050505050565b60006020828403121561376957600080fd5b815161124481612bb3565b634e487b7160e01b600052603160045260246000fdfe4142434445464748494a4b4c4d4e4f505152535455565758595a6162636465666768696a6b6c6d6e6f707172737475767778797a303132333435363738392b2fa26469706673582212207a255071221bc69916da758f25f3b811eaf0764fcc17950d51ede0ca9fdc898464736f6c634300080a0033",
  "linkReferences": {},
  "deployedLinkReferences": {}
}