{
  "_format": "hh-sol-artifact-1",
  "contractName": "NTDaoNft",
  "sourceName": "contracts/NTDaoNft.sol",
  "abi": [
    {
      "inputs": [],
      "stateMutability": "nonpayable",
      "type": "constructor"
    },
    {
      "anonymous": false,
      "inputs": [
        {
          "indexed": true,
          "internalType": "address",
          "name": "owner",
          "type": "address"
        },
        {
          "indexed": true,
          "internalType": "address",
          "name": "approved",
          "type": "address"
        },
        {
          "indexed": true,
          "internalType": "uint256",
          "name": "tokenId",
          "type": "uint256"
        }
      ],
      "name": "Approval",
      "type": "event"
    },
    {
      "anonymous": false,
      "inputs": [
        {
          "indexed": true,
          "internalType": "address",
          "name": "owner",
          "type": "address"
        },
        {
          "indexed": true,
          "internalType": "address",
          "name": "operator",
          "type": "address"
        },
        {
          "indexed": false,
          "internalType": "bool",
          "name": "approved",
          "type": "bool"
        }
      ],
      "name": "ApprovalForAll",
      "type": "event"
    },
    {
      "anonymous": false,
      "inputs": [
        {
          "indexed": false,
          "internalType": "address",
          "name": "recipient",
          "type": "address"
        },
        {
          "indexed": false,
          "internalType": "uint256",
          "name": "amount",
          "type": "uint256"
        }
      ],
      "name": "BalanceWithdraw",
      "type": "event"
    },
    {
      "anonymous": false,
      "inputs": [
        {
          "indexed": true,
          "internalType": "address",
          "name": "previousOwner",
          "type": "address"
        },
        {
          "indexed": true,
          "internalType": "address",
          "name": "newOwner",
          "type": "address"
        }
      ],
      "name": "OwnershipTransferred",
      "type": "event"
    },
    {
      "anonymous": false,
      "inputs": [
        {
          "indexed": false,
          "internalType": "address",
          "name": "caller",
          "type": "address"
        },
        {
          "indexed": false,
          "internalType": "uint256",
          "name": "amount",
          "type": "uint256"
        },
        {
          "indexed": false,
          "internalType": "string",
          "name": "message",
          "type": "string"
        }
      ],
      "name": "Received",
      "type": "event"
    },
    {
      "anonymous": false,
      "inputs": [
        {
          "indexed": true,
          "internalType": "address",
          "name": "to",
          "type": "address"
        },
        {
          "indexed": true,
          "internalType": "uint256",
          "name": "tokenId",
          "type": "uint256"
        },
        {
          "indexed": false,
          "internalType": "uint256",
          "name": "amount",
          "type": "uint256"
        }
      ],
      "name": "Refunded",
      "type": "event"
    },
    {
      "anonymous": false,
      "inputs": [
        {
          "indexed": false,
          "internalType": "enum NTDaoNft.State",
          "name": "_state",
          "type": "uint8"
        }
      ],
      "name": "StateChanged",
      "type": "event"
    },
    {
      "anonymous": false,
      "inputs": [
        {
          "indexed": true,
          "internalType": "address",
          "name": "from",
          "type": "address"
        },
        {
          "indexed": true,
          "internalType": "address",
          "name": "to",
          "type": "address"
        },
        {
          "indexed": true,
          "internalType": "uint256",
          "name": "tokenId",
          "type": "uint256"
        }
      ],
      "name": "Transfer",
      "type": "event"
    },
    {
      "stateMutability": "payable",
      "type": "fallback"
    },
    {
      "inputs": [],
      "name": "MAX_PUBLIC_ID",
      "outputs": [
        {
          "internalType": "uint16",
          "name": "",
          "type": "uint16"
        }
      ],
      "stateMutability": "view",
      "type": "function"
    },
    {
      "inputs": [],
      "name": "MAX_PUBLIC_MULTI",
      "outputs": [
        {
          "internalType": "uint8",
          "name": "",
          "type": "uint8"
        }
      ],
      "stateMutability": "view",
      "type": "function"
    },
    {
      "inputs": [],
      "name": "MINTING_FEE",
      "outputs": [
        {
          "internalType": "uint256",
          "name": "",
          "type": "uint256"
        }
      ],
      "stateMutability": "view",
      "type": "function"
    },
    {
      "inputs": [
        {
          "internalType": "address",
          "name": "to",
          "type": "address"
        },
        {
          "internalType": "uint256",
          "name": "tokenId",
          "type": "uint256"
        }
      ],
      "name": "approve",
      "outputs": [],
      "stateMutability": "nonpayable",
      "type": "function"
    },
    {
      "inputs": [
        {
          "internalType": "address",
          "name": "owner",
          "type": "address"
        }
      ],
      "name": "balanceOf",
      "outputs": [
        {
          "internalType": "uint256",
          "name": "",
          "type": "uint256"
        }
      ],
      "stateMutability": "view",
      "type": "function"
    },
    {
      "inputs": [],
      "name": "changeToPermanent",
      "outputs": [],
      "stateMutability": "nonpayable",
      "type": "function"
    },
    {
      "inputs": [
        {
          "internalType": "uint256",
          "name": "tokenId",
          "type": "uint256"
        }
      ],
      "name": "getApproved",
      "outputs": [
        {
          "internalType": "address",
          "name": "",
          "type": "address"
        }
      ],
      "stateMutability": "view",
      "type": "function"
    },
    {
      "inputs": [
        {
          "internalType": "uint256",
          "name": "_tokenId",
          "type": "uint256"
        }
      ],
      "name": "getAttrs",
      "outputs": [
        {
          "internalType": "string",
          "name": "",
          "type": "string"
        }
      ],
      "stateMutability": "view",
      "type": "function"
    },
    {
      "inputs": [],
      "name": "getBalance",
      "outputs": [
        {
          "internalType": "uint256",
          "name": "",
          "type": "uint256"
        }
      ],
      "stateMutability": "view",
      "type": "function"
    },
    {
      "inputs": [
        {
          "internalType": "uint256",
          "name": "_tokenId",
          "type": "uint256"
        }
      ],
      "name": "getBaseGeneNames",
      "outputs": [
        {
          "internalType": "string[]",
          "name": "",
          "type": "string[]"
        }
      ],
      "stateMutability": "view",
      "type": "function"
    },
    {
      "inputs": [
        {
          "internalType": "uint256",
          "name": "_tokenId",
          "type": "uint256"
        }
      ],
      "name": "getBaseGenes",
      "outputs": [
        {
          "internalType": "uint256[]",
          "name": "",
          "type": "uint256[]"
        }
      ],
      "stateMutability": "view",
      "type": "function"
    },
    {
      "inputs": [
        {
          "internalType": "uint256",
          "name": "_tokenId",
          "type": "uint256"
        }
      ],
      "name": "getImg",
      "outputs": [
        {
          "internalType": "string",
          "name": "",
          "type": "string"
        }
      ],
      "stateMutability": "view",
      "type": "function"
    },
    {
      "inputs": [],
      "name": "getMintingState",
      "outputs": [
        {
          "internalType": "uint8",
          "name": "",
          "type": "uint8"
        }
      ],
      "stateMutability": "view",
      "type": "function"
    },
    {
      "inputs": [
        {
          "internalType": "uint256",
          "name": "_tokenId",
          "type": "uint256"
        }
      ],
      "name": "getSeed",
      "outputs": [
        {
          "internalType": "uint256",
          "name": "",
          "type": "uint256"
        }
      ],
      "stateMutability": "view",
      "type": "function"
    },
    {
      "inputs": [
        {
          "internalType": "address",
          "name": "owner",
          "type": "address"
        },
        {
          "internalType": "address",
          "name": "operator",
          "type": "address"
        }
      ],
      "name": "isApprovedForAll",
      "outputs": [
        {
          "internalType": "bool",
          "name": "",
          "type": "bool"
        }
      ],
      "stateMutability": "view",
      "type": "function"
    },
    {
      "inputs": [],
      "name": "isPermanent",
      "outputs": [
        {
          "internalType": "bool",
          "name": "",
          "type": "bool"
        }
      ],
      "stateMutability": "view",
      "type": "function"
    },
    {
      "inputs": [],
      "name": "name",
      "outputs": [
        {
          "internalType": "string",
          "name": "",
          "type": "string"
        }
      ],
      "stateMutability": "view",
      "type": "function"
    },
    {
      "inputs": [],
      "name": "notRefundCount",
      "outputs": [
        {
          "internalType": "uint256",
          "name": "",
          "type": "uint256"
        }
      ],
      "stateMutability": "view",
      "type": "function"
    },
    {
      "inputs": [],
      "name": "owner",
      "outputs": [
        {
          "internalType": "address",
          "name": "",
          "type": "address"
        }
      ],
      "stateMutability": "view",
      "type": "function"
    },
    {
      "inputs": [
        {
          "internalType": "uint256",
          "name": "tokenId",
          "type": "uint256"
        }
      ],
      "name": "ownerOf",
      "outputs": [
        {
          "internalType": "address",
          "name": "",
          "type": "address"
        }
      ],
      "stateMutability": "view",
      "type": "function"
    },
    {
      "inputs": [
        {
          "internalType": "uint256",
          "name": "_count",
          "type": "uint256"
        }
      ],
      "name": "publicMint",
      "outputs": [],
      "stateMutability": "payable",
      "type": "function"
    },
    {
      "inputs": [
        {
          "internalType": "uint256[]",
          "name": "tokenIds_",
          "type": "uint256[]"
        }
      ],
      "name": "refund",
      "outputs": [],
      "stateMutability": "nonpayable",
      "type": "function"
    },
    {
      "inputs": [
        {
          "internalType": "uint256",
          "name": "",
          "type": "uint256"
        }
      ],
      "name": "refunds",
      "outputs": [
        {
          "internalType": "bool",
          "name": "",
          "type": "bool"
        }
      ],
      "stateMutability": "view",
      "type": "function"
    },
    {
      "inputs": [],
      "name": "renounceOwnership",
      "outputs": [],
      "stateMutability": "nonpayable",
      "type": "function"
    },
    {
      "inputs": [
        {
          "internalType": "address",
          "name": "from",
          "type": "address"
        },
        {
          "internalType": "address",
          "name": "to",
          "type": "address"
        },
        {
          "internalType": "uint256",
          "name": "tokenId",
          "type": "uint256"
        }
      ],
      "name": "safeTransferFrom",
      "outputs": [],
      "stateMutability": "nonpayable",
      "type": "function"
    },
    {
      "inputs": [
        {
          "internalType": "address",
          "name": "from",
          "type": "address"
        },
        {
          "internalType": "address",
          "name": "to",
          "type": "address"
        },
        {
          "internalType": "uint256",
          "name": "tokenId",
          "type": "uint256"
        },
        {
          "internalType": "bytes",
          "name": "_data",
          "type": "bytes"
        }
      ],
      "name": "safeTransferFrom",
      "outputs": [],
      "stateMutability": "nonpayable",
      "type": "function"
    },
    {
      "inputs": [
        {
          "internalType": "address",
          "name": "operator",
          "type": "address"
        },
        {
          "internalType": "bool",
          "name": "approved",
          "type": "bool"
        }
      ],
      "name": "setApprovalForAll",
      "outputs": [],
      "stateMutability": "nonpayable",
      "type": "function"
    },
    {
      "inputs": [],
      "name": "setStateToFinished",
      "outputs": [],
      "stateMutability": "nonpayable",
      "type": "function"
    },
    {
      "inputs": [],
      "name": "setStateToPublicMint",
      "outputs": [],
      "stateMutability": "nonpayable",
      "type": "function"
    },
    {
      "inputs": [],
      "name": "setStateToRefund",
      "outputs": [],
      "stateMutability": "nonpayable",
      "type": "function"
    },
    {
      "inputs": [],
      "name": "setStateToSetup",
      "outputs": [],
      "stateMutability": "nonpayable",
      "type": "function"
    },
    {
      "inputs": [],
      "name": "state",
      "outputs": [
        {
          "internalType": "enum NTDaoNft.State",
          "name": "",
          "type": "uint8"
        }
      ],
      "stateMutability": "view",
      "type": "function"
    },
    {
      "inputs": [
        {
          "internalType": "bytes4",
          "name": "interfaceId",
          "type": "bytes4"
        }
      ],
      "name": "supportsInterface",
      "outputs": [
        {
          "internalType": "bool",
          "name": "",
          "type": "bool"
        }
      ],
      "stateMutability": "view",
      "type": "function"
    },
    {
      "inputs": [],
      "name": "symbol",
      "outputs": [
        {
          "internalType": "string",
          "name": "",
          "type": "string"
        }
      ],
      "stateMutability": "view",
      "type": "function"
    },
    {
      "inputs": [
        {
          "internalType": "uint256",
          "name": "index",
          "type": "uint256"
        }
      ],
      "name": "tokenByIndex",
      "outputs": [
        {
          "internalType": "uint256",
          "name": "",
          "type": "uint256"
        }
      ],
      "stateMutability": "view",
      "type": "function"
    },
    {
      "inputs": [
        {
          "internalType": "address",
          "name": "owner",
          "type": "address"
        },
        {
          "internalType": "uint256",
          "name": "index",
          "type": "uint256"
        }
      ],
      "name": "tokenOfOwnerByIndex",
      "outputs": [
        {
          "internalType": "uint256",
          "name": "",
          "type": "uint256"
        }
      ],
      "stateMutability": "view",
      "type": "function"
    },
    {
      "inputs": [
        {
          "internalType": "uint256",
          "name": "_tokenId",
          "type": "uint256"
        }
      ],
      "name": "tokenURI",
      "outputs": [
        {
          "internalType": "string",
          "name": "",
          "type": "string"
        }
      ],
      "stateMutability": "view",
      "type": "function"
    },
    {
      "inputs": [
        {
          "internalType": "address",
          "name": "_account",
          "type": "address"
        }
      ],
      "name": "tokensOf",
      "outputs": [
        {
          "internalType": "uint256[]",
          "name": "",
          "type": "uint256[]"
        }
      ],
      "stateMutability": "view",
      "type": "function"
    },
    {
      "inputs": [],
      "name": "totalSupply",
      "outputs": [
        {
          "internalType": "uint256",
          "name": "",
          "type": "uint256"
        }
      ],
      "stateMutability": "view",
      "type": "function"
    },
    {
      "inputs": [
        {
          "internalType": "uint256[]",
          "name": "tokenIds_",
          "type": "uint256[]"
        },
        {
          "internalType": "address",
          "name": "_to",
          "type": "address"
        }
      ],
      "name": "transferBatch",
      "outputs": [],
      "stateMutability": "nonpayable",
      "type": "function"
    },
    {
      "inputs": [
        {
          "internalType": "address",
          "name": "from",
          "type": "address"
        },
        {
          "internalType": "address",
          "name": "to",
          "type": "address"
        },
        {
          "internalType": "uint256",
          "name": "tokenId",
          "type": "uint256"
        }
      ],
      "name": "transferFrom",
      "outputs": [],
      "stateMutability": "nonpayable",
      "type": "function"
    },
    {
      "inputs": [
        {
          "internalType": "address",
          "name": "newOwner",
          "type": "address"
        }
      ],
      "name": "transferOwnership",
      "outputs": [],
      "stateMutability": "nonpayable",
      "type": "function"
    },
    {
      "inputs": [
        {
          "internalType": "address",
          "name": "geneContract_",
          "type": "address"
        }
      ],
      "name": "updateGene",
      "outputs": [],
      "stateMutability": "nonpayable",
      "type": "function"
    },
    {
      "inputs": [
        {
          "internalType": "uint256",
          "name": "_feeAmount",
          "type": "uint256"
        }
      ],
      "name": "updateMintingFee",
      "outputs": [],
      "stateMutability": "nonpayable",
      "type": "function"
    },
    {
      "inputs": [
        {
          "internalType": "address payable",
          "name": "_to",
          "type": "address"
        },
        {
          "internalType": "uint256",
          "name": "_amount",
          "type": "uint256"
        }
      ],
      "name": "withdraw",
      "outputs": [],
      "stateMutability": "nonpayable",
      "type": "function"
    },
    {
      "stateMutability": "payable",
      "type": "receive"
    }
  ],
  "bytecode": "0x6080604052681043561a8829300000600e553480156200001e57600080fd5b50604080518082018252601981527f4e6174696f6e616c2054726561737572652044414f204e4654000000000000006020808301918252835180850190945260098452681395111053cb53919560ba1b908401528151919291620000859160009162000110565b5080516200009b90600190602084019062000110565b50506001600a5550620000ae33620000be565b600d805460ff19169055620001f3565b600b80546001600160a01b038381166001600160a01b0319831681179093556040519116919082907f8be0079c531659141344cd1fd0a4f28419497f9722a3daafe3b4186f6b6457e090600090a35050565b8280546200011e90620001b6565b90600052602060002090601f0160209004810192826200014257600085556200018d565b82601f106200015d57805160ff19168380011785556200018d565b828001600101855582156200018d579182015b828111156200018d57825182559160200191906001019062000170565b506200019b9291506200019f565b5090565b5b808211156200019b5760008155600101620001a0565b600181811c90821680620001cb57607f821691505b60208210811415620001ed57634e487b7160e01b600052602260045260246000fd5b50919050565b6134cc80620002036000396000f3fe6080604052600436106102765760003560e01c80637be33c091161014f578063c19d93fb116100c1578063e0d4ea371161007a578063e0d4ea37146107d8578063e36bd0f3146107f8578063e985e9c514610828578063f2fde38b14610871578063f3b9004514610891578063f3fef3a3146108a6576102ec565b8063c19d93fb1461070e578063c87b56dd14610735578063ca706d5014610755578063cf2defeb14610775578063d08fd6eb14610795578063d642b4b1146107c2576102ec565b8063a22cb46511610113578063a22cb46514610663578063aa613df514610683578063aefc4966146106a3578063b0384ea1146106b9578063b88d4fde146106ce578063c0275a25146106ee576102ec565b80637be33c09146105db5780638d07b7d6146105fb5780638da5cb5b1461061b57806395d89b41146106395780639f0568e61461064e576102ec565b80632f745c59116101e85780636352211e116101ac5780636352211e146105275780636c0e693a1461054757806370a0823114610570578063715018a61461059057806372769e6f146105a557806378bff498146105ba576102ec565b80632f745c591461048557806342842e0e146104a55780634e371a6e146104c55780634f6ccce7146104da5780635a3f2672146104fa576102ec565b806312065fe01161023a57806312065fe0146103e457806318160ddd1461040157806323af88271461041657806323b872dd1461042b57806327701f751461044b5780632db1154414610472576102ec565b806301ffc9a7146103135780630202def11461034857806306fdde031461036a578063081812fc1461038c578063095ea7b3146103c4576102ec565b366102ec577f59e04c3f0d44b7caf6e8ef854b61d9a51cf1960d7a88ff6356cc5e946b4b5832335b604080516001600160a01b03909216825234602083015260609082018190526013908201527211985b1b189858dac81dd85cc818d85b1b1959606a1b608082015260a00160405180910390a1005b7f59e04c3f0d44b7caf6e8ef854b61d9a51cf1960d7a88ff6356cc5e946b4b58323361029e565b34801561031f57600080fd5b5061033361032e3660046129c2565b6108c6565b60405190151581526020015b60405180910390f35b34801561035457600080fd5b50610368610363366004612a3f565b6108f1565b005b34801561037657600080fd5b5061037f61096d565b60405161033f9190612aed565b34801561039857600080fd5b506103ac6103a7366004612b00565b6109ff565b6040516001600160a01b03909116815260200161033f565b3480156103d057600080fd5b506103686103df366004612b19565b610a87565b3480156103f057600080fd5b50475b60405190815260200161033f565b34801561040d57600080fd5b506008546103f3565b34801561042257600080fd5b50610368610b9d565b34801561043757600080fd5b50610368610446366004612b45565b610bde565b34801561045757600080fd5b50610460610c0f565b60405160ff909116815260200161033f565b610368610480366004612b00565b610c9a565b34801561049157600080fd5b506103f36104a0366004612b19565b610f37565b3480156104b157600080fd5b506103686104c0366004612b45565b610fcd565b3480156104d157600080fd5b50610368610fe8565b3480156104e657600080fd5b506103f36104f5366004612b00565b611026565b34801561050657600080fd5b5061051a610515366004612b86565b6110b9565b60405161033f9190612ba3565b34801561053357600080fd5b506103ac610542366004612b00565b61115c565b34801561055357600080fd5b5061055d614e2081565b60405161ffff909116815260200161033f565b34801561057c57600080fd5b506103f361058b366004612b86565b6111d3565b34801561059c57600080fd5b5061036861125a565b3480156105b157600080fd5b50610368611290565b3480156105c657600080fd5b50600d5461033390600160a81b900460ff1681565b3480156105e757600080fd5b506103686105f6366004612b86565b6112cf565b34801561060757600080fd5b5061037f610616366004612b00565b611385565b34801561062757600080fd5b50600b546001600160a01b03166103ac565b34801561064557600080fd5b5061037f61142b565b34801561065a57600080fd5b5061036861143a565b34801561066f57600080fd5b5061036861067e366004612be7565b611477565b34801561068f57600080fd5b5061036861069e366004612c25565b611486565b3480156106af57600080fd5b506103f3600f5481565b3480156106c557600080fd5b506103686117da565b3480156106da57600080fd5b506103686106e9366004612cd3565b611818565b3480156106fa57600080fd5b50610368610709366004612b00565b611850565b34801561071a57600080fd5b50600d546107289060ff1681565b60405161033f9190612d97565b34801561074157600080fd5b5061037f610750366004612b00565b61187f565b34801561076157600080fd5b5061037f610770366004612b00565b611931565b34801561078157600080fd5b5061051a610790366004612b00565b61198f565b3480156107a157600080fd5b506107b56107b0366004612b00565b611a2d565b60405161033f9190612dbf565b3480156107ce57600080fd5b506103f3600e5481565b3480156107e457600080fd5b506103f36107f3366004612b00565b611acb565b34801561080457600080fd5b50610333610813366004612b00565b60106020526000908152604090205460ff1681565b34801561083457600080fd5b50610333610843366004612e21565b6001600160a01b03918216600090815260056020908152604080832093909416825291909152205460ff1690565b34801561087d57600080fd5b5061036861088c366004612b86565b611b65565b34801561089d57600080fd5b50610460601481565b3480156108b257600080fd5b506103686108c1366004612b19565b611c00565b60006001600160e01b0319821663780e9d6360e01b14806108eb57506108eb82611d17565b92915050565b6002600a54141561091d5760405162461bcd60e51b815260040161091490612e4f565b60405180910390fd5b6002600a5560005b8281101561096257610950338386868581811061094457610944612e86565b90506020020135610fcd565b8061095a81612eb2565b915050610925565b50506001600a555050565b60606000805461097c90612ecd565b80601f01602080910402602001604051908101604052809291908181526020018280546109a890612ecd565b80156109f55780601f106109ca576101008083540402835291602001916109f5565b820191906000526020600020905b8154815290600101906020018083116109d857829003601f168201915b5050505050905090565b6000610a0a82611d67565b610a6b5760405162461bcd60e51b815260206004820152602c60248201527f4552433732313a20617070726f76656420717565727920666f72206e6f6e657860448201526b34b9ba32b73a103a37b5b2b760a11b6064820152608401610914565b506000908152600460205260409020546001600160a01b031690565b6000610a928261115c565b9050806001600160a01b0316836001600160a01b03161415610b005760405162461bcd60e51b815260206004820152602160248201527f4552433732313a20617070726f76616c20746f2063757272656e74206f776e656044820152603960f91b6064820152608401610914565b336001600160a01b0382161480610b1c5750610b1c8133610843565b610b8e5760405162461bcd60e51b815260206004820152603860248201527f4552433732313a20617070726f76652063616c6c6572206973206e6f74206f7760448201527f6e6572206e6f7220617070726f76656420666f7220616c6c00000000000000006064820152608401610914565b610b988383611d84565b505050565b600b546001600160a01b03163314610bc75760405162461bcd60e51b815260040161091490612f08565b600d80546000919060ff19166001835b0217905550565b610be83382611df2565b610c045760405162461bcd60e51b815260040161091490612f3d565b610b98838383611edc565b600080600d5460ff166003811115610c2957610c29612d81565b1415610c355750600090565b6001600d5460ff166003811115610c4e57610c4e612d81565b148015610c645750614e20610c62600c5490565b105b15610c6f5750600190565b6002600d5460ff166003811115610c8857610c88612d81565b1415610c945750600290565b50600390565b6002600a541415610cbd5760405162461bcd60e51b815260040161091490612e4f565b6002600a556001600d5460ff166003811115610cdb57610cdb612d81565b14610d365760405162461bcd60e51b815260206004820152602560248201527f4e5444414f2d4e46543a205374617465206973206e6f7420696e205075626c6960448201526418d35a5b9d60da1b6064820152608401610914565b6014811115610da25760405162461bcd60e51b815260206004820152603260248201527f4e5444414f2d4e46543a204d696e74696e6720636f756e742065786365656473604482015271081b5bdc99481d1a185b88185b1b1bddd95960721b6064820152608401610914565b614e2081610daf600c5490565b610db99190612f8e565b1115610e1f5760405162461bcd60e51b815260206004820152602f60248201527f4e5444414f2d4e46543a2043616e206e6f74206d696e74206d6f72652074686160448201526e1b8813505617d41550931250d7d251608a1b6064820152608401610914565b3481600e54610e2e9190612fa6565b14610e925760405162461bcd60e51b815260206004820152602e60248201527f4e5444414f2d4e46543a204d696e74696e672066656520616d6f756e7473206460448201526d37b2b9903737ba1036b0ba31b41760911b6064820152608401610914565b60005b81811015610f2e57610eab600c80546001019055565b6001600f6000828254610ebe9190612f8e565b90915550610ed0905033600c54612087565b610f1c5760405162461bcd60e51b815260206004820152601960248201527f4e5444414f2d4e46543a206d696e74696e67206661696c6564000000000000006044820152606401610914565b80610f2681612eb2565b915050610e95565b50506001600a55565b6000610f42836111d3565b8210610fa45760405162461bcd60e51b815260206004820152602b60248201527f455243373231456e756d657261626c653a206f776e657220696e646578206f7560448201526a74206f6620626f756e647360a81b6064820152608401610914565b506001600160a01b03919091166000908152600660209081526040808320938352929052205490565b610b9883838360405180602001604052806000815250611818565b600b546001600160a01b031633146110125760405162461bcd60e51b815260040161091490612f08565b600d80546002919060ff1916600183610bd7565b600061103160085490565b82106110945760405162461bcd60e51b815260206004820152602c60248201527f455243373231456e756d657261626c653a20676c6f62616c20696e646578206f60448201526b7574206f6620626f756e647360a01b6064820152608401610914565b600882815481106110a7576110a7612e86565b90600052602060002001549050919050565b606060006110c6836111d3565b6001600160401b038111156110dd576110dd612c66565b604051908082528060200260200182016040528015611106578160200160208202803683370190505b50905060005b611115846111d3565b811015611155576111268482610f37565b82828151811061113857611138612e86565b60209081029190910101528061114d81612eb2565b91505061110c565b5092915050565b6000818152600260205260408120546001600160a01b0316806108eb5760405162461bcd60e51b815260206004820152602960248201527f4552433732313a206f776e657220717565727920666f72206e6f6e657869737460448201526832b73a103a37b5b2b760b91b6064820152608401610914565b60006001600160a01b03821661123e5760405162461bcd60e51b815260206004820152602a60248201527f4552433732313a2062616c616e636520717565727920666f7220746865207a65604482015269726f206164647265737360b01b6064820152608401610914565b506001600160a01b031660009081526003602052604090205490565b600b546001600160a01b031633146112845760405162461bcd60e51b815260040161091490612f08565b61128e600061209c565b565b600b546001600160a01b031633146112ba5760405162461bcd60e51b815260040161091490612f08565b600d805460ff60a81b1916600160a81b179055565b600b546001600160a01b031633146112f95760405162461bcd60e51b815260040161091490612f08565b600d54600160a81b900460ff161561135d5760405162461bcd60e51b815260206004820152602160248201527f4e5444414f2d4e46543a2047656e6520636f6e747261637420697320666978656044820152601960fa1b6064820152608401610914565b600d80546001600160a01b0390921661010002610100600160a81b0319909216919091179055565b606061139082611d67565b6113ac5760405162461bcd60e51b815260040161091490612fc5565b600d54604051634683dbeb60e11b8152600481018490526101009091046001600160a01b0316908190638d07b7d6906024015b600060405180830381865afa1580156113fc573d6000803e3d6000fd5b505050506040513d6000823e601f3d908101601f19168201604052611424919081019061304b565b9392505050565b60606001805461097c90612ecd565b600b546001600160a01b031633146114645760405162461bcd60e51b815260040161091490612f08565b600d80546001919060ff19168280610bd7565b6114823383836120ee565b5050565b6002600a5414156114a95760405162461bcd60e51b815260040161091490612e4f565b6002600a819055600d5460ff1660038111156114c7576114c7612d81565b1461151e5760405162461bcd60e51b815260206004820152602160248201527f4e5444414f2d4e46543a205374617465206973206e6f7420696e20526566756e6044820152601960fa1b6064820152608401610914565b600f5433906000906115309047613095565b905060005b838110156117ce576010600086868481811061155357611553612e86565b602090810292909201358352508101919091526040016000205460ff16156115d15760405162461bcd60e51b815260206004820152602b60248201527f4e5444414f2d4e46543a2054686520746f6b656e64496420697320616c72656160448201526a191e481c99599d5b99195960aa1b6064820152608401610914565b826001600160a01b03166115fc8686848181106115f0576115f0612e86565b9050602002013561115c565b6001600160a01b0316146116625760405162461bcd60e51b815260206004820152602760248201527f4e5444414f2d4e46543a2054686520746f6b656e206f776e65722069732064696044820152661999995c995b9d60ca1b6064820152608401610914565b60016010600087878581811061167a5761167a612e86565b90506020020135815260200190815260200160002060006101000a81548160ff0219169083151502179055506001600f60008282546116b991906130a9565b90915550506040516000906001600160a01b0385169084908381818185875af1925050503d8060008114611709576040519150601f19603f3d011682016040523d82523d6000602084013e61170e565b606091505b505090508061175f5760405162461bcd60e51b815260206004820152601e60248201527f4e5444414f2d4e46543a204661696c656420746f2073656e6420636f696e00006044820152606401610914565b85858381811061177157611771612e86565b90506020020135846001600160a01b03167f2dc8e290002f06fc0085bbca9dfb8b415cf4d1178950c72ff9ee8f4d8878ee66856040516117b391815260200190565b60405180910390a350806117c681612eb2565b915050611535565b50506001600a55505050565b600b546001600160a01b031633146118045760405162461bcd60e51b815260040161091490612f08565b600d80546003919060ff1916600183610bd7565b6118223383611df2565b61183e5760405162461bcd60e51b815260040161091490612f3d565b61184a848484846121bd565b50505050565b600b546001600160a01b0316331461187a5760405162461bcd60e51b815260040161091490612f08565b600e55565b606061188a82611d67565b6118a65760405162461bcd60e51b815260040161091490612fc5565b60006118b183611931565b905060006118be84611385565b905060006118ca6121f0565b905060006119046118da87612278565b8584866040516020016118f094939291906130c0565b604051602081830303815290604052612375565b90508060405160200161191791906131bf565b604051602081830303815290604052945050505050919050565b606061193c82611d67565b6119585760405162461bcd60e51b815260040161091490612fc5565b600d54604051630ca706d560e41b8152600481018490526101009091046001600160a01b031690819063ca706d50906024016113df565b606061199a82611d67565b6119b65760405162461bcd60e51b815260040161091490612fc5565b600d5460405163cf2defeb60e01b8152600481018490526101009091046001600160a01b031690819063cf2defeb90602401600060405180830381865afa158015611a05573d6000803e3d6000fd5b505050506040513d6000823e601f3d908101601f191682016040526114249190810190613227565b6060611a3882611d67565b611a545760405162461bcd60e51b815260040161091490612fc5565b600d5460405163d08fd6eb60e01b8152600481018490526101009091046001600160a01b031690819063d08fd6eb90602401600060405180830381865afa158015611aa3573d6000803e3d6000fd5b505050506040513d6000823e601f3d908101601f1916820160405261142491908101906132b7565b6000611ad682611d67565b611af25760405162461bcd60e51b815260040161091490612fc5565b600d5460405163e0d4ea3760e01b8152600481018490526101009091046001600160a01b031690819063e0d4ea3790602401602060405180830381865afa158015611b41573d6000803e3d6000fd5b505050506040513d601f19601f820116820180604052508101906114249190613367565b600b546001600160a01b03163314611b8f5760405162461bcd60e51b815260040161091490612f08565b6001600160a01b038116611bf45760405162461bcd60e51b815260206004820152602660248201527f4f776e61626c653a206e6577206f776e657220697320746865207a65726f206160448201526564647265737360d01b6064820152608401610914565b611bfd8161209c565b50565b600b546001600160a01b03163314611c2a5760405162461bcd60e51b815260040161091490612f08565b47811115611c3757600080fd5b6000826001600160a01b03168260405160006040518083038185875af1925050503d8060008114611c84576040519150601f19603f3d011682016040523d82523d6000602084013e611c89565b606091505b5050905080611cd05760405162461bcd60e51b81526020600482015260136024820152722330b4b632b2103a379039b2b7321031b7b4b760691b6044820152606401610914565b604080516001600160a01b0385168152602081018490527f8777844761eb456b028cf7f87fc8dcb146ad8eeafbc6f80f2d006e5cd9e5a745910160405180910390a1505050565b60006001600160e01b031982166380ac58cd60e01b1480611d4857506001600160e01b03198216635b5e139f60e01b145b806108eb57506301ffc9a760e01b6001600160e01b03198316146108eb565b6000908152600260205260409020546001600160a01b0316151590565b600081815260046020526040902080546001600160a01b0319166001600160a01b0384169081179091558190611db98261115c565b6001600160a01b03167f8c5be1e5ebec7d5bd14f71427d1e84f3dd0314c0f7b2291e5b200ac8c7c3b92560405160405180910390a45050565b6000611dfd82611d67565b611e5e5760405162461bcd60e51b815260206004820152602c60248201527f4552433732313a206f70657261746f7220717565727920666f72206e6f6e657860448201526b34b9ba32b73a103a37b5b2b760a11b6064820152608401610914565b6000611e698361115c565b9050806001600160a01b0316846001600160a01b03161480611ea45750836001600160a01b0316611e99846109ff565b6001600160a01b0316145b80611ed457506001600160a01b0380821660009081526005602090815260408083209388168352929052205460ff165b949350505050565b826001600160a01b0316611eef8261115c565b6001600160a01b031614611f575760405162461bcd60e51b815260206004820152602960248201527f4552433732313a207472616e73666572206f6620746f6b656e2074686174206960448201526839903737ba1037bbb760b91b6064820152608401610914565b6001600160a01b038216611fb95760405162461bcd60e51b8152602060048201526024808201527f4552433732313a207472616e7366657220746f20746865207a65726f206164646044820152637265737360e01b6064820152608401610914565b611fc48383836124da565b611fcf600082611d84565b6001600160a01b0383166000908152600360205260408120805460019290611ff89084906130a9565b90915550506001600160a01b0382166000908152600360205260408120805460019290612026908490612f8e565b909155505060008181526002602052604080822080546001600160a01b0319166001600160a01b0386811691821790925591518493918716917fddf252ad1be2c89b69c2b068fc378daa952ba7f163c4a11628f55a4df523b3ef91a4505050565b60006120938383612592565b50600192915050565b600b80546001600160a01b038381166001600160a01b0319831681179093556040519116919082907f8be0079c531659141344cd1fd0a4f28419497f9722a3daafe3b4186f6b6457e090600090a35050565b816001600160a01b0316836001600160a01b031614156121505760405162461bcd60e51b815260206004820152601960248201527f4552433732313a20617070726f766520746f2063616c6c6572000000000000006044820152606401610914565b6001600160a01b03838116600081815260056020908152604080832094871680845294825291829020805460ff191686151590811790915591519182527f17307eab39ab6107e8899845ad3d59bd9653f200f220920489ca2b5937696c31910160405180910390a3505050565b6121c8848484611edc565b6121d4848484846125ac565b61184a5760405162461bcd60e51b815260040161091490613380565b60606000600d60019054906101000a90046001600160a01b03169050806001600160a01b0316631a0925416040518163ffffffff1660e01b8152600401600060405180830381865afa15801561224a573d6000803e3d6000fd5b505050506040513d6000823e601f3d908101601f19168201604052612272919081019061304b565b91505090565b60608161229c5750506040805180820190915260018152600360fc1b602082015290565b8160005b81156122c657806122b081612eb2565b91506122bf9050600a83613095565b91506122a0565b6000816001600160401b038111156122e0576122e0612c66565b6040519080825280601f01601f19166020018201604052801561230a576020820181803683370190505b5090505b8415611ed45761231f6001836130a9565b915061232c600a866133d2565b612337906030612f8e565b60f81b81838151811061234c5761234c612e86565b60200101906001600160f81b031916908160001a90535061236e600a86613095565b945061230e565b805160609080612395575050604080516020810190915260008152919050565b600060036123a4836002612f8e565b6123ae9190613095565b6123b9906004612fa6565b905060006123c8826020612f8e565b6001600160401b038111156123df576123df612c66565b6040519080825280601f01601f191660200182016040528015612409576020820181803683370190505b5090506000604051806060016040528060408152602001613457604091399050600181016020830160005b86811015612495576003818a01810151603f601282901c8116860151600c83901c8216870151600684901c831688015192909316870151600891821b60ff94851601821b92841692909201901b91160160e01b835260049092019101612434565b5060038606600181146124af57600281146124c0576124cc565b613d3d60f01b6001198301526124cc565b603d60f81b6000198301525b505050918152949350505050565b6001600160a01b0383166125355761253081600880546000838152600960205260408120829055600182018355919091527ff3f7a9fe364faab93b216da50a3214154f22a0a2b415b23a84c8169e8b636ee30155565b612558565b816001600160a01b0316836001600160a01b0316146125585761255883826126aa565b6001600160a01b03821661256f57610b9881612747565b826001600160a01b0316826001600160a01b031614610b9857610b9882826127f6565b61148282826040518060200160405280600081525061283a565b60006001600160a01b0384163b1561269f57604051630a85bd0160e11b81526001600160a01b0385169063150b7a02906125f09033908990889088906004016133e6565b6020604051808303816000875af192505050801561262b575060408051601f3d908101601f1916820190925261262891810190613423565b60015b612685573d808015612659576040519150601f19603f3d011682016040523d82523d6000602084013e61265e565b606091505b50805161267d5760405162461bcd60e51b815260040161091490613380565b805181602001fd5b6001600160e01b031916630a85bd0160e11b149050611ed4565b506001949350505050565b600060016126b7846111d3565b6126c191906130a9565b600083815260076020526040902054909150808214612714576001600160a01b03841660009081526006602090815260408083208584528252808320548484528184208190558352600790915290208190555b5060009182526007602090815260408084208490556001600160a01b039094168352600681528383209183525290812055565b600854600090612759906001906130a9565b6000838152600960205260408120546008805493945090928490811061278157612781612e86565b9060005260206000200154905080600883815481106127a2576127a2612e86565b60009182526020808320909101929092558281526009909152604080822084905585825281205560088054806127da576127da613440565b6001900381819060005260206000200160009055905550505050565b6000612801836111d3565b6001600160a01b039093166000908152600660209081526040808320868452825280832085905593825260079052919091209190915550565b612844838361286d565b61285160008484846125ac565b610b985760405162461bcd60e51b815260040161091490613380565b6001600160a01b0382166128c35760405162461bcd60e51b815260206004820181905260248201527f4552433732313a206d696e7420746f20746865207a65726f20616464726573736044820152606401610914565b6128cc81611d67565b156129195760405162461bcd60e51b815260206004820152601c60248201527f4552433732313a20746f6b656e20616c7265616479206d696e746564000000006044820152606401610914565b612925600083836124da565b6001600160a01b038216600090815260036020526040812080546001929061294e908490612f8e565b909155505060008181526002602052604080822080546001600160a01b0319166001600160a01b03861690811790915590518392907fddf252ad1be2c89b69c2b068fc378daa952ba7f163c4a11628f55a4df523b3ef908290a45050565b6001600160e01b031981168114611bfd57600080fd5b6000602082840312156129d457600080fd5b8135611424816129ac565b60008083601f8401126129f157600080fd5b5081356001600160401b03811115612a0857600080fd5b6020830191508360208260051b8501011115612a2357600080fd5b9250929050565b6001600160a01b0381168114611bfd57600080fd5b600080600060408486031215612a5457600080fd5b83356001600160401b03811115612a6a57600080fd5b612a76868287016129df565b9094509250506020840135612a8a81612a2a565b809150509250925092565b60005b83811015612ab0578181015183820152602001612a98565b8381111561184a5750506000910152565b60008151808452612ad9816020860160208601612a95565b601f01601f19169290920160200192915050565b6020815260006114246020830184612ac1565b600060208284031215612b1257600080fd5b5035919050565b60008060408385031215612b2c57600080fd5b8235612b3781612a2a565b946020939093013593505050565b600080600060608486031215612b5a57600080fd5b8335612b6581612a2a565b92506020840135612b7581612a2a565b929592945050506040919091013590565b600060208284031215612b9857600080fd5b813561142481612a2a565b6020808252825182820181905260009190848201906040850190845b81811015612bdb57835183529284019291840191600101612bbf565b50909695505050505050565b60008060408385031215612bfa57600080fd5b8235612c0581612a2a565b915060208301358015158114612c1a57600080fd5b809150509250929050565b60008060208385031215612c3857600080fd5b82356001600160401b03811115612c4e57600080fd5b612c5a858286016129df565b90969095509350505050565b634e487b7160e01b600052604160045260246000fd5b604051601f8201601f191681016001600160401b0381118282101715612ca457612ca4612c66565b604052919050565b60006001600160401b03821115612cc557612cc5612c66565b50601f01601f191660200190565b60008060008060808587031215612ce957600080fd5b8435612cf481612a2a565b93506020850135612d0481612a2a565b92506040850135915060608501356001600160401b03811115612d2657600080fd5b8501601f81018713612d3757600080fd5b8035612d4a612d4582612cac565b612c7c565b818152886020838501011115612d5f57600080fd5b8160208401602083013760006020838301015280935050505092959194509250565b634e487b7160e01b600052602160045260246000fd5b6020810160048310612db957634e487b7160e01b600052602160045260246000fd5b91905290565b6000602080830181845280855180835260408601915060408160051b870101925083870160005b82811015612e1457603f19888603018452612e02858351612ac1565b94509285019290850190600101612de6565b5092979650505050505050565b60008060408385031215612e3457600080fd5b8235612e3f81612a2a565b91506020830135612c1a81612a2a565b6020808252601f908201527f5265656e7472616e637947756172643a207265656e7472616e742063616c6c00604082015260600190565b634e487b7160e01b600052603260045260246000fd5b634e487b7160e01b600052601160045260246000fd5b6000600019821415612ec657612ec6612e9c565b5060010190565b600181811c90821680612ee157607f821691505b60208210811415612f0257634e487b7160e01b600052602260045260246000fd5b50919050565b6020808252818101527f4f776e61626c653a2063616c6c6572206973206e6f7420746865206f776e6572604082015260600190565b60208082526031908201527f4552433732313a207472616e736665722063616c6c6572206973206e6f74206f6040820152701ddb995c881b9bdc88185c1c1c9bdd9959607a1b606082015260800190565b60008219821115612fa157612fa1612e9c565b500190565b6000816000190483118215151615612fc057612fc0612e9c565b500290565b60208082526021908201527f4e5444414f2d4e46543a20546f6b656e4964206e6f74206d696e7465642079656040820152601d60fa1b606082015260800190565b600082601f83011261301757600080fd5b8151613025612d4582612cac565b81815284602083860101111561303a57600080fd5b611ed4826020830160208701612a95565b60006020828403121561305d57600080fd5b81516001600160401b0381111561307357600080fd5b611ed484828501613006565b634e487b7160e01b600052601260045260246000fd5b6000826130a4576130a461307f565b500490565b6000828210156130bb576130bb612e9c565b500390565b7f7b226e616d65223a20224e6174696f6e616c2054726561737572652044414f208152644e4654202360d81b602082015260008551613106816025850160208a01612a95565b7001116101130ba3a3934b13aba32b9911d1607d1b6025918401918201528551613137816036840160208a01612a95565b711610113232b9b1b934b83a34b7b7111d101160711b60369290910191820152845161316a816048840160208901612a95565b6025818301019150506c1116101134b6b0b3b2911d101160991b6023820152835161319c816030840160208801612a95565b6131b360308383010161227d60f01b815260020190565b98975050505050505050565b7f646174613a6170706c69636174696f6e2f6a736f6e3b6261736536342c0000008152600082516131f781601d850160208701612a95565b91909101601d0192915050565b60006001600160401b0382111561321d5761321d612c66565b5060051b60200190565b6000602080838503121561323a57600080fd5b82516001600160401b0381111561325057600080fd5b8301601f8101851361326157600080fd5b805161326f612d4582613204565b81815260059190911b8201830190838101908783111561328e57600080fd5b928401925b828410156132ac57835182529284019290840190613293565b979650505050505050565b600060208083850312156132ca57600080fd5b82516001600160401b03808211156132e157600080fd5b818501915085601f8301126132f557600080fd5b8151613303612d4582613204565b81815260059190911b8301840190848101908883111561332257600080fd5b8585015b8381101561335a5780518581111561333e5760008081fd5b61334c8b89838a0101613006565b845250918601918601613326565b5098975050505050505050565b60006020828403121561337957600080fd5b5051919050565b60208082526032908201527f4552433732313a207472616e7366657220746f206e6f6e20455243373231526560408201527131b2b4bb32b91034b6b83632b6b2b73a32b960711b606082015260800190565b6000826133e1576133e161307f565b500690565b6001600160a01b038581168252841660208201526040810183905260806060820181905260009061341990830184612ac1565b9695505050505050565b60006020828403121561343557600080fd5b8151611424816129ac565b634e487b7160e01b600052603160045260246000fdfe4142434445464748494a4b4c4d4e4f505152535455565758595a6162636465666768696a6b6c6d6e6f707172737475767778797a303132333435363738392b2fa26469706673582212201c0ac9b37b76716223a4e1d4caf3af766b9db04e87ccda128855770b1699196064736f6c634300080a0033",
  "linkReferences": {},
  "deployedLinkReferences": {}
}