{
  "_format": "hh-sol-artifact-1",
  "contractName": "NTDaoNft",
  "sourceName": "contracts/NTDaoNft.sol",
  "abi": [
    {
      "inputs": [
        {
          "internalType": "string",
          "name": "baseImgUrl_",
          "type": "string"
        }
      ],
      "stateMutability": "nonpayable",
      "type": "constructor"
    },
    {
      "anonymous": false,
      "inputs": [
        {
          "indexed": true,
          "internalType": "address",
          "name": "owner",
          "type": "address"
        },
        {
          "indexed": true,
          "internalType": "address",
          "name": "approved",
          "type": "address"
        },
        {
          "indexed": true,
          "internalType": "uint256",
          "name": "tokenId",
          "type": "uint256"
        }
      ],
      "name": "Approval",
      "type": "event"
    },
    {
      "anonymous": false,
      "inputs": [
        {
          "indexed": true,
          "internalType": "address",
          "name": "owner",
          "type": "address"
        },
        {
          "indexed": true,
          "internalType": "address",
          "name": "operator",
          "type": "address"
        },
        {
          "indexed": false,
          "internalType": "bool",
          "name": "approved",
          "type": "bool"
        }
      ],
      "name": "ApprovalForAll",
      "type": "event"
    },
    {
      "anonymous": false,
      "inputs": [
        {
          "indexed": false,
          "internalType": "address",
          "name": "recipient",
          "type": "address"
        },
        {
          "indexed": false,
          "internalType": "uint256",
          "name": "amount",
          "type": "uint256"
        }
      ],
      "name": "BalanceWithdraw",
      "type": "event"
    },
    {
      "anonymous": false,
      "inputs": [
        {
          "indexed": true,
          "internalType": "address",
          "name": "previousOwner",
          "type": "address"
        },
        {
          "indexed": true,
          "internalType": "address",
          "name": "newOwner",
          "type": "address"
        }
      ],
      "name": "OwnershipTransferred",
      "type": "event"
    },
    {
      "anonymous": false,
      "inputs": [
        {
          "indexed": false,
          "internalType": "address",
          "name": "caller",
          "type": "address"
        },
        {
          "indexed": false,
          "internalType": "uint256",
          "name": "amount",
          "type": "uint256"
        },
        {
          "indexed": false,
          "internalType": "string",
          "name": "message",
          "type": "string"
        }
      ],
      "name": "Received",
      "type": "event"
    },
    {
      "anonymous": false,
      "inputs": [
        {
          "indexed": true,
          "internalType": "address",
          "name": "to",
          "type": "address"
        },
        {
          "indexed": true,
          "internalType": "uint256",
          "name": "tokenId",
          "type": "uint256"
        },
        {
          "indexed": false,
          "internalType": "uint256",
          "name": "amount",
          "type": "uint256"
        }
      ],
      "name": "Refunded",
      "type": "event"
    },
    {
      "anonymous": false,
      "inputs": [
        {
          "indexed": false,
          "internalType": "enum NTDaoNft.State",
          "name": "_state",
          "type": "uint8"
        }
      ],
      "name": "StateChanged",
      "type": "event"
    },
    {
      "anonymous": false,
      "inputs": [
        {
          "indexed": true,
          "internalType": "address",
          "name": "from",
          "type": "address"
        },
        {
          "indexed": true,
          "internalType": "address",
          "name": "to",
          "type": "address"
        },
        {
          "indexed": true,
          "internalType": "uint256",
          "name": "tokenId",
          "type": "uint256"
        }
      ],
      "name": "Transfer",
      "type": "event"
    },
    {
      "stateMutability": "payable",
      "type": "fallback"
    },
    {
      "inputs": [],
      "name": "MAX_PUBLIC_ID",
      "outputs": [
        {
          "internalType": "uint16",
          "name": "",
          "type": "uint16"
        }
      ],
      "stateMutability": "view",
      "type": "function"
    },
    {
      "inputs": [],
      "name": "MAX_PUBLIC_MULTI",
      "outputs": [
        {
          "internalType": "uint8",
          "name": "",
          "type": "uint8"
        }
      ],
      "stateMutability": "view",
      "type": "function"
    },
    {
      "inputs": [],
      "name": "MINTING_FEE",
      "outputs": [
        {
          "internalType": "uint256",
          "name": "",
          "type": "uint256"
        }
      ],
      "stateMutability": "view",
      "type": "function"
    },
    {
      "inputs": [
        {
          "internalType": "address",
          "name": "to",
          "type": "address"
        },
        {
          "internalType": "uint256",
          "name": "tokenId",
          "type": "uint256"
        }
      ],
      "name": "approve",
      "outputs": [],
      "stateMutability": "nonpayable",
      "type": "function"
    },
    {
      "inputs": [
        {
          "internalType": "address",
          "name": "owner",
          "type": "address"
        }
      ],
      "name": "balanceOf",
      "outputs": [
        {
          "internalType": "uint256",
          "name": "",
          "type": "uint256"
        }
      ],
      "stateMutability": "view",
      "type": "function"
    },
    {
      "inputs": [],
      "name": "changeToPermanent",
      "outputs": [],
      "stateMutability": "nonpayable",
      "type": "function"
    },
    {
      "inputs": [
        {
          "internalType": "uint256",
          "name": "tokenId",
          "type": "uint256"
        }
      ],
      "name": "getApproved",
      "outputs": [
        {
          "internalType": "address",
          "name": "",
          "type": "address"
        }
      ],
      "stateMutability": "view",
      "type": "function"
    },
    {
      "inputs": [],
      "name": "getBalance",
      "outputs": [
        {
          "internalType": "uint256",
          "name": "",
          "type": "uint256"
        }
      ],
      "stateMutability": "view",
      "type": "function"
    },
    {
      "inputs": [
        {
          "internalType": "uint256",
          "name": "_tokenId",
          "type": "uint256"
        }
      ],
      "name": "getBaseGeneNames",
      "outputs": [
        {
          "internalType": "string[]",
          "name": "",
          "type": "string[]"
        }
      ],
      "stateMutability": "view",
      "type": "function"
    },
    {
      "inputs": [
        {
          "internalType": "uint256",
          "name": "_tokenId",
          "type": "uint256"
        }
      ],
      "name": "getBaseGenes",
      "outputs": [
        {
          "internalType": "uint256[]",
          "name": "",
          "type": "uint256[]"
        }
      ],
      "stateMutability": "view",
      "type": "function"
    },
    {
      "inputs": [
        {
          "internalType": "uint256",
          "name": "_tokenId",
          "type": "uint256"
        }
      ],
      "name": "getImgIdx",
      "outputs": [
        {
          "internalType": "string",
          "name": "",
          "type": "string"
        }
      ],
      "stateMutability": "view",
      "type": "function"
    },
    {
      "inputs": [
        {
          "internalType": "uint256",
          "name": "_tokenId",
          "type": "uint256"
        }
      ],
      "name": "getImgUrl",
      "outputs": [
        {
          "internalType": "string",
          "name": "",
          "type": "string"
        }
      ],
      "stateMutability": "view",
      "type": "function"
    },
    {
      "inputs": [],
      "name": "getMintingState",
      "outputs": [
        {
          "internalType": "uint8",
          "name": "",
          "type": "uint8"
        }
      ],
      "stateMutability": "view",
      "type": "function"
    },
    {
      "inputs": [
        {
          "internalType": "uint256",
          "name": "_tokenId",
          "type": "uint256"
        }
      ],
      "name": "getSeed",
      "outputs": [
        {
          "internalType": "uint256",
          "name": "",
          "type": "uint256"
        }
      ],
      "stateMutability": "view",
      "type": "function"
    },
    {
      "inputs": [
        {
          "internalType": "address",
          "name": "owner",
          "type": "address"
        },
        {
          "internalType": "address",
          "name": "operator",
          "type": "address"
        }
      ],
      "name": "isApprovedForAll",
      "outputs": [
        {
          "internalType": "bool",
          "name": "",
          "type": "bool"
        }
      ],
      "stateMutability": "view",
      "type": "function"
    },
    {
      "inputs": [],
      "name": "isPermanent",
      "outputs": [
        {
          "internalType": "bool",
          "name": "",
          "type": "bool"
        }
      ],
      "stateMutability": "view",
      "type": "function"
    },
    {
      "inputs": [],
      "name": "name",
      "outputs": [
        {
          "internalType": "string",
          "name": "",
          "type": "string"
        }
      ],
      "stateMutability": "view",
      "type": "function"
    },
    {
      "inputs": [],
      "name": "owner",
      "outputs": [
        {
          "internalType": "address",
          "name": "",
          "type": "address"
        }
      ],
      "stateMutability": "view",
      "type": "function"
    },
    {
      "inputs": [
        {
          "internalType": "uint256",
          "name": "tokenId",
          "type": "uint256"
        }
      ],
      "name": "ownerOf",
      "outputs": [
        {
          "internalType": "address",
          "name": "",
          "type": "address"
        }
      ],
      "stateMutability": "view",
      "type": "function"
    },
    {
      "inputs": [
        {
          "internalType": "uint256",
          "name": "_count",
          "type": "uint256"
        }
      ],
      "name": "publicMint",
      "outputs": [],
      "stateMutability": "payable",
      "type": "function"
    },
    {
      "inputs": [
        {
          "internalType": "uint256[]",
          "name": "tokenIds_",
          "type": "uint256[]"
        }
      ],
      "name": "refund",
      "outputs": [],
      "stateMutability": "nonpayable",
      "type": "function"
    },
    {
      "inputs": [
        {
          "internalType": "uint256",
          "name": "",
          "type": "uint256"
        }
      ],
      "name": "refunds",
      "outputs": [
        {
          "internalType": "bool",
          "name": "",
          "type": "bool"
        }
      ],
      "stateMutability": "view",
      "type": "function"
    },
    {
      "inputs": [],
      "name": "renounceOwnership",
      "outputs": [],
      "stateMutability": "nonpayable",
      "type": "function"
    },
    {
      "inputs": [
        {
          "internalType": "address",
          "name": "from",
          "type": "address"
        },
        {
          "internalType": "address",
          "name": "to",
          "type": "address"
        },
        {
          "internalType": "uint256",
          "name": "tokenId",
          "type": "uint256"
        }
      ],
      "name": "safeTransferFrom",
      "outputs": [],
      "stateMutability": "nonpayable",
      "type": "function"
    },
    {
      "inputs": [
        {
          "internalType": "address",
          "name": "from",
          "type": "address"
        },
        {
          "internalType": "address",
          "name": "to",
          "type": "address"
        },
        {
          "internalType": "uint256",
          "name": "tokenId",
          "type": "uint256"
        },
        {
          "internalType": "bytes",
          "name": "_data",
          "type": "bytes"
        }
      ],
      "name": "safeTransferFrom",
      "outputs": [],
      "stateMutability": "nonpayable",
      "type": "function"
    },
    {
      "inputs": [
        {
          "internalType": "address",
          "name": "operator",
          "type": "address"
        },
        {
          "internalType": "bool",
          "name": "approved",
          "type": "bool"
        }
      ],
      "name": "setApprovalForAll",
      "outputs": [],
      "stateMutability": "nonpayable",
      "type": "function"
    },
    {
      "inputs": [],
      "name": "setStateToFinished",
      "outputs": [],
      "stateMutability": "nonpayable",
      "type": "function"
    },
    {
      "inputs": [],
      "name": "setStateToPublicMint",
      "outputs": [],
      "stateMutability": "nonpayable",
      "type": "function"
    },
    {
      "inputs": [],
      "name": "setStateToRefund",
      "outputs": [],
      "stateMutability": "nonpayable",
      "type": "function"
    },
    {
      "inputs": [],
      "name": "setStateToSetup",
      "outputs": [],
      "stateMutability": "nonpayable",
      "type": "function"
    },
    {
      "inputs": [],
      "name": "state",
      "outputs": [
        {
          "internalType": "enum NTDaoNft.State",
          "name": "",
          "type": "uint8"
        }
      ],
      "stateMutability": "view",
      "type": "function"
    },
    {
      "inputs": [
        {
          "internalType": "bytes4",
          "name": "interfaceId",
          "type": "bytes4"
        }
      ],
      "name": "supportsInterface",
      "outputs": [
        {
          "internalType": "bool",
          "name": "",
          "type": "bool"
        }
      ],
      "stateMutability": "view",
      "type": "function"
    },
    {
      "inputs": [],
      "name": "symbol",
      "outputs": [
        {
          "internalType": "string",
          "name": "",
          "type": "string"
        }
      ],
      "stateMutability": "view",
      "type": "function"
    },
    {
      "inputs": [
        {
          "internalType": "uint256",
          "name": "index",
          "type": "uint256"
        }
      ],
      "name": "tokenByIndex",
      "outputs": [
        {
          "internalType": "uint256",
          "name": "",
          "type": "uint256"
        }
      ],
      "stateMutability": "view",
      "type": "function"
    },
    {
      "inputs": [
        {
          "internalType": "address",
          "name": "owner",
          "type": "address"
        },
        {
          "internalType": "uint256",
          "name": "index",
          "type": "uint256"
        }
      ],
      "name": "tokenOfOwnerByIndex",
      "outputs": [
        {
          "internalType": "uint256",
          "name": "",
          "type": "uint256"
        }
      ],
      "stateMutability": "view",
      "type": "function"
    },
    {
      "inputs": [
        {
          "internalType": "uint256",
          "name": "_tokenId",
          "type": "uint256"
        }
      ],
      "name": "tokenURI",
      "outputs": [
        {
          "internalType": "string",
          "name": "",
          "type": "string"
        }
      ],
      "stateMutability": "view",
      "type": "function"
    },
    {
      "inputs": [
        {
          "internalType": "address",
          "name": "_account",
          "type": "address"
        }
      ],
      "name": "tokensOf",
      "outputs": [
        {
          "internalType": "uint256[]",
          "name": "",
          "type": "uint256[]"
        }
      ],
      "stateMutability": "view",
      "type": "function"
    },
    {
      "inputs": [],
      "name": "totalSupply",
      "outputs": [
        {
          "internalType": "uint256",
          "name": "",
          "type": "uint256"
        }
      ],
      "stateMutability": "view",
      "type": "function"
    },
    {
      "inputs": [
        {
          "internalType": "uint256[]",
          "name": "tokenIds_",
          "type": "uint256[]"
        },
        {
          "internalType": "address",
          "name": "_to",
          "type": "address"
        }
      ],
      "name": "transferBatch",
      "outputs": [],
      "stateMutability": "nonpayable",
      "type": "function"
    },
    {
      "inputs": [
        {
          "internalType": "address",
          "name": "from",
          "type": "address"
        },
        {
          "internalType": "address",
          "name": "to",
          "type": "address"
        },
        {
          "internalType": "uint256",
          "name": "tokenId",
          "type": "uint256"
        }
      ],
      "name": "transferFrom",
      "outputs": [],
      "stateMutability": "nonpayable",
      "type": "function"
    },
    {
      "inputs": [
        {
          "internalType": "address",
          "name": "newOwner",
          "type": "address"
        }
      ],
      "name": "transferOwnership",
      "outputs": [],
      "stateMutability": "nonpayable",
      "type": "function"
    },
    {
      "inputs": [
        {
          "internalType": "string",
          "name": "_url",
          "type": "string"
        }
      ],
      "name": "updateBaseImgUrl",
      "outputs": [],
      "stateMutability": "nonpayable",
      "type": "function"
    },
    {
      "inputs": [
        {
          "internalType": "address",
          "name": "geneContract_",
          "type": "address"
        }
      ],
      "name": "updateGene",
      "outputs": [],
      "stateMutability": "nonpayable",
      "type": "function"
    },
    {
      "inputs": [
        {
          "internalType": "uint256",
          "name": "_feeAmount",
          "type": "uint256"
        }
      ],
      "name": "updateMintingFee",
      "outputs": [],
      "stateMutability": "nonpayable",
      "type": "function"
    },
    {
      "inputs": [
        {
          "internalType": "address payable",
          "name": "_to",
          "type": "address"
        },
        {
          "internalType": "uint256",
          "name": "_amount",
          "type": "uint256"
        }
      ],
      "name": "withdraw",
      "outputs": [],
      "stateMutability": "nonpayable",
      "type": "function"
    },
    {
      "stateMutability": "payable",
      "type": "receive"
    }
  ],
  "bytecode": "0x68056bc75e2d63100000600f5560a0604081905260006080819052620000289160109162000161565b503480156200003657600080fd5b5060405162003a9238038062003a9283398101604081905262000059916200021d565b604080518082018252601981527f4e6174696f6e616c2054726561737572652044414f204e4654000000000000006020808301918252835180850190945260098452681395111053cb53919560ba1b908401528151919291620000bf9160009162000161565b508051620000d590600190602084019062000161565b50506001600a5550620000e8336200010f565b8051620000fd90601090602084019062000161565b5050600d805460ff1916905562000336565b600b80546001600160a01b038381166001600160a01b0319831681179093556040519116919082907f8be0079c531659141344cd1fd0a4f28419497f9722a3daafe3b4186f6b6457e090600090a35050565b8280546200016f90620002f9565b90600052602060002090601f016020900481019282620001935760008555620001de565b82601f10620001ae57805160ff1916838001178555620001de565b82800160010185558215620001de579182015b82811115620001de578251825591602001919060010190620001c1565b50620001ec929150620001f0565b5090565b5b80821115620001ec5760008155600101620001f1565b634e487b7160e01b600052604160045260246000fd5b600060208083850312156200023157600080fd5b82516001600160401b03808211156200024957600080fd5b818501915085601f8301126200025e57600080fd5b81518181111562000273576200027362000207565b604051601f8201601f19908116603f011681019083821181831017156200029e576200029e62000207565b816040528281528886848701011115620002b757600080fd5b600093505b82841015620002db5784840186015181850187015292850192620002bc565b82841115620002ed5760008684830101525b98975050505050505050565b600181811c908216806200030e57607f821691505b602082108114156200033057634e487b7160e01b600052602260045260246000fd5b50919050565b61374c80620003466000396000f3fe6080604052600436106102765760003560e01c806372769e6f1161014f578063c084d542116100c1578063e0d4ea371161007a578063e0d4ea37146107e2578063e36bd0f314610802578063e985e9c514610832578063f2fde38b1461087b578063f3b900451461089b578063f3fef3a3146108b0576102ec565b8063c084d54214610718578063c19d93fb14610738578063c87b56dd1461075f578063cf2defeb1461077f578063d08fd6eb1461079f578063d642b4b1146107cc576102ec565b80639f0568e6116101135780639f0568e61461066e578063a22cb46514610683578063aa613df5146106a3578063b0384ea1146106c3578063b88d4fde146106d8578063c0275a25146106f8576102ec565b806372769e6f146105e557806378bff498146105fa5780637be33c091461061b5780638da5cb5b1461063b57806395d89b4114610659576102ec565b80632f745c59116101e85780635555c402116101ac5780635555c4021461051a5780635a3f26721461053a5780636352211e146105675780636c0e693a1461058757806370a08231146105b0578063715018a6146105d0576102ec565b80632f745c59146104855780633c45d706146104a557806342842e0e146104c55780634e371a6e146104e55780634f6ccce7146104fa576102ec565b806312065fe01161023a57806312065fe0146103e457806318160ddd1461040157806323af88271461041657806323b872dd1461042b57806327701f751461044b5780632db1154414610472576102ec565b806301ffc9a7146103135780630202def11461034857806306fdde031461036a578063081812fc1461038c578063095ea7b3146103c4576102ec565b366102ec577f59e04c3f0d44b7caf6e8ef854b61d9a51cf1960d7a88ff6356cc5e946b4b5832335b604080516001600160a01b03909216825234602083015260609082018190526013908201527211985b1b189858dac81dd85cc818d85b1b1959606a1b608082015260a00160405180910390a1005b7f59e04c3f0d44b7caf6e8ef854b61d9a51cf1960d7a88ff6356cc5e946b4b58323361029e565b34801561031f57600080fd5b5061033361032e366004612b15565b6108d0565b60405190151581526020015b60405180910390f35b34801561035457600080fd5b50610368610363366004612b92565b6108fb565b005b34801561037657600080fd5b5061037f610977565b60405161033f9190612c40565b34801561039857600080fd5b506103ac6103a7366004612c53565b610a09565b6040516001600160a01b03909116815260200161033f565b3480156103d057600080fd5b506103686103df366004612c6c565b610a91565b3480156103f057600080fd5b50475b60405190815260200161033f565b34801561040d57600080fd5b506008546103f3565b34801561042257600080fd5b50610368610ba7565b34801561043757600080fd5b50610368610446366004612c98565b610be8565b34801561045757600080fd5b50610460610c19565b60405160ff909116815260200161033f565b610368610480366004612c53565b610ca4565b34801561049157600080fd5b506103f36104a0366004612c6c565b610f28565b3480156104b157600080fd5b506103686104c0366004612d84565b610fbe565b3480156104d157600080fd5b506103686104e0366004612c98565b611063565b3480156104f157600080fd5b5061036861107e565b34801561050657600080fd5b506103f3610515366004612c53565b6110bc565b34801561052657600080fd5b5061037f610535366004612c53565b61114f565b34801561054657600080fd5b5061055a610555366004612dcc565b6111f5565b60405161033f9190612de9565b34801561057357600080fd5b506103ac610582366004612c53565b611298565b34801561059357600080fd5b5061059d614e2081565b60405161ffff909116815260200161033f565b3480156105bc57600080fd5b506103f36105cb366004612dcc565b61130f565b3480156105dc57600080fd5b50610368611396565b3480156105f157600080fd5b506103686113cc565b34801561060657600080fd5b50600e5461033390600160a01b900460ff1681565b34801561062757600080fd5b50610368610636366004612dcc565b61140b565b34801561064757600080fd5b50600b546001600160a01b03166103ac565b34801561066557600080fd5b5061037f6114c1565b34801561067a57600080fd5b506103686114d0565b34801561068f57600080fd5b5061036861069e366004612e2d565b61150d565b3480156106af57600080fd5b506103686106be366004612e6b565b611518565b3480156106cf57600080fd5b5061036861183b565b3480156106e457600080fd5b506103686106f3366004612eac565b611879565b34801561070457600080fd5b50610368610713366004612c53565b6118b1565b34801561072457600080fd5b5061037f610733366004612c53565b6118e0565b34801561074457600080fd5b50600d546107529060ff1681565b60405161033f9190612f41565b34801561076b57600080fd5b5061037f61077a366004612c53565b611939565b34801561078b57600080fd5b5061055a61079a366004612c53565b6119eb565b3480156107ab57600080fd5b506107bf6107ba366004612c53565b611a89565b60405161033f9190612f69565b3480156107d857600080fd5b506103f3600f5481565b3480156107ee57600080fd5b506103f36107fd366004612c53565b611b27565b34801561080e57600080fd5b5061033361081d366004612c53565b60116020526000908152604090205460ff1681565b34801561083e57600080fd5b5061033361084d366004612fcb565b6001600160a01b03918216600090815260056020908152604080832093909416825291909152205460ff1690565b34801561088757600080fd5b50610368610896366004612dcc565b611bc1565b3480156108a757600080fd5b50610460601481565b3480156108bc57600080fd5b506103686108cb366004612c6c565b611c5c565b60006001600160e01b0319821663780e9d6360e01b14806108f557506108f582611d73565b92915050565b6002600a5414156109275760405162461bcd60e51b815260040161091e90612ff9565b60405180910390fd5b6002600a5560005b8281101561096c5761095a338386868581811061094e5761094e613030565b90506020020135611063565b806109648161305c565b91505061092f565b50506001600a555050565b60606000805461098690613077565b80601f01602080910402602001604051908101604052809291908181526020018280546109b290613077565b80156109ff5780601f106109d4576101008083540402835291602001916109ff565b820191906000526020600020905b8154815290600101906020018083116109e257829003601f168201915b5050505050905090565b6000610a1482611dc3565b610a755760405162461bcd60e51b815260206004820152602c60248201527f4552433732313a20617070726f76656420717565727920666f72206e6f6e657860448201526b34b9ba32b73a103a37b5b2b760a11b606482015260840161091e565b506000908152600460205260409020546001600160a01b031690565b6000610a9c82611298565b9050806001600160a01b0316836001600160a01b03161415610b0a5760405162461bcd60e51b815260206004820152602160248201527f4552433732313a20617070726f76616c20746f2063757272656e74206f776e656044820152603960f91b606482015260840161091e565b336001600160a01b0382161480610b265750610b26813361084d565b610b985760405162461bcd60e51b815260206004820152603860248201527f4552433732313a20617070726f76652063616c6c6572206973206e6f74206f7760448201527f6e6572206e6f7220617070726f76656420666f7220616c6c0000000000000000606482015260840161091e565b610ba28383611de0565b505050565b600b546001600160a01b03163314610bd15760405162461bcd60e51b815260040161091e906130b2565b600d80546000919060ff19166001835b0217905550565b610bf23382611e4e565b610c0e5760405162461bcd60e51b815260040161091e906130e7565b610ba2838383611f38565b600080600d5460ff166003811115610c3357610c33612f2b565b1415610c3f5750600090565b6001600d5460ff166003811115610c5857610c58612f2b565b148015610c6e5750614e20610c6c600c5490565b105b15610c795750600190565b6002600d5460ff166003811115610c9257610c92612f2b565b1415610c9e5750600290565b50600390565b6002600a541415610cc75760405162461bcd60e51b815260040161091e90612ff9565b6002600a556001600d5460ff166003811115610ce557610ce5612f2b565b14610d405760405162461bcd60e51b815260206004820152602560248201527f4e5444414f2d4e46543a205374617465206973206e6f7420696e205075626c6960448201526418d35a5b9d60da1b606482015260840161091e565b6014811115610dac5760405162461bcd60e51b815260206004820152603260248201527f4e5444414f2d4e46543a204d696e74696e6720636f756e742065786365656473604482015271081b5bdc99481d1a185b88185b1b1bddd95960721b606482015260840161091e565b614e2081610db9600c5490565b610dc39190613138565b1115610e295760405162461bcd60e51b815260206004820152602f60248201527f4e5444414f2d4e46543a2043616e206e6f74206d696e74206d6f72652074686160448201526e1b8813505617d41550931250d7d251608a1b606482015260840161091e565b3481600f54610e389190613150565b14610e9c5760405162461bcd60e51b815260206004820152602e60248201527f4e5444414f2d4e46543a204d696e74696e672066656520616d6f756e7473206460448201526d37b2b9903737ba1036b0ba31b41760911b606482015260840161091e565b60005b81811015610f1f57610eb5600c80546001019055565b610ec133600c546120e3565b610f0d5760405162461bcd60e51b815260206004820152601960248201527f4e5444414f2d4e46543a206d696e74696e67206661696c656400000000000000604482015260640161091e565b80610f178161305c565b915050610e9f565b50506001600a55565b6000610f338361130f565b8210610f955760405162461bcd60e51b815260206004820152602b60248201527f455243373231456e756d657261626c653a206f776e657220696e646578206f7560448201526a74206f6620626f756e647360a81b606482015260840161091e565b506001600160a01b03919091166000908152600660209081526040808320938352929052205490565b600b546001600160a01b03163314610fe85760405162461bcd60e51b815260040161091e906130b2565b600e54600160a01b900460ff161561104c5760405162461bcd60e51b815260206004820152602160248201527f4e5444414f2d4e46543a20416c6c20696d6167657320617265206f6e206970666044820152607360f81b606482015260840161091e565b805161105f906010906020840190612a66565b5050565b610ba283838360405180602001604052806000815250611879565b600b546001600160a01b031633146110a85760405162461bcd60e51b815260040161091e906130b2565b600d80546002919060ff1916600183610be1565b60006110c760085490565b821061112a5760405162461bcd60e51b815260206004820152602c60248201527f455243373231456e756d657261626c653a20676c6f62616c20696e646578206f60448201526b7574206f6620626f756e647360a01b606482015260840161091e565b6008828154811061113d5761113d613030565b90600052602060002001549050919050565b606061115a82611dc3565b6111765760405162461bcd60e51b815260040161091e9061316f565b600d54604051632aaae20160e11b8152600481018490526101009091046001600160a01b0316908190635555c402906024015b600060405180830381865afa1580156111c6573d6000803e3d6000fd5b505050506040513d6000823e601f3d908101601f191682016040526111ee91908101906131f5565b9392505050565b606060006112028361130f565b6001600160401b0381111561121957611219612cd9565b604051908082528060200260200182016040528015611242578160200160208202803683370190505b50905060005b6112518461130f565b811015611291576112628482610f28565b82828151811061127457611274613030565b6020908102919091010152806112898161305c565b915050611248565b5092915050565b6000818152600260205260408120546001600160a01b0316806108f55760405162461bcd60e51b815260206004820152602960248201527f4552433732313a206f776e657220717565727920666f72206e6f6e657869737460448201526832b73a103a37b5b2b760b91b606482015260840161091e565b60006001600160a01b03821661137a5760405162461bcd60e51b815260206004820152602a60248201527f4552433732313a2062616c616e636520717565727920666f7220746865207a65604482015269726f206164647265737360b01b606482015260840161091e565b506001600160a01b031660009081526003602052604090205490565b600b546001600160a01b031633146113c05760405162461bcd60e51b815260040161091e906130b2565b6113ca60006120f8565b565b600b546001600160a01b031633146113f65760405162461bcd60e51b815260040161091e906130b2565b600e805460ff60a01b1916600160a01b179055565b600b546001600160a01b031633146114355760405162461bcd60e51b815260040161091e906130b2565b600e54600160a01b900460ff16156114995760405162461bcd60e51b815260206004820152602160248201527f4e5444414f2d4e46543a2047656e6520636f6e747261637420697320666978656044820152601960fa1b606482015260840161091e565b600d80546001600160a01b0390921661010002610100600160a81b0319909216919091179055565b60606001805461098690613077565b600b546001600160a01b031633146114fa5760405162461bcd60e51b815260040161091e906130b2565b600d80546001919060ff19168280610be1565b61105f33838361214a565b6002600a54141561153b5760405162461bcd60e51b815260040161091e90612ff9565b6002600a819055600d5460ff16600381111561155957611559612f2b565b146115b05760405162461bcd60e51b815260206004820152602160248201527f4e5444414f2d4e46543a205374617465206973206e6f7420696e20526566756e6044820152601960fa1b606482015260840161091e565b3360005b8281101561096c57601160008585848181106115d2576115d2613030565b602090810292909201358352508101919091526040016000205460ff16156116505760405162461bcd60e51b815260206004820152602b60248201527f4e5444414f2d4e46543a2054686520746f6b656e64496420697320616c72656160448201526a191e481c99599d5b99195960aa1b606482015260840161091e565b816001600160a01b031661167b85858481811061166f5761166f613030565b90506020020135611298565b6001600160a01b0316146116e15760405162461bcd60e51b815260206004820152602760248201527f4e5444414f2d4e46543a2054686520746f6b656e206f776e65722069732064696044820152661999995c995b9d60ca1b606482015260840161091e565b6001601160008686858181106116f9576116f9613030565b90506020020135815260200190815260200160002060006101000a81548160ff0219169083151502179055506000826001600160a01b0316600f5460405160006040518083038185875af1925050503d8060008114611774576040519150601f19603f3d011682016040523d82523d6000602084013e611779565b606091505b50509050806117ca5760405162461bcd60e51b815260206004820152601e60248201527f4e5444414f2d4e46543a204661696c656420746f2073656e6420636f696e0000604482015260640161091e565b8484838181106117dc576117dc613030565b90506020020135836001600160a01b03167f2dc8e290002f06fc0085bbca9dfb8b415cf4d1178950c72ff9ee8f4d8878ee66600f5460405161182091815260200190565b60405180910390a350806118338161305c565b9150506115b4565b600b546001600160a01b031633146118655760405162461bcd60e51b815260040161091e906130b2565b600d80546003919060ff1916600183610be1565b6118833383611e4e565b61189f5760405162461bcd60e51b815260040161091e906130e7565b6118ab84848484612219565b50505050565b600b546001600160a01b031633146118db5760405162461bcd60e51b815260040161091e906130b2565b600f55565b60606118eb82611dc3565b6119075760405162461bcd60e51b815260040161091e9061316f565b60106119128361224c565b604051602001611923929190613245565b6040516020818303038152906040529050919050565b606061194482611dc3565b6119605760405162461bcd60e51b815260040161091e9061316f565b600061196b83612349565b90506000611978846118e0565b905060006119846123a7565b905060006119be6119948761224c565b8584866040516020016119aa94939291906132ff565b60405160208183030381529060405261242f565b9050806040516020016119d191906133fe565b604051602081830303815290604052945050505050919050565b60606119f682611dc3565b611a125760405162461bcd60e51b815260040161091e9061316f565b600d5460405163cf2defeb60e01b8152600481018490526101009091046001600160a01b031690819063cf2defeb90602401600060405180830381865afa158015611a61573d6000803e3d6000fd5b505050506040513d6000823e601f3d908101601f191682016040526111ee9190810190613466565b6060611a9482611dc3565b611ab05760405162461bcd60e51b815260040161091e9061316f565b600d5460405163d08fd6eb60e01b8152600481018490526101009091046001600160a01b031690819063d08fd6eb90602401600060405180830381865afa158015611aff573d6000803e3d6000fd5b505050506040513d6000823e601f3d908101601f191682016040526111ee91908101906134f6565b6000611b3282611dc3565b611b4e5760405162461bcd60e51b815260040161091e9061316f565b600d5460405163e0d4ea3760e01b8152600481018490526101009091046001600160a01b031690819063e0d4ea3790602401602060405180830381865afa158015611b9d573d6000803e3d6000fd5b505050506040513d601f19601f820116820180604052508101906111ee91906135a6565b600b546001600160a01b03163314611beb5760405162461bcd60e51b815260040161091e906130b2565b6001600160a01b038116611c505760405162461bcd60e51b815260206004820152602660248201527f4f776e61626c653a206e6577206f776e657220697320746865207a65726f206160448201526564647265737360d01b606482015260840161091e565b611c59816120f8565b50565b600b546001600160a01b03163314611c865760405162461bcd60e51b815260040161091e906130b2565b47811115611c9357600080fd5b6000826001600160a01b03168260405160006040518083038185875af1925050503d8060008114611ce0576040519150601f19603f3d011682016040523d82523d6000602084013e611ce5565b606091505b5050905080611d2c5760405162461bcd60e51b81526020600482015260136024820152722330b4b632b2103a379039b2b7321031b7b4b760691b604482015260640161091e565b604080516001600160a01b0385168152602081018490527f8777844761eb456b028cf7f87fc8dcb146ad8eeafbc6f80f2d006e5cd9e5a745910160405180910390a1505050565b60006001600160e01b031982166380ac58cd60e01b1480611da457506001600160e01b03198216635b5e139f60e01b145b806108f557506301ffc9a760e01b6001600160e01b03198316146108f5565b6000908152600260205260409020546001600160a01b0316151590565b600081815260046020526040902080546001600160a01b0319166001600160a01b0384169081179091558190611e1582611298565b6001600160a01b03167f8c5be1e5ebec7d5bd14f71427d1e84f3dd0314c0f7b2291e5b200ac8c7c3b92560405160405180910390a45050565b6000611e5982611dc3565b611eba5760405162461bcd60e51b815260206004820152602c60248201527f4552433732313a206f70657261746f7220717565727920666f72206e6f6e657860448201526b34b9ba32b73a103a37b5b2b760a11b606482015260840161091e565b6000611ec583611298565b9050806001600160a01b0316846001600160a01b03161480611f005750836001600160a01b0316611ef584610a09565b6001600160a01b0316145b80611f3057506001600160a01b0380821660009081526005602090815260408083209388168352929052205460ff165b949350505050565b826001600160a01b0316611f4b82611298565b6001600160a01b031614611fb35760405162461bcd60e51b815260206004820152602960248201527f4552433732313a207472616e73666572206f6620746f6b656e2074686174206960448201526839903737ba1037bbb760b91b606482015260840161091e565b6001600160a01b0382166120155760405162461bcd60e51b8152602060048201526024808201527f4552433732313a207472616e7366657220746f20746865207a65726f206164646044820152637265737360e01b606482015260840161091e565b612020838383612594565b61202b600082611de0565b6001600160a01b03831660009081526003602052604081208054600192906120549084906135bf565b90915550506001600160a01b0382166000908152600360205260408120805460019290612082908490613138565b909155505060008181526002602052604080822080546001600160a01b0319166001600160a01b0386811691821790925591518493918716917fddf252ad1be2c89b69c2b068fc378daa952ba7f163c4a11628f55a4df523b3ef91a4505050565b60006120ef838361264c565b50600192915050565b600b80546001600160a01b038381166001600160a01b0319831681179093556040519116919082907f8be0079c531659141344cd1fd0a4f28419497f9722a3daafe3b4186f6b6457e090600090a35050565b816001600160a01b0316836001600160a01b031614156121ac5760405162461bcd60e51b815260206004820152601960248201527f4552433732313a20617070726f766520746f2063616c6c657200000000000000604482015260640161091e565b6001600160a01b03838116600081815260056020908152604080832094871680845294825291829020805460ff191686151590811790915591519182527f17307eab39ab6107e8899845ad3d59bd9653f200f220920489ca2b5937696c31910160405180910390a3505050565b612224848484611f38565b61223084848484612666565b6118ab5760405162461bcd60e51b815260040161091e906135d6565b6060816122705750506040805180820190915260018152600360fc1b602082015290565b8160005b811561229a57806122848161305c565b91506122939050600a8361363e565b9150612274565b6000816001600160401b038111156122b4576122b4612cd9565b6040519080825280601f01601f1916602001820160405280156122de576020820181803683370190505b5090505b8415611f30576122f36001836135bf565b9150612300600a86613652565b61230b906030613138565b60f81b81838151811061232057612320613030565b60200101906001600160f81b031916908160001a905350612342600a8661363e565b94506122e2565b606061235482611dc3565b6123705760405162461bcd60e51b815260040161091e9061316f565b600d54604051630ca706d560e41b8152600481018490526101009091046001600160a01b031690819063ca706d50906024016111a9565b60606000600d60019054906101000a90046001600160a01b03169050806001600160a01b0316631a0925416040518163ffffffff1660e01b8152600401600060405180830381865afa158015612401573d6000803e3d6000fd5b505050506040513d6000823e601f3d908101601f1916820160405261242991908101906131f5565b91505090565b80516060908061244f575050604080516020810190915260008152919050565b6000600361245e836002613138565b612468919061363e565b612473906004613150565b90506000612482826020613138565b6001600160401b0381111561249957612499612cd9565b6040519080825280601f01601f1916602001820160405280156124c3576020820181803683370190505b50905060006040518060600160405280604081526020016136d7604091399050600181016020830160005b8681101561254f576003818a01810151603f601282901c8116860151600c83901c8216870151600684901c831688015192909316870151600891821b60ff94851601821b92841692909201901b91160160e01b8352600490920191016124ee565b506003860660018114612569576002811461257a57612586565b613d3d60f01b600119830152612586565b603d60f81b6000198301525b505050918152949350505050565b6001600160a01b0383166125ef576125ea81600880546000838152600960205260408120829055600182018355919091527ff3f7a9fe364faab93b216da50a3214154f22a0a2b415b23a84c8169e8b636ee30155565b612612565b816001600160a01b0316836001600160a01b031614612612576126128382612764565b6001600160a01b03821661262957610ba281612801565b826001600160a01b0316826001600160a01b031614610ba257610ba282826128b0565b61105f8282604051806020016040528060008152506128f4565b60006001600160a01b0384163b1561275957604051630a85bd0160e11b81526001600160a01b0385169063150b7a02906126aa903390899088908890600401613666565b6020604051808303816000875af19250505080156126e5575060408051601f3d908101601f191682019092526126e2918101906136a3565b60015b61273f573d808015612713576040519150601f19603f3d011682016040523d82523d6000602084013e612718565b606091505b5080516127375760405162461bcd60e51b815260040161091e906135d6565b805181602001fd5b6001600160e01b031916630a85bd0160e11b149050611f30565b506001949350505050565b600060016127718461130f565b61277b91906135bf565b6000838152600760205260409020549091508082146127ce576001600160a01b03841660009081526006602090815260408083208584528252808320548484528184208190558352600790915290208190555b5060009182526007602090815260408084208490556001600160a01b039094168352600681528383209183525290812055565b600854600090612813906001906135bf565b6000838152600960205260408120546008805493945090928490811061283b5761283b613030565b90600052602060002001549050806008838154811061285c5761285c613030565b6000918252602080832090910192909255828152600990915260408082208490558582528120556008805480612894576128946136c0565b6001900381819060005260206000200160009055905550505050565b60006128bb8361130f565b6001600160a01b039093166000908152600660209081526040808320868452825280832085905593825260079052919091209190915550565b6128fe8383612927565b61290b6000848484612666565b610ba25760405162461bcd60e51b815260040161091e906135d6565b6001600160a01b03821661297d5760405162461bcd60e51b815260206004820181905260248201527f4552433732313a206d696e7420746f20746865207a65726f2061646472657373604482015260640161091e565b61298681611dc3565b156129d35760405162461bcd60e51b815260206004820152601c60248201527f4552433732313a20746f6b656e20616c7265616479206d696e74656400000000604482015260640161091e565b6129df60008383612594565b6001600160a01b0382166000908152600360205260408120805460019290612a08908490613138565b909155505060008181526002602052604080822080546001600160a01b0319166001600160a01b03861690811790915590518392907fddf252ad1be2c89b69c2b068fc378daa952ba7f163c4a11628f55a4df523b3ef908290a45050565b828054612a7290613077565b90600052602060002090601f016020900481019282612a945760008555612ada565b82601f10612aad57805160ff1916838001178555612ada565b82800160010185558215612ada579182015b82811115612ada578251825591602001919060010190612abf565b50612ae6929150612aea565b5090565b5b80821115612ae65760008155600101612aeb565b6001600160e01b031981168114611c5957600080fd5b600060208284031215612b2757600080fd5b81356111ee81612aff565b60008083601f840112612b4457600080fd5b5081356001600160401b03811115612b5b57600080fd5b6020830191508360208260051b8501011115612b7657600080fd5b9250929050565b6001600160a01b0381168114611c5957600080fd5b600080600060408486031215612ba757600080fd5b83356001600160401b03811115612bbd57600080fd5b612bc986828701612b32565b9094509250506020840135612bdd81612b7d565b809150509250925092565b60005b83811015612c03578181015183820152602001612beb565b838111156118ab5750506000910152565b60008151808452612c2c816020860160208601612be8565b601f01601f19169290920160200192915050565b6020815260006111ee6020830184612c14565b600060208284031215612c6557600080fd5b5035919050565b60008060408385031215612c7f57600080fd5b8235612c8a81612b7d565b946020939093013593505050565b600080600060608486031215612cad57600080fd5b8335612cb881612b7d565b92506020840135612cc881612b7d565b929592945050506040919091013590565b634e487b7160e01b600052604160045260246000fd5b604051601f8201601f191681016001600160401b0381118282101715612d1757612d17612cd9565b604052919050565b60006001600160401b03821115612d3857612d38612cd9565b50601f01601f191660200190565b6000612d59612d5484612d1f565b612cef565b9050828152838383011115612d6d57600080fd5b828260208301376000602084830101529392505050565b600060208284031215612d9657600080fd5b81356001600160401b03811115612dac57600080fd5b8201601f81018413612dbd57600080fd5b611f3084823560208401612d46565b600060208284031215612dde57600080fd5b81356111ee81612b7d565b6020808252825182820181905260009190848201906040850190845b81811015612e2157835183529284019291840191600101612e05565b50909695505050505050565b60008060408385031215612e4057600080fd5b8235612e4b81612b7d565b915060208301358015158114612e6057600080fd5b809150509250929050565b60008060208385031215612e7e57600080fd5b82356001600160401b03811115612e9457600080fd5b612ea085828601612b32565b90969095509350505050565b60008060008060808587031215612ec257600080fd5b8435612ecd81612b7d565b93506020850135612edd81612b7d565b92506040850135915060608501356001600160401b03811115612eff57600080fd5b8501601f81018713612f1057600080fd5b612f1f87823560208401612d46565b91505092959194509250565b634e487b7160e01b600052602160045260246000fd5b6020810160048310612f6357634e487b7160e01b600052602160045260246000fd5b91905290565b6000602080830181845280855180835260408601915060408160051b870101925083870160005b82811015612fbe57603f19888603018452612fac858351612c14565b94509285019290850190600101612f90565b5092979650505050505050565b60008060408385031215612fde57600080fd5b8235612fe981612b7d565b91506020830135612e6081612b7d565b6020808252601f908201527f5265656e7472616e637947756172643a207265656e7472616e742063616c6c00604082015260600190565b634e487b7160e01b600052603260045260246000fd5b634e487b7160e01b600052601160045260246000fd5b600060001982141561307057613070613046565b5060010190565b600181811c9082168061308b57607f821691505b602082108114156130ac57634e487b7160e01b600052602260045260246000fd5b50919050565b6020808252818101527f4f776e61626c653a2063616c6c6572206973206e6f7420746865206f776e6572604082015260600190565b60208082526031908201527f4552433732313a207472616e736665722063616c6c6572206973206e6f74206f6040820152701ddb995c881b9bdc88185c1c1c9bdd9959607a1b606082015260800190565b6000821982111561314b5761314b613046565b500190565b600081600019048311821515161561316a5761316a613046565b500290565b60208082526021908201527f4e5444414f2d4e46543a20546f6b656e4964206e6f74206d696e7465642079656040820152601d60fa1b606082015260800190565b600082601f8301126131c157600080fd5b81516131cf612d5482612d1f565b8181528460208386010111156131e457600080fd5b611f30826020830160208701612be8565b60006020828403121561320757600080fd5b81516001600160401b0381111561321d57600080fd5b611f30848285016131b0565b6000815161323b818560208601612be8565b9290920192915050565b600080845481600182811c91508083168061326157607f831692505b602080841082141561328157634e487b7160e01b86526022600452602486fd5b81801561329557600181146132a6576132d3565b60ff198616895284890196506132d3565b60008b81526020902060005b868110156132cb5781548b8201529085019083016132b2565b505084890196505b5050505050506132f66132e68286613229565b631733b4b360e11b815260040190565b95945050505050565b7f7b226e616d65223a20224e6174696f6e616c2054726561737572652044414f208152644e4654202360d81b602082015260008551613345816025850160208a01612be8565b7001116101130ba3a3934b13aba32b9911d1607d1b6025918401918201528551613376816036840160208a01612be8565b711610113232b9b1b934b83a34b7b7111d101160711b6036929091019182015284516133a9816048840160208901612be8565b6025818301019150506c1116101134b6b0b3b2911d101160991b602382015283516133db816030840160208801612be8565b6133f260308383010161227d60f01b815260020190565b98975050505050505050565b7f646174613a6170706c69636174696f6e2f6a736f6e3b6261736536342c00000081526000825161343681601d850160208701612be8565b91909101601d0192915050565b60006001600160401b0382111561345c5761345c612cd9565b5060051b60200190565b6000602080838503121561347957600080fd5b82516001600160401b0381111561348f57600080fd5b8301601f810185136134a057600080fd5b80516134ae612d5482613443565b81815260059190911b820183019083810190878311156134cd57600080fd5b928401925b828410156134eb578351825292840192908401906134d2565b979650505050505050565b6000602080838503121561350957600080fd5b82516001600160401b038082111561352057600080fd5b818501915085601f83011261353457600080fd5b8151613542612d5482613443565b81815260059190911b8301840190848101908883111561356157600080fd5b8585015b838110156135995780518581111561357d5760008081fd5b61358b8b89838a01016131b0565b845250918601918601613565565b5098975050505050505050565b6000602082840312156135b857600080fd5b5051919050565b6000828210156135d1576135d1613046565b500390565b60208082526032908201527f4552433732313a207472616e7366657220746f206e6f6e20455243373231526560408201527131b2b4bb32b91034b6b83632b6b2b73a32b960711b606082015260800190565b634e487b7160e01b600052601260045260246000fd5b60008261364d5761364d613628565b500490565b60008261366157613661613628565b500690565b6001600160a01b038581168252841660208201526040810183905260806060820181905260009061369990830184612c14565b9695505050505050565b6000602082840312156136b557600080fd5b81516111ee81612aff565b634e487b7160e01b600052603160045260246000fdfe4142434445464748494a4b4c4d4e4f505152535455565758595a6162636465666768696a6b6c6d6e6f707172737475767778797a303132333435363738392b2fa26469706673582212206d9434dbd5b4109e9ab2639b5c6c7e9dd5386deb4bd9ac0ae468f59c49ee44e464736f6c634300080a0033",
  "linkReferences": {},
  "deployedLinkReferences": {}
}