{
  "_format": "hh-sol-artifact-1",
  "contractName": "NTDaoGene",
  "sourceName": "contracts/NTDaoGene.sol",
  "abi": [
    {
      "inputs": [
        {
          "internalType": "address",
          "name": "nftAddr_",
          "type": "address"
        }
      ],
      "stateMutability": "nonpayable",
      "type": "constructor"
    },
    {
      "anonymous": false,
      "inputs": [
        {
          "indexed": true,
          "internalType": "address",
          "name": "previousOwner",
          "type": "address"
        },
        {
          "indexed": true,
          "internalType": "address",
          "name": "newOwner",
          "type": "address"
        }
      ],
      "name": "OwnershipTransferred",
      "type": "event"
    },
    {
      "inputs": [],
      "name": "_nftAddr",
      "outputs": [
        {
          "internalType": "address",
          "name": "",
          "type": "address"
        }
      ],
      "stateMutability": "view",
      "type": "function"
    },
    {
      "inputs": [
        {
          "internalType": "uint256",
          "name": "_tokenId",
          "type": "uint256"
        }
      ],
      "name": "getAttrs",
      "outputs": [
        {
          "internalType": "string",
          "name": "",
          "type": "string"
        }
      ],
      "stateMutability": "view",
      "type": "function"
    },
    {
      "inputs": [
        {
          "internalType": "uint256",
          "name": "_tokenId",
          "type": "uint256"
        }
      ],
      "name": "getBaseGeneNames",
      "outputs": [
        {
          "internalType": "string[]",
          "name": "",
          "type": "string[]"
        }
      ],
      "stateMutability": "view",
      "type": "function"
    },
    {
      "inputs": [
        {
          "internalType": "uint256",
          "name": "_tokenId",
          "type": "uint256"
        }
      ],
      "name": "getBaseGenes",
      "outputs": [
        {
          "internalType": "uint256[]",
          "name": "",
          "type": "uint256[]"
        }
      ],
      "stateMutability": "view",
      "type": "function"
    },
    {
      "inputs": [],
      "name": "getDescription",
      "outputs": [
        {
          "internalType": "string",
          "name": "",
          "type": "string"
        }
      ],
      "stateMutability": "pure",
      "type": "function"
    },
    {
      "inputs": [
        {
          "internalType": "uint256",
          "name": "_tokenId",
          "type": "uint256"
        }
      ],
      "name": "getImgIdx",
      "outputs": [
        {
          "internalType": "string",
          "name": "",
          "type": "string"
        }
      ],
      "stateMutability": "view",
      "type": "function"
    },
    {
      "inputs": [],
      "name": "getNftAddr",
      "outputs": [
        {
          "internalType": "address",
          "name": "",
          "type": "address"
        }
      ],
      "stateMutability": "view",
      "type": "function"
    },
    {
      "inputs": [
        {
          "internalType": "uint256",
          "name": "_tokenId",
          "type": "uint256"
        }
      ],
      "name": "getSeed",
      "outputs": [
        {
          "internalType": "uint256",
          "name": "",
          "type": "uint256"
        }
      ],
      "stateMutability": "view",
      "type": "function"
    },
    {
      "inputs": [],
      "name": "owner",
      "outputs": [
        {
          "internalType": "address",
          "name": "",
          "type": "address"
        }
      ],
      "stateMutability": "view",
      "type": "function"
    },
    {
      "inputs": [],
      "name": "renounceOwnership",
      "outputs": [],
      "stateMutability": "nonpayable",
      "type": "function"
    },
    {
      "inputs": [
        {
          "internalType": "address",
          "name": "nftAddr_",
          "type": "address"
        }
      ],
      "name": "setNftAddr",
      "outputs": [],
      "stateMutability": "nonpayable",
      "type": "function"
    },
    {
      "inputs": [
        {
          "internalType": "address",
          "name": "newOwner",
          "type": "address"
        }
      ],
      "name": "transferOwnership",
      "outputs": [],
      "stateMutability": "nonpayable",
      "type": "function"
    }
  ],
  "bytecode": "0x60066101209081526531b7b6b6b7b760d11b6101405260809081526008610160908152673ab731b7b6b6b7b760c11b6101805260a05260046101a0818152637261726560e01b6101c05260c0526101e0908152636570696360e01b6102005260e0526102606040526009610220908152686c6567656e6461727960b81b6102405261010052620000949060029060056200042e565b506040805160e081018252600560a08201818152643bb0ba32b960d91b60c08401528252825180840184526004808252631ddbdbd960e21b6020838101919091528085019290925284518086018652908152636669726560e01b818301528385015283518085018552828152640cac2e4e8d60db1b8183015260608401528351808501909452818452641b595d185b60da1b9084015260808201929092526200014191600391906200042e565b50604080516101a08101825260036101608201818152621c985d60ea1b61018084015282528251808401845260028152610def60f31b60208281019190915280840191909152835180850185526005808252643a34b3b2b960d91b8284015284860191909152845180860186526006808252651c9858989a5d60d21b8285015260608601919091528551808701875281815265323930b3b7b760d11b8185015260808601528551808701875291825264736e616b6560d81b8284015260a08501919091528451808601865260098152681a1bdc9cd959dbd85d60ba1b8184015260c085015284518086018652908152656d6f6e6b657960d01b8183015260e08401528351808501855260078152663937b7b9ba32b960c91b818301526101008401528351808501855282815262646f6760e81b8183015261012084015283518085019094529083526270696760e81b90830152610140810191909152620002ad90600490600b62000492565b506040518060a00160405280604051806040016040528060088152602001674765756d67616e6760c01b81525081526020016040518060400160405280600681526020016553656f72616b60d01b8152508152602001604051806040016040528060048152602001634a69726960e01b81525081526020016040518060400160405280600581526020016448616c6c6160d81b8152508152602001604051806040016040528060068152602001654261656b647560d01b81525081525060059060056200037c9291906200042e565b503480156200038a57600080fd5b5060405162001dac38038062001dac833981016040819052620003ad91620005e9565b620003b833620003de565b600180546001600160a01b0319166001600160a01b039290921691909117905562000658565b600080546001600160a01b038381166001600160a01b0319831681178455604051919092169283917f8be0079c531659141344cd1fd0a4f28419497f9722a3daafe3b4186f6b6457e09190a35050565b82805482825590600052602060002090810192821562000480579160200282015b828111156200048057825180516200046f918491602090910190620004e4565b50916020019190600101906200044f565b506200048e9291506200056f565b5090565b82805482825590600052602060002090810192821562000480579160200282015b82811115620004805782518051620004d3918491602090910190620004e4565b5091602001919060010190620004b3565b828054620004f2906200061b565b90600052602060002090601f01602090048101928262000516576000855562000561565b82601f106200053157805160ff191683800117855562000561565b8280016001018555821562000561579182015b828111156200056157825182559160200191906001019062000544565b506200048e92915062000590565b808211156200048e576000620005868282620005a7565b506001016200056f565b5b808211156200048e576000815560010162000591565b508054620005b5906200061b565b6000825580601f10620005c6575050565b601f016020900490600052602060002090810190620005e6919062000590565b50565b600060208284031215620005fc57600080fd5b81516001600160a01b03811681146200061457600080fd5b9392505050565b600181811c908216806200063057607f821691505b602082108114156200065257634e487b7160e01b600052602260045260246000fd5b50919050565b61174480620006686000396000f3fe608060405234801561001057600080fd5b50600436106100b45760003560e01c8063ca706d5011610071578063ca706d5014610141578063cf2defeb14610154578063d08fd6eb14610174578063dec1f63714610194578063e0d4ea37146101a7578063f2fde38b146101c857600080fd5b80631a092541146100b957806337138e35146100d75780635555c40214610102578063715018a6146101155780637c63b2741461011f5780638da5cb5b14610130575b600080fd5b6100c16101db565b6040516100ce9190611005565b60405180910390f35b6001546100ea906001600160a01b031681565b6040516001600160a01b0390911681526020016100ce565b6100c161011036600461101f565b610201565b61011d61035d565b005b6001546001600160a01b03166100ea565b6000546001600160a01b03166100ea565b6100c161014f36600461101f565b610393565b61016761016236600461101f565b61057b565b6040516100ce9190611038565b61018761018236600461101f565b61069c565b6040516100ce919061107c565b61011d6101a23660046110de565b610aa4565b6101ba6101b536600461101f565b610af0565b6040519081526020016100ce565b61011d6101d63660046110de565b610b77565b60606000604051806102a0016040528061027c81526020016113be61027c913992915050565b6001546060906001600160a01b0316336001600160a01b0316148061023057506000546001600160a01b031633145b6102555760405162461bcd60e51b815260040161024c90611107565b60405180910390fd5b60006102608361057b565b9050600061029360018360008151811061027c5761027c61115c565b602002602001015161028e9190611188565b610c12565b905060006102af60018460018151811061027c5761027c61115c565b905060606008846001815181106102c8576102c861115c565b602002602001015111610313576102ed60018560018151811061027c5761027c61115c565b6040516020016102fd91906111a0565b604051602081830303815290604052905061032e565b61032b60018560018151811061027c5761027c61115c565b90505b828282604051602001610343939291906111c9565b604051602081830303815290604052945050505050919050565b6000546001600160a01b031633146103875760405162461bcd60e51b815260040161024c9061120c565b6103916000610d18565b565b606060006103a08361069c565b90506103aa610f81565b60405180606001604052806023815260200161168a602391398152815182906000906103d8576103d861115c565b6020026020010151816001600981106103f3576103f361115c565b60200201819052506040518060600160405280602881526020016116e760289139604082015281518290600190811061042e5761042e61115c565b6020026020010151816003600981106104495761044961115c565b60200201819052506040518060600160405280602781526020016116636027913960808201528151829060029081106104845761048461115c565b60200260200101518160056009811061049f5761049f61115c565b602002018190525060405180606001604052806029815260200161163a6029913960c08201528151829060039081106104da576104da61115c565b6020026020010151816007600981106104f5576104f561115c565b60200201819052506040518060600160405280603a81526020016116ad603a9139610100820181905281516020808401516040808601516060870151608088015160a089015160c08a015160e08b0151955160009a6105629a999697959694959394929392909101611241565b60408051601f1981840301815291905295945050505050565b6001546060906001600160a01b0316336001600160a01b031614806105aa57506000546001600160a01b031633145b6105c65760405162461bcd60e51b815260040161024c90611107565b60408051600480825260a082019092526000916020820160808036833701905050905060006105f484610af0565b90506105ff81610d68565b826000815181106106125761061261115c565b60200260200101818152505061062781610ddb565b8260018151811061063a5761063a61115c565b60200260200101818152505061064f81610e40565b826002815181106106625761066261115c565b60200260200101818152505061067781610f2d565b8260038151811061068a5761068a61115c565b60209081029190910101525092915050565b6001546060906001600160a01b0316336001600160a01b031614806106cb57506000546001600160a01b031633145b6106e75760405162461bcd60e51b815260040161024c90611107565b60006106f28361057b565b60408051600480825260a0820190925291925060009190816020015b606081526020019060019003908161070e57905050905060028260008151811061073a5761073a61115c565b6020026020010151815481106107525761075261115c565b90600052602060002001805461076790611318565b80601f016020809104026020016040519081016040528092919081815260200182805461079390611318565b80156107e05780601f106107b5576101008083540402835291602001916107e0565b820191906000526020600020905b8154815290600101906020018083116107c357829003601f168201915b5050505050816000815181106107f8576107f861115c565b60200260200101819052506003826001815181106108185761081861115c565b6020026020010151815481106108305761083061115c565b90600052602060002001805461084590611318565b80601f016020809104026020016040519081016040528092919081815260200182805461087190611318565b80156108be5780601f10610893576101008083540402835291602001916108be565b820191906000526020600020905b8154815290600101906020018083116108a157829003601f168201915b5050505050816001815181106108d6576108d661115c565b60200260200101819052506004826002815181106108f6576108f661115c565b60200260200101518154811061090e5761090e61115c565b90600052602060002001805461092390611318565b80601f016020809104026020016040519081016040528092919081815260200182805461094f90611318565b801561099c5780601f106109715761010080835404028352916020019161099c565b820191906000526020600020905b81548152906001019060200180831161097f57829003601f168201915b5050505050816002815181106109b4576109b461115c565b60200260200101819052506005826003815181106109d4576109d461115c565b6020026020010151815481106109ec576109ec61115c565b906000526020600020018054610a0190611318565b80601f0160208091040260200160405190810160405280929190818152602001828054610a2d90611318565b8015610a7a5780601f10610a4f57610100808354040283529160200191610a7a565b820191906000526020600020905b815481529060010190602001808311610a5d57829003601f168201915b505050505081600381518110610a9257610a9261115c565b60209081029190910101529392505050565b6000546001600160a01b03163314610ace5760405162461bcd60e51b815260040161024c9061120c565b600180546001600160a01b0319166001600160a01b0392909216919091179055565b6001546000906001600160a01b0316336001600160a01b03161480610b1f57506000546001600160a01b031633145b610b3b5760405162461bcd60e51b815260040161024c90611107565b816107e6604051602001610b59929190918252602082015260400190565b60408051601f19818403018152919052805160209091012092915050565b6000546001600160a01b03163314610ba15760405162461bcd60e51b815260040161024c9061120c565b6001600160a01b038116610c065760405162461bcd60e51b815260206004820152602660248201527f4f776e61626c653a206e6577206f776e657220697320746865207a65726f206160448201526564647265737360d01b606482015260840161024c565b610c0f81610d18565b50565b606081610c365750506040805180820190915260018152600360fc1b602082015290565b8160005b8115610c605780610c4a8161134d565b9150610c599050600a8361137e565b9150610c3a565b60008167ffffffffffffffff811115610c7b57610c7b611302565b6040519080825280601f01601f191660200182016040528015610ca5576020820181803683370190505b5090505b8415610d1057610cba600183611392565b9150610cc7600a866113a9565b610cd2906030611188565b60f81b818381518110610ce757610ce761115c565b60200101906001600160f81b031916908160001a905350610d09600a8661137e565b9450610ca9565b949350505050565b600080546001600160a01b038381166001600160a01b0319831681178455604051919092169283917f8be0079c531659141344cd1fd0a4f28419497f9722a3daafe3b4186f6b6457e09190a35050565b6000806064610d78600a8561137e565b610d8291906113a9565b90506032811015610d965750600092915050565b6050811015610da85750600192915050565b605e811015610dba5750600292915050565b6063811015610dcc5750600392915050565b50600492915050565b50919050565b6000806064610dec6103e88561137e565b610df691906113a9565b90506032811015610e0a5750600092915050565b604b811015610e1c5750600192915050565b6055811015610e2e5750600292915050565b605f811015610dcc5750600392915050565b6000806064610e52620186a08561137e565b610e5c91906113a9565b90506014811015610e705750600092915050565b6023811015610e825750600192915050565b602f811015610e945750600292915050565b6039811015610ea65750600392915050565b6042811015610eb85750600492915050565b604a811015610eca5750600592915050565b6052811015610edc5750600692915050565b605a811015610eee5750600792915050565b605e811015610f005750600892915050565b6061811015610f125750600992915050565b6063811015610f245750600a92915050565b50600b92915050565b6000806064610f3f629896808561137e565b610f4991906113a9565b90506032811015610f5d5750600092915050565b6055811015610f6f5750600192915050565b6061811015610dba5750600292915050565b6040518061012001604052806009905b6060815260200190600190039081610f915790505090565b60005b83811015610fc4578181015183820152602001610fac565b83811115610fd3576000848401525b50505050565b60008151808452610ff1816020860160208601610fa9565b601f01601f19169290920160200192915050565b6020815260006110186020830184610fd9565b9392505050565b60006020828403121561103157600080fd5b5035919050565b6020808252825182820181905260009190848201906040850190845b8181101561107057835183529284019291840191600101611054565b50909695505050505050565b6000602080830181845280855180835260408601915060408160051b870101925083870160005b828110156110d157603f198886030184526110bf858351610fd9565b945092850192908501906001016110a3565b5092979650505050505050565b6000602082840312156110f057600080fd5b81356001600160a01b038116811461101857600080fd5b60208082526035908201527f54616e6b47656e653a2063616c6c6572206973206e6f7420746865204e46542060408201527474616e6b20636f6e7472616374206164647265737360581b606082015260800190565b634e487b7160e01b600052603260045260246000fd5b634e487b7160e01b600052601160045260246000fd5b6000821982111561119b5761119b611172565b500190565b600360fc1b8152600082516111bc816001850160208701610fa9565b9190910160010192915050565b600084516111db818460208901610fa9565b8451908301906111ef818360208901610fa9565b8451910190611202818360208801610fa9565b0195945050505050565b6020808252818101527f4f776e61626c653a2063616c6c6572206973206e6f7420746865206f776e6572604082015260600190565b60008a51611253818460208f01610fa9565b8a516112658183860160208f01610fa9565b8a51918401019061127a818360208e01610fa9565b895161128c8183850160208e01610fa9565b89519290910101906112a2818360208c01610fa9565b87516112b48183850160208c01610fa9565b87519290910101906112ca818360208a01610fa9565b85516112dc8183850160208a01610fa9565b85519290910101906112f2818360208801610fa9565b019b9a5050505050505050505050565b634e487b7160e01b600052604160045260246000fd5b600181811c9082168061132c57607f821691505b60208210811415610dd557634e487b7160e01b600052602260045260246000fd5b600060001982141561136157611361611172565b5060010190565b634e487b7160e01b600052601260045260246000fd5b60008261138d5761138d611368565b500490565b6000828210156113a4576113a4611172565b500390565b6000826113b8576113b8611368565b50069056fe546865204e6174696f6e616c2054726561737572652044414f20284e5444414f2920697320612070726f6a6563742064657369676e656420746f2070726f74656374207468652063756c747572616c206865726974616765206f66204b6f7265612061732061207368617265642070726f7065727479206f6620636974697a656e7320616e642073707265616420697473206d65616e696e6720746f20746865207075626c69632e20546865206e616d652044414f2028446563656e7472616c697a6564204175746f6e6f6d6f7573204f7267616e697a6174696f6e292077617320676976656e2c206265636175736520746869732070726f6a656374206973206e6f7420666f72207468652062656e65666974206f66206120706172746963756c617220636f6d70616e79206f7220696e646976696475616c2c2062757420746f20657870726573732074686520766f6c756e746172792070617274696369706174696f6e206f66206d616e7920636974697a656e7320616e6420636f6d6d756e697469657320746f20616368696576652074686520676f616c206f6620746865206f7267616e697a6174696f6e207468726f75676820646563656e7472616c697a6564206465636973696f6e2d6d616b696e672e205468652070726f63657373206f66206361727279696e67206f757420746869732070726f6a65637420697473656c6620697320616c736f2074686520676f616c206f6620636f6e74656d706c6174696e672c2073686172696e672c20616e6420776f726b696e6720746f676574686572206f6e207468652074727565206d65616e696e67206f662063756c747572616c2068657269746167652070726f74656374696f6e2e227d2c207b2274726169745f74797065223a20226469766973696f6e222c202276616c7565223a2022227d2c207b2274726169745f74797065223a20226272616e6368222c202276616c7565223a20225b7b2274726169745f74797065223a2022636c617373222c202276616c7565223a2022227d2c207b2274726169745f74797065223a202267656e65726174696f6e222c202276616c7565223a202267656e65726174696f6e2d30227d5d227d2c207b2274726169745f74797065223a2022656c656d656e74222c202276616c7565223a2022a264697066735822122019f0ef4cff44dc3d0d3e956561624f922009c266c1a75a3af3f2d5b03210b3b864736f6c634300080a0033",
  "linkReferences": {},
  "deployedLinkReferences": {}
}