{
  "_format": "hh-sol-artifact-1",
  "contractName": "NTDaoGene",
  "sourceName": "contracts/NTDaoGene.sol",
  "abi": [
    {
      "inputs": [
        {
          "internalType": "address",
          "name": "nftAddr_",
          "type": "address"
        }
      ],
      "stateMutability": "nonpayable",
      "type": "constructor"
    },
    {
      "anonymous": false,
      "inputs": [
        {
          "indexed": true,
          "internalType": "address",
          "name": "previousOwner",
          "type": "address"
        },
        {
          "indexed": true,
          "internalType": "address",
          "name": "newOwner",
          "type": "address"
        }
      ],
      "name": "OwnershipTransferred",
      "type": "event"
    },
    {
      "inputs": [],
      "name": "_nftAddr",
      "outputs": [
        {
          "internalType": "address",
          "name": "",
          "type": "address"
        }
      ],
      "stateMutability": "view",
      "type": "function"
    },
    {
      "inputs": [
        {
          "internalType": "uint256",
          "name": "_tokenId",
          "type": "uint256"
        }
      ],
      "name": "getAttrs",
      "outputs": [
        {
          "internalType": "string",
          "name": "",
          "type": "string"
        }
      ],
      "stateMutability": "view",
      "type": "function"
    },
    {
      "inputs": [
        {
          "internalType": "uint256",
          "name": "_tokenId",
          "type": "uint256"
        }
      ],
      "name": "getBaseGeneNames",
      "outputs": [
        {
          "internalType": "string[]",
          "name": "",
          "type": "string[]"
        }
      ],
      "stateMutability": "view",
      "type": "function"
    },
    {
      "inputs": [
        {
          "internalType": "uint256",
          "name": "_tokenId",
          "type": "uint256"
        }
      ],
      "name": "getBaseGenes",
      "outputs": [
        {
          "internalType": "uint256[]",
          "name": "",
          "type": "uint256[]"
        }
      ],
      "stateMutability": "view",
      "type": "function"
    },
    {
      "inputs": [],
      "name": "getDescription",
      "outputs": [
        {
          "internalType": "string",
          "name": "",
          "type": "string"
        }
      ],
      "stateMutability": "pure",
      "type": "function"
    },
    {
      "inputs": [
        {
          "internalType": "uint256",
          "name": "_tokenId",
          "type": "uint256"
        }
      ],
      "name": "getImg",
      "outputs": [
        {
          "internalType": "string",
          "name": "",
          "type": "string"
        }
      ],
      "stateMutability": "view",
      "type": "function"
    },
    {
      "inputs": [
        {
          "internalType": "uint256",
          "name": "_tokenId",
          "type": "uint256"
        }
      ],
      "name": "getImgIdx",
      "outputs": [
        {
          "internalType": "string",
          "name": "",
          "type": "string"
        }
      ],
      "stateMutability": "view",
      "type": "function"
    },
    {
      "inputs": [],
      "name": "getNftAddr",
      "outputs": [
        {
          "internalType": "address",
          "name": "",
          "type": "address"
        }
      ],
      "stateMutability": "view",
      "type": "function"
    },
    {
      "inputs": [
        {
          "internalType": "uint256",
          "name": "_tokenId",
          "type": "uint256"
        }
      ],
      "name": "getSeed",
      "outputs": [
        {
          "internalType": "uint256",
          "name": "",
          "type": "uint256"
        }
      ],
      "stateMutability": "view",
      "type": "function"
    },
    {
      "inputs": [],
      "name": "owner",
      "outputs": [
        {
          "internalType": "address",
          "name": "",
          "type": "address"
        }
      ],
      "stateMutability": "view",
      "type": "function"
    },
    {
      "inputs": [],
      "name": "renounceOwnership",
      "outputs": [],
      "stateMutability": "nonpayable",
      "type": "function"
    },
    {
      "inputs": [
        {
          "internalType": "address",
          "name": "nftAddr_",
          "type": "address"
        }
      ],
      "name": "setNftAddr",
      "outputs": [],
      "stateMutability": "nonpayable",
      "type": "function"
    },
    {
      "inputs": [
        {
          "internalType": "address",
          "name": "newOwner",
          "type": "address"
        }
      ],
      "name": "transferOwnership",
      "outputs": [],
      "stateMutability": "nonpayable",
      "type": "function"
    }
  ],
  "bytecode": "0x60066101209081526521b7b6b6b7b760d11b6101405260809081526004610160908152635261726560e01b6101805260a052600a6101a0908152695375706572205261726560b01b6101c05260c05260086101e090815267547265617375726560c01b6102005260e0526102606040526011610220908152704e6174696f6e616c20547265617375726560781b6102405261010052620000a49060029060056200043e565b506040805160e081018252600560a08201818152642bb0ba32b960d91b60c084015282528251808401845260048082526315dbdbd960e21b6020838101919091528085019290925284518086018652908152634669726560e01b8183015283850152835180850185528281526408ac2e4e8d60db1b81830152606084015283518085019094528184526413595d185b60da1b9084015260808201929092526200015191600391906200043e565b50604080516101a081018252600361016082018181526214985d60ea1b610180840152825282518084018452600281526109ef60f31b60208281019190915280840191909152835180850185526005808252642a34b3b2b960d91b828401528486019190915284518086018652600680825265149858989a5d60d21b8285015260608601919091528551808701875281815265223930b3b7b760d11b8185015260808601528551808701875291825264536e616b6560d81b8284015260a0850191909152845180860186526009815268121bdc9cd951dbd85d60ba1b8184015260c085015284518086018652908152654d6f6e6b657960d01b8183015260e08401528351808501855260078152662937b7b9ba32b960c91b818301526101008401528351808501855282815262446f6760e81b8183015261012084015283518085019094529083526250696760e81b90830152610140810191909152620002bd90600490600b620004a2565b506040518060a00160405280604051806040016040528060088152602001674765756d67616e6760c01b81525081526020016040518060400160405280600681526020016553656f72616b60d01b8152508152602001604051806040016040528060048152602001634a69726960e01b81525081526020016040518060400160405280600581526020016448616c6c6160d81b8152508152602001604051806040016040528060068152602001654261656b647560d01b81525081525060059060056200038c9291906200043e565b503480156200039a57600080fd5b50604051620025d8380380620025d8833981016040819052620003bd91620005f9565b620003c833620003ee565b600180546001600160a01b0319166001600160a01b039290921691909117905562000668565b600080546001600160a01b038381166001600160a01b0319831681178455604051919092169283917f8be0079c531659141344cd1fd0a4f28419497f9722a3daafe3b4186f6b6457e09190a35050565b82805482825590600052602060002090810192821562000490579160200282015b828111156200049057825180516200047f918491602090910190620004f4565b50916020019190600101906200045f565b506200049e9291506200057f565b5090565b82805482825590600052602060002090810192821562000490579160200282015b82811115620004905782518051620004e3918491602090910190620004f4565b5091602001919060010190620004c3565b82805462000502906200062b565b90600052602060002090601f01602090048101928262000526576000855562000571565b82601f106200054157805160ff191683800117855562000571565b8280016001018555821562000571579182015b828111156200057157825182559160200191906001019062000554565b506200049e929150620005a0565b808211156200049e576000620005968282620005b7565b506001016200057f565b5b808211156200049e5760008155600101620005a1565b508054620005c5906200062b565b6000825580601f10620005d6575050565b601f016020900490600052602060002090810190620005f69190620005a0565b50565b6000602082840312156200060c57600080fd5b81516001600160a01b03811681146200062457600080fd5b9392505050565b600181811c908216806200064057607f821691505b602082108114156200066257634e487b7160e01b600052602260045260246000fd5b50919050565b611f6080620006786000396000f3fe608060405234801561001057600080fd5b50600436106100cf5760003560e01c80638da5cb5b1161008c578063d08fd6eb11610066578063d08fd6eb146101a2578063dec1f637146101c2578063e0d4ea37146101d5578063f2fde38b146101f657600080fd5b80638da5cb5b1461015e578063ca706d501461016f578063cf2defeb1461018257600080fd5b80631a092541146100d457806337138e35146100f25780635555c4021461011d578063715018a6146101305780637c63b2741461013a5780638d07b7d61461014b575b600080fd5b6100dc610209565b6040516100e9919061147d565b60405180910390f35b600154610105906001600160a01b031681565b6040516001600160a01b0390911681526020016100e9565b6100dc61012b366004611497565b61022f565b61013861038b565b005b6001546001600160a01b0316610105565b6100dc610159366004611497565b6103c1565b6000546001600160a01b0316610105565b6100dc61017d366004611497565b61068a565b610195610190366004611497565b610872565b6040516100e991906114b0565b6101b56101b0366004611497565b610993565b6040516100e991906114f4565b6101386101d0366004611556565b610d9b565b6101e86101e3366004611497565b610de7565b6040519081526020016100e9565b610138610204366004611556565b610e6e565b60606000604051806102a0016040528061027c81526020016119a561027c913992915050565b6001546060906001600160a01b0316336001600160a01b0316148061025e57506000546001600160a01b031633145b6102835760405162461bcd60e51b815260040161027a9061157f565b60405180910390fd5b600061028e83610872565b905060006102c16001836000815181106102aa576102aa6115d4565b60200260200101516102bc9190611600565b610f09565b905060006102dd6001846001815181106102aa576102aa6115d4565b905060606008846001815181106102f6576102f66115d4565b6020026020010151116103415761031b6001856001815181106102aa576102aa6115d4565b60405160200161032b9190611618565b604051602081830303815290604052905061035c565b6103596001856001815181106102aa576102aa6115d4565b90505b82828260405160200161037193929190611641565b604051602081830303815290604052945050505050919050565b6000546001600160a01b031633146103b55760405162461bcd60e51b815260040161027a90611684565b6103bf600061100f565b565b606060006103ce83610993565b90506103d86113de565b6040518060a0016040528060628152602001611c746062913981526040805160a081019091526061808252611d80602083013981600160200201819052506040518060c0016040528060858152602001611de1608591396040808301919091528051608081019091526053808252611c216020830139606082015281518290600090610466576104666115d4565b6020026020010151816004600c8110610481576104816115d4565b60200201819052506040518060800160405280605a8152602001611cd6605a913960a08201528151829060019081106104bc576104bc6115d4565b6020026020010151816006600c81106104d7576104d76115d4565b60200201819052506040518060800160405280605a815260200161194b605a913960e0820152815182906002908110610512576105126115d4565b6020026020010151816008600c811061052d5761052d6115d4565b60200201819052506040518060800160405280605a81526020016118f1605a9139610120820152815182906003908110610569576105696115d4565b602002602001015181600a600c8110610584576105846115d4565b60200201819052506040518060400160405280600d81526020016c1e17ba32bc3a1f1e17b9bb339f60991b81525081600b600c81106105c5576105c56115d4565b602090810291909101919091528151828201516040808501516060860151608087015160a088015160c089015160e08a01516101008b0151965160009a61060f9a999891016116b9565b60408051808303601f19018152908290526101208401516101408501516101608601519294506106449385939060200161177a565b604051602081830303815290604052905060006106608261105f565b60405160200161067091906117d1565b60408051601f198184030181529190529695505050505050565b6060600061069783610993565b90506106a1611406565b604051806060016040528060238152602001611ea6602391398152815182906000906106cf576106cf6115d4565b6020026020010151816001600981106106ea576106ea6115d4565b6020020181905250604051806060016040528060288152602001611f03602891396040820152815182906001908110610725576107256115d4565b602002602001015181600360098110610740576107406115d4565b6020020181905250604051806060016040528060278152602001611d5960279139608082015281518290600290811061077b5761077b6115d4565b602002602001015181600560098110610796576107966115d4565b6020020181905250604051806060016040528060298152602001611d306029913960c08201528151829060039081106107d1576107d16115d4565b6020026020010151816007600981106107ec576107ec6115d4565b60200201819052506040518060600160405280603a8152602001611ec9603a9139610100820181905281516020808401516040808601516060870151608088015160a089015160c08a015160e08b0151955160009a6108599a9996979596949593949293929091016116b9565b60408051601f1981840301815291905295945050505050565b6001546060906001600160a01b0316336001600160a01b031614806108a157506000546001600160a01b031633145b6108bd5760405162461bcd60e51b815260040161027a9061157f565b60408051600480825260a082019092526000916020820160808036833701905050905060006108eb84610de7565b90506108f6816111c5565b82600081518110610909576109096115d4565b60200260200101818152505061091e81611238565b82600181518110610931576109316115d4565b6020026020010181815250506109468161129d565b82600281518110610959576109596115d4565b60200260200101818152505061096e8161138a565b82600381518110610981576109816115d4565b60209081029190910101525092915050565b6001546060906001600160a01b0316336001600160a01b031614806109c257506000546001600160a01b031633145b6109de5760405162461bcd60e51b815260040161027a9061157f565b60006109e983610872565b60408051600480825260a0820190925291925060009190816020015b6060815260200190600190039081610a05579050509050600282600081518110610a3157610a316115d4565b602002602001015181548110610a4957610a496115d4565b906000526020600020018054610a5e9061182c565b80601f0160208091040260200160405190810160405280929190818152602001828054610a8a9061182c565b8015610ad75780601f10610aac57610100808354040283529160200191610ad7565b820191906000526020600020905b815481529060010190602001808311610aba57829003601f168201915b505050505081600081518110610aef57610aef6115d4565b6020026020010181905250600382600181518110610b0f57610b0f6115d4565b602002602001015181548110610b2757610b276115d4565b906000526020600020018054610b3c9061182c565b80601f0160208091040260200160405190810160405280929190818152602001828054610b689061182c565b8015610bb55780601f10610b8a57610100808354040283529160200191610bb5565b820191906000526020600020905b815481529060010190602001808311610b9857829003601f168201915b505050505081600181518110610bcd57610bcd6115d4565b6020026020010181905250600482600281518110610bed57610bed6115d4565b602002602001015181548110610c0557610c056115d4565b906000526020600020018054610c1a9061182c565b80601f0160208091040260200160405190810160405280929190818152602001828054610c469061182c565b8015610c935780601f10610c6857610100808354040283529160200191610c93565b820191906000526020600020905b815481529060010190602001808311610c7657829003601f168201915b505050505081600281518110610cab57610cab6115d4565b6020026020010181905250600582600381518110610ccb57610ccb6115d4565b602002602001015181548110610ce357610ce36115d4565b906000526020600020018054610cf89061182c565b80601f0160208091040260200160405190810160405280929190818152602001828054610d249061182c565b8015610d715780601f10610d4657610100808354040283529160200191610d71565b820191906000526020600020905b815481529060010190602001808311610d5457829003601f168201915b505050505081600381518110610d8957610d896115d4565b60209081029190910101529392505050565b6000546001600160a01b03163314610dc55760405162461bcd60e51b815260040161027a90611684565b600180546001600160a01b0319166001600160a01b0392909216919091179055565b6001546000906001600160a01b0316336001600160a01b03161480610e1657506000546001600160a01b031633145b610e325760405162461bcd60e51b815260040161027a9061157f565b816107e6604051602001610e50929190918252602082015260400190565b60408051601f19818403018152919052805160209091012092915050565b6000546001600160a01b03163314610e985760405162461bcd60e51b815260040161027a90611684565b6001600160a01b038116610efd5760405162461bcd60e51b815260206004820152602660248201527f4f776e61626c653a206e6577206f776e657220697320746865207a65726f206160448201526564647265737360d01b606482015260840161027a565b610f068161100f565b50565b606081610f2d5750506040805180820190915260018152600360fc1b602082015290565b8160005b8115610f575780610f4181611861565b9150610f509050600a83611892565b9150610f31565b60008167ffffffffffffffff811115610f7257610f72611816565b6040519080825280601f01601f191660200182016040528015610f9c576020820181803683370190505b5090505b841561100757610fb16001836118a6565b9150610fbe600a866118bd565b610fc9906030611600565b60f81b818381518110610fde57610fde6115d4565b60200101906001600160f81b031916908160001a905350611000600a86611892565b9450610fa0565b949350505050565b600080546001600160a01b038381166001600160a01b0319831681178455604051919092169283917f8be0079c531659141344cd1fd0a4f28419497f9722a3daafe3b4186f6b6457e09190a35050565b80516060908061107f575050604080516020810190915260008152919050565b6000600361108e836002611600565b6110989190611892565b6110a39060046118d1565b905060006110b2826020611600565b67ffffffffffffffff8111156110ca576110ca611816565b6040519080825280601f01601f1916602001820160405280156110f4576020820181803683370190505b5090506000604051806060016040528060408152602001611e66604091399050600181016020830160005b86811015611180576003818a01810151603f601282901c8116860151600c83901c8216870151600684901c831688015192909316870151600891821b60ff94851601821b92841692909201901b91160160e01b83526004909201910161111f565b50600386066001811461119a57600281146111ab576111b7565b613d3d60f01b6001198301526111b7565b603d60f81b6000198301525b505050918152949350505050565b60008060646111d5600a85611892565b6111df91906118bd565b905060328110156111f35750600092915050565b60508110156112055750600192915050565b605e8110156112175750600292915050565b60638110156112295750600392915050565b50600492915050565b50919050565b60008060646112496103e885611892565b61125391906118bd565b905060328110156112675750600092915050565b604b8110156112795750600192915050565b605581101561128b5750600292915050565b605f8110156112295750600392915050565b60008060646112af620186a085611892565b6112b991906118bd565b905060148110156112cd5750600092915050565b60238110156112df5750600192915050565b602f8110156112f15750600292915050565b60398110156113035750600392915050565b60428110156113155750600492915050565b604a8110156113275750600592915050565b60528110156113395750600692915050565b605a81101561134b5750600792915050565b605e81101561135d5750600892915050565b606181101561136f5750600992915050565b60638110156113815750600a92915050565b50600b92915050565b600080606461139c6298968085611892565b6113a691906118bd565b905060328110156113ba5750600092915050565b60558110156113cc5750600192915050565b60618110156112175750600292915050565b604051806101800160405280600c905b60608152602001906001900390816113ee5790505090565b604080516101208101909152606081526008602082016113ee565b60005b8381101561143c578181015183820152602001611424565b8381111561144b576000848401525b50505050565b60008151808452611469816020860160208601611421565b601f01601f19169290920160200192915050565b6020815260006114906020830184611451565b9392505050565b6000602082840312156114a957600080fd5b5035919050565b6020808252825182820181905260009190848201906040850190845b818110156114e8578351835292840192918401916001016114cc565b50909695505050505050565b6000602080830181845280855180835260408601915060408160051b870101925083870160005b8281101561154957603f19888603018452611537858351611451565b9450928501929085019060010161151b565b5092979650505050505050565b60006020828403121561156857600080fd5b81356001600160a01b038116811461149057600080fd5b60208082526035908201527f54616e6b47656e653a2063616c6c6572206973206e6f7420746865204e46542060408201527474616e6b20636f6e7472616374206164647265737360581b606082015260800190565b634e487b7160e01b600052603260045260246000fd5b634e487b7160e01b600052601160045260246000fd5b60008219821115611613576116136115ea565b500190565b600360fc1b815260008251611634816001850160208701611421565b9190910160010192915050565b60008451611653818460208901611421565b845190830190611667818360208901611421565b845191019061167a818360208801611421565b0195945050505050565b6020808252818101527f4f776e61626c653a2063616c6c6572206973206e6f7420746865206f776e6572604082015260600190565b60008a516116cb818460208f01611421565b8a516116dd8183860160208f01611421565b8a5191840101906116f2818360208e01611421565b89516117048183850160208e01611421565b895192909101019061171a818360208c01611421565b875161172c8183850160208c01611421565b8751929091010190611742818360208a01611421565b85516117548183850160208a01611421565b855192909101019061176a818360208801611421565b019b9a5050505050505050505050565b6000855161178c818460208a01611421565b8551908301906117a0818360208a01611421565b85519101906117b3818360208901611421565b84519101906117c6818360208801611421565b019695505050505050565b7f646174613a696d6167652f7376672b786d6c3b6261736536342c00000000000081526000825161180981601a850160208701611421565b91909101601a0192915050565b634e487b7160e01b600052604160045260246000fd5b600181811c9082168061184057607f821691505b6020821081141561123257634e487b7160e01b600052602260045260246000fd5b6000600019821415611875576118756115ea565b5060010190565b634e487b7160e01b600052601260045260246000fd5b6000826118a1576118a161187c565b500490565b6000828210156118b8576118b86115ea565b500390565b6000826118cc576118cc61187c565b500690565b60008160001904831182151516156118eb576118eb6115ea565b50029056fe3c2f746578743e3c7465787420783d223830252220793d223437302220646f6d696e616e742d626173656c696e653d226d6964646c652220746578742d616e63686f723d226d6964646c652220636c6173733d2262617365223e3c2f746578743e3c7465787420783d223430252220793d223437302220646f6d696e616e742d626173656c696e653d226d6964646c652220746578742d616e63686f723d226d6964646c652220636c6173733d2262617365223e546865204e6174696f6e616c2054726561737572652044414f20284e5444414f2920697320612070726f6a6563742064657369676e656420746f2070726f74656374207468652063756c747572616c206865726974616765206f66204b6f7265612061732061207368617265642070726f7065727479206f6620636974697a656e7320616e642073707265616420697473206d65616e696e6720746f20746865207075626c69632e20546865206e616d652044414f2028446563656e7472616c697a6564204175746f6e6f6d6f7573204f7267616e697a6174696f6e292077617320676976656e2c206265636175736520746869732070726f6a656374206973206e6f7420666f72207468652062656e65666974206f66206120706172746963756c617220636f6d70616e79206f7220696e646976696475616c2c2062757420746f20657870726573732074686520766f6c756e746172792070617274696369706174696f6e206f66206d616e7920636974697a656e7320616e6420636f6d6d756e697469657320746f20616368696576652074686520676f616c206f6620746865206f7267616e697a6174696f6e207468726f75676820646563656e7472616c697a6564206465636973696f6e2d6d616b696e672e205468652070726f63657373206f66206361727279696e67206f757420746869732070726f6a65637420697473656c6620697320616c736f2074686520676f616c206f6620636f6e74656d706c6174696e672c2073686172696e672c20616e6420776f726b696e6720746f676574686572206f6e207468652074727565206d65616e696e67206f662063756c747572616c2068657269746167652070726f74656374696f6e2e3c7465787420783d223230252220793d223432302220646f6d696e616e742d626173656c696e653d226d6964646c652220746578742d616e63686f723d226d6964646c652220636c6173733d2262617365223e3c73766720786d6c6e733d22687474703a2f2f7777772e77332e6f72672f323030302f73766722207072657365727665417370656374526174696f3d22784d696e594d696e206d656574222076696577426f783d223020302036303020363030223e3c2f746578743e3c7465787420783d223630252220793d223432302220646f6d696e616e742d626173656c696e653d226d6964646c652220746578742d616e63686f723d226d6964646c652220636c6173733d2262617365223e227d2c207b2274726169745f74797065223a20226469766973696f6e222c202276616c7565223a2022227d2c207b2274726169745f74797065223a20226272616e6368222c202276616c7565223a20223c7374796c653e202e62617365207b666f6e742d66616d696c793a2066616e746173793b2066696c6c3a20233344323831383b20666f6e742d73697a653a313530253b206c65747465722d73706163696e673a2030656d3b7d3c2f7374796c653e3c696d6167652077696474683d2236303022206865696768743d223630302220687265663d2268747470733a2f2f7261772e67697468756275736572636f6e74656e742e636f6d2f6e7464616f2d6f72672f6e7464616f2d6f72672e6769746875622e696f2f6d61696e2f61737365742f4e54445f4e46545f62675f656e2e6a7067222f3e4142434445464748494a4b4c4d4e4f505152535455565758595a6162636465666768696a6b6c6d6e6f707172737475767778797a303132333435363738392b2f5b7b2274726169745f74797065223a2022636c617373222c202276616c7565223a2022227d2c207b2274726169745f74797065223a202267656e65726174696f6e222c202276616c7565223a202267656e65726174696f6e2d30227d5d227d2c207b2274726169745f74797065223a2022656c656d656e74222c202276616c7565223a2022a264697066735822122086e7f65f94b75c3d544a9e0519a8030a871d0f2cd8347df6a7c81288bb438d7264736f6c634300080a0033",
  "linkReferences": {},
  "deployedLinkReferences": {}
}