{
  "_format": "hh-sol-artifact-1",
  "contractName": "NTDaoGene",
  "sourceName": "contracts/NTDaoGene.sol",
  "abi": [
    {
      "inputs": [
        {
          "internalType": "address",
          "name": "nftAddr_",
          "type": "address"
        }
      ],
      "stateMutability": "nonpayable",
      "type": "constructor"
    },
    {
      "anonymous": false,
      "inputs": [
        {
          "indexed": true,
          "internalType": "address",
          "name": "previousOwner",
          "type": "address"
        },
        {
          "indexed": true,
          "internalType": "address",
          "name": "newOwner",
          "type": "address"
        }
      ],
      "name": "OwnershipTransferred",
      "type": "event"
    },
    {
      "inputs": [],
      "name": "_nftAddr",
      "outputs": [
        {
          "internalType": "address",
          "name": "",
          "type": "address"
        }
      ],
      "stateMutability": "view",
      "type": "function"
    },
    {
      "inputs": [
        {
          "internalType": "uint256",
          "name": "_tokenId",
          "type": "uint256"
        }
      ],
      "name": "getAttrs",
      "outputs": [
        {
          "internalType": "string",
          "name": "",
          "type": "string"
        }
      ],
      "stateMutability": "view",
      "type": "function"
    },
    {
      "inputs": [
        {
          "internalType": "uint256",
          "name": "_tokenId",
          "type": "uint256"
        }
      ],
      "name": "getBaseGeneNames",
      "outputs": [
        {
          "internalType": "string[]",
          "name": "",
          "type": "string[]"
        }
      ],
      "stateMutability": "view",
      "type": "function"
    },
    {
      "inputs": [
        {
          "internalType": "uint256",
          "name": "_tokenId",
          "type": "uint256"
        }
      ],
      "name": "getBaseGenes",
      "outputs": [
        {
          "internalType": "uint256[]",
          "name": "",
          "type": "uint256[]"
        }
      ],
      "stateMutability": "view",
      "type": "function"
    },
    {
      "inputs": [],
      "name": "getDescription",
      "outputs": [
        {
          "internalType": "string",
          "name": "",
          "type": "string"
        }
      ],
      "stateMutability": "pure",
      "type": "function"
    },
    {
      "inputs": [
        {
          "internalType": "uint256",
          "name": "_tokenId",
          "type": "uint256"
        }
      ],
      "name": "getImgIdx",
      "outputs": [
        {
          "internalType": "string",
          "name": "",
          "type": "string"
        }
      ],
      "stateMutability": "view",
      "type": "function"
    },
    {
      "inputs": [],
      "name": "getNftAddr",
      "outputs": [
        {
          "internalType": "address",
          "name": "",
          "type": "address"
        }
      ],
      "stateMutability": "view",
      "type": "function"
    },
    {
      "inputs": [
        {
          "internalType": "uint256",
          "name": "_tokenId",
          "type": "uint256"
        }
      ],
      "name": "getSeed",
      "outputs": [
        {
          "internalType": "uint256",
          "name": "",
          "type": "uint256"
        }
      ],
      "stateMutability": "view",
      "type": "function"
    },
    {
      "inputs": [],
      "name": "owner",
      "outputs": [
        {
          "internalType": "address",
          "name": "",
          "type": "address"
        }
      ],
      "stateMutability": "view",
      "type": "function"
    },
    {
      "inputs": [],
      "name": "renounceOwnership",
      "outputs": [],
      "stateMutability": "nonpayable",
      "type": "function"
    },
    {
      "inputs": [
        {
          "internalType": "address",
          "name": "nftAddr_",
          "type": "address"
        }
      ],
      "name": "setNftAddr",
      "outputs": [],
      "stateMutability": "nonpayable",
      "type": "function"
    },
    {
      "inputs": [
        {
          "internalType": "address",
          "name": "newOwner",
          "type": "address"
        }
      ],
      "name": "transferOwnership",
      "outputs": [],
      "stateMutability": "nonpayable",
      "type": "function"
    }
  ],
  "bytecode": "0x60066101209081526531b7b6b6b7b760d11b6101405260809081526008610160908152673ab731b7b6b6b7b760c11b6101805260a05260046101a0818152637261726560e01b6101c05260c0526101e0908152636570696360e01b6102005260e0526102606040526009610220908152686c6567656e6461727960b81b6102405261010052620000949060029060056200035f565b506040805160e081018252600560a08201818152643bb0ba32b960d91b60c08401528252825180840184526004808252631ddbdbd960e21b6020838101919091528085019290925284518086018652908152636669726560e01b818301528385015283518085018552828152640cac2e4e8d60db1b8183015260608401528351808501909452818452641b595d185b60da1b9084015260808201929092526200014191600391906200035f565b50604080516101a08101825260036101608201818152621c985d60ea1b61018084015282528251808401845260028152610def60f31b60208281019190915280840191909152835180850185526005808252643a34b3b2b960d91b8284015284860191909152845180860186526006808252651c9858989a5d60d21b8285015260608601919091528551808701875281815265323930b3b7b760d11b8185015260808601528551808701875291825264736e616b6560d81b8284015260a08501919091528451808601865260098152681a1bdc9cd959dbd85d60ba1b8184015260c085015284518086018652908152656d6f6e6b657960d01b8183015260e08401528351808501855260078152663937b7b9ba32b960c91b818301526101008401528351808501855282815262646f6760e81b8183015261012084015283518085019094529083526270696760e81b90830152610140810191909152620002ad90600490600b620003c3565b50348015620002bb57600080fd5b5060405162001aa338038062001aa3833981016040819052620002de916200051a565b620002e9336200030f565b600180546001600160a01b0319166001600160a01b039290921691909117905562000589565b600080546001600160a01b038381166001600160a01b0319831681178455604051919092169283917f8be0079c531659141344cd1fd0a4f28419497f9722a3daafe3b4186f6b6457e09190a35050565b828054828255906000526020600020908101928215620003b1579160200282015b82811115620003b15782518051620003a091849160209091019062000415565b509160200191906001019062000380565b50620003bf929150620004a0565b5090565b828054828255906000526020600020908101928215620003b1579160200282015b82811115620003b157825180516200040491849160209091019062000415565b5091602001919060010190620003e4565b82805462000423906200054c565b90600052602060002090601f01602090048101928262000447576000855562000492565b82601f106200046257805160ff191683800117855562000492565b8280016001018555821562000492579182015b828111156200049257825182559160200191906001019062000475565b50620003bf929150620004c1565b80821115620003bf576000620004b78282620004d8565b50600101620004a0565b5b80821115620003bf5760008155600101620004c2565b508054620004e6906200054c565b6000825580601f10620004f7575050565b601f016020900490600052602060002090810190620005179190620004c1565b50565b6000602082840312156200052d57600080fd5b81516001600160a01b03811681146200054557600080fd5b9392505050565b600181811c908216806200056157607f821691505b602082108114156200058357634e487b7160e01b600052602260045260246000fd5b50919050565b61150a80620005996000396000f3fe608060405234801561001057600080fd5b50600436106100b45760003560e01c8063ca706d5011610071578063ca706d5014610141578063cf2defeb14610154578063d08fd6eb14610174578063dec1f63714610194578063e0d4ea37146101a7578063f2fde38b146101c857600080fd5b80631a092541146100b957806337138e35146100d75780635555c40214610102578063715018a6146101155780637c63b2741461011f5780638da5cb5b14610130575b600080fd5b6100c16101db565b6040516100ce9190610e5d565b60405180910390f35b6001546100ea906001600160a01b031681565b6040516001600160a01b0390911681526020016100ce565b6100c1610110366004610e77565b610201565b61011d61035d565b005b6001546001600160a01b03166100ea565b6000546001600160a01b03166100ea565b6100c161014f366004610e77565b610393565b610167610162366004610e77565b61052e565b6040516100ce9190610e90565b610187610182366004610e77565b610627565b6040516100ce9190610ed4565b61011d6101a2366004610f36565b610951565b6101ba6101b5366004610e77565b61099d565b6040519081526020016100ce565b61011d6101d6366004610f36565b610a24565b60606000604051806102a0016040528061027c81526020016111e761027c913992915050565b6001546060906001600160a01b0316336001600160a01b0316148061023057506000546001600160a01b031633145b6102555760405162461bcd60e51b815260040161024c90610f5f565b60405180910390fd5b60006102608361052e565b9050600061029360018360008151811061027c5761027c610fb4565b602002602001015161028e9190610fe0565b610abf565b905060006102af60018460018151811061027c5761027c610fb4565b905060606008846001815181106102c8576102c8610fb4565b602002602001015111610313576102ed60018560018151811061027c5761027c610fb4565b6040516020016102fd9190610ff8565b604051602081830303815290604052905061032e565b61032b60018560018151811061027c5761027c610fb4565b90505b82828260405160200161034393929190611021565b604051602081830303815290604052945050505050919050565b6000546001600160a01b031633146103875760405162461bcd60e51b815260040161024c90611064565b6103916000610bc5565b565b606060006103a083610627565b90506103aa610dda565b60405180606001604052806023815260200161148a602391398152815182906000906103d8576103d8610fb4565b6020026020010151816001600781106103f3576103f3610fb4565b60200201819052506040518060600160405280602881526020016114ad60289139604082015281518290600190811061042e5761042e610fb4565b60200260200101518160036007811061044957610449610fb4565b602002018190525060405180606001604052806027815260200161146360279139608082015281518290600290811061048457610484610fb4565b60200260200101518160056007811061049f5761049f610fb4565b602002018190525060405180604001604052806003815260200162227d5d60e81b815250816006600781106104d6576104d6610fb4565b602090810291909101919091528151828201516040808501516060860151608087015160a088015160c089015194516000986105159897969101611099565b60408051601f1981840301815291905295945050505050565b6001546060906001600160a01b0316336001600160a01b0316148061055d57506000546001600160a01b031633145b6105795760405162461bcd60e51b815260040161024c90610f5f565b604080516003808252608082019092526000916020820160608036833701905050905060006105a78461099d565b90506105b281610c15565b826000815181106105c5576105c5610fb4565b6020026020010181815250506105da81610c88565b826001815181106105ed576105ed610fb4565b60200260200101818152505061060281610ced565b8260028151811061061557610615610fb4565b60209081029190910101525092915050565b6001546060906001600160a01b0316336001600160a01b0316148061065657506000546001600160a01b031633145b6106725760405162461bcd60e51b815260040161024c90610f5f565b600061067d8361052e565b6040805160038082526080820190925291925060009190816020015b60608152602001906001900390816106995790505090506002826000815181106106c5576106c5610fb4565b6020026020010151815481106106dd576106dd610fb4565b9060005260206000200180546106f290611141565b80601f016020809104026020016040519081016040528092919081815260200182805461071e90611141565b801561076b5780601f106107405761010080835404028352916020019161076b565b820191906000526020600020905b81548152906001019060200180831161074e57829003601f168201915b50505050508160008151811061078357610783610fb4565b60200260200101819052506003826001815181106107a3576107a3610fb4565b6020026020010151815481106107bb576107bb610fb4565b9060005260206000200180546107d090611141565b80601f01602080910402602001604051908101604052809291908181526020018280546107fc90611141565b80156108495780601f1061081e57610100808354040283529160200191610849565b820191906000526020600020905b81548152906001019060200180831161082c57829003601f168201915b50505050508160018151811061086157610861610fb4565b602002602001018190525060048260028151811061088157610881610fb4565b60200260200101518154811061089957610899610fb4565b9060005260206000200180546108ae90611141565b80601f01602080910402602001604051908101604052809291908181526020018280546108da90611141565b80156109275780601f106108fc57610100808354040283529160200191610927565b820191906000526020600020905b81548152906001019060200180831161090a57829003601f168201915b50505050508160028151811061093f5761093f610fb4565b60209081029190910101529392505050565b6000546001600160a01b0316331461097b5760405162461bcd60e51b815260040161024c90611064565b600180546001600160a01b0319166001600160a01b0392909216919091179055565b6001546000906001600160a01b0316336001600160a01b031614806109cc57506000546001600160a01b031633145b6109e85760405162461bcd60e51b815260040161024c90610f5f565b816107e6604051602001610a06929190918252602082015260400190565b60408051601f19818403018152919052805160209091012092915050565b6000546001600160a01b03163314610a4e5760405162461bcd60e51b815260040161024c90611064565b6001600160a01b038116610ab35760405162461bcd60e51b815260206004820152602660248201527f4f776e61626c653a206e6577206f776e657220697320746865207a65726f206160448201526564647265737360d01b606482015260840161024c565b610abc81610bc5565b50565b606081610ae35750506040805180820190915260018152600360fc1b602082015290565b8160005b8115610b0d5780610af781611176565b9150610b069050600a836111a7565b9150610ae7565b60008167ffffffffffffffff811115610b2857610b2861112b565b6040519080825280601f01601f191660200182016040528015610b52576020820181803683370190505b5090505b8415610bbd57610b676001836111bb565b9150610b74600a866111d2565b610b7f906030610fe0565b60f81b818381518110610b9457610b94610fb4565b60200101906001600160f81b031916908160001a905350610bb6600a866111a7565b9450610b56565b949350505050565b600080546001600160a01b038381166001600160a01b0319831681178455604051919092169283917f8be0079c531659141344cd1fd0a4f28419497f9722a3daafe3b4186f6b6457e09190a35050565b6000806064610c25600a856111a7565b610c2f91906111d2565b90506032811015610c435750600092915050565b6050811015610c555750600192915050565b605e811015610c675750600292915050565b6063811015610c795750600392915050565b50600492915050565b50919050565b6000806064610c996103e8856111a7565b610ca391906111d2565b90506032811015610cb75750600092915050565b604b811015610cc95750600192915050565b6055811015610cdb5750600292915050565b605f811015610c795750600392915050565b6000806064610cff620186a0856111a7565b610d0991906111d2565b90506014811015610d1d5750600092915050565b6023811015610d2f5750600192915050565b602f811015610d415750600292915050565b6039811015610d535750600392915050565b6042811015610d655750600492915050565b604a811015610d775750600592915050565b6052811015610d895750600692915050565b605a811015610d9b5750600792915050565b605e811015610dad5750600892915050565b6061811015610dbf5750600992915050565b6063811015610dd15750600a92915050565b50600b92915050565b6040518060e001604052806007905b6060815260200190600190039081610de95790505090565b60005b83811015610e1c578181015183820152602001610e04565b83811115610e2b576000848401525b50505050565b60008151808452610e49816020860160208601610e01565b601f01601f19169290920160200192915050565b602081526000610e706020830184610e31565b9392505050565b600060208284031215610e8957600080fd5b5035919050565b6020808252825182820181905260009190848201906040850190845b81811015610ec857835183529284019291840191600101610eac565b50909695505050505050565b6000602080830181845280855180835260408601915060408160051b870101925083870160005b82811015610f2957603f19888603018452610f17858351610e31565b94509285019290850190600101610efb565b5092979650505050505050565b600060208284031215610f4857600080fd5b81356001600160a01b0381168114610e7057600080fd5b60208082526035908201527f54616e6b47656e653a2063616c6c6572206973206e6f7420746865204e46542060408201527474616e6b20636f6e7472616374206164647265737360581b606082015260800190565b634e487b7160e01b600052603260045260246000fd5b634e487b7160e01b600052601160045260246000fd5b60008219821115610ff357610ff3610fca565b500190565b600360fc1b815260008251611014816001850160208701610e01565b9190910160010192915050565b60008451611033818460208901610e01565b845190830190611047818360208901610e01565b845191019061105a818360208801610e01565b0195945050505050565b6020808252818101527f4f776e61626c653a2063616c6c6572206973206e6f7420746865206f776e6572604082015260600190565b6000885160206110ac8285838e01610e01565b8951918401916110bf8184848e01610e01565b89519201916110d18184848d01610e01565b88519201916110e38184848c01610e01565b87519201916110f58184848b01610e01565b86519201916111078184848a01610e01565b85519201916111198184848901610e01565b919091019a9950505050505050505050565b634e487b7160e01b600052604160045260246000fd5b600181811c9082168061115557607f821691505b60208210811415610c8257634e487b7160e01b600052602260045260246000fd5b600060001982141561118a5761118a610fca565b5060010190565b634e487b7160e01b600052601260045260246000fd5b6000826111b6576111b6611191565b500490565b6000828210156111cd576111cd610fca565b500390565b6000826111e1576111e1611191565b50069056fe546865204e6174696f6e616c2054726561737572652044414f20284e5444414f2920697320612070726f6a6563742064657369676e656420746f2070726f74656374207468652063756c747572616c206865726974616765206f66204b6f7265612061732061207368617265642070726f7065727479206f6620636974697a656e7320616e642073707265616420697473206d65616e696e6720746f20746865207075626c69632e20546865206e616d652044414f2028446563656e7472616c697a6564204175746f6e6f6d6f7573204f7267616e697a6174696f6e292077617320676976656e2c206265636175736520746869732070726f6a656374206973206e6f7420666f72207468652062656e65666974206f66206120706172746963756c617220636f6d70616e79206f7220696e646976696475616c2c2062757420746f20657870726573732074686520766f6c756e746172792070617274696369706174696f6e206f66206d616e7920636974697a656e7320616e6420636f6d6d756e697469657320746f20616368696576652074686520676f616c206f6620746865206f7267616e697a6174696f6e207468726f75676820646563656e7472616c697a6564206465636973696f6e2d6d616b696e672e205468652070726f63657373206f66206361727279696e67206f757420746869732070726f6a65637420697473656c6620697320616c736f2074686520676f616c206f6620636f6e74656d706c6174696e672c2073686172696e672c20616e6420776f726b696e6720746f676574686572206f6e207468652074727565206d65616e696e67206f662063756c747572616c2068657269746167652070726f74656374696f6e2e227d2c207b2274726169745f74797065223a20226272616e6368222c202276616c7565223a20225b7b2274726169745f74797065223a2022636c617373222c202276616c7565223a2022227d2c207b2274726169745f74797065223a2022656c656d656e74222c202276616c7565223a2022a2646970667358221220967af18cc7e9fc553869e5910ee8687f49a33ca7499435e3565c33e0703caa5c64736f6c634300080a0033",
  "linkReferences": {},
  "deployedLinkReferences": {}
}